{"abi":[{"type":"constructor","inputs":[{"name":"_bvpToken","type":"address","internalType":"address"},{"name":"_gatewayRouter","type":"address","internalType":"address"}],"stateMutability":"nonpayable"},{"type":"function","name":"bvpToken","inputs":[],"outputs":[{"name":"","type":"address","internalType":"contract IERC20"}],"stateMutability":"view"},{"type":"function","name":"gatewayRouter","inputs":[],"outputs":[{"name":"","type":"address","internalType":"contract IL1GatewayRouter"}],"stateMutability":"view"},{"type":"function","name":"outboundTransfer","inputs":[{"name":"token","type":"address","internalType":"address"},{"name":"to","type":"address","internalType":"address"},{"name":"amount","type":"uint256","internalType":"uint256"},{"name":"data","type":"bytes","internalType":"bytes"}],"outputs":[{"name":"","type":"bytes","internalType":"bytes"}],"stateMutability":"payable"}],"bytecode":{"object":"0x60c060405234801561000f575f5ffd5b50604051610c6a380380610c6a833981810160405281019061003191906101a5565b5f73ffffffffffffffffffffffffffffffffffffffff168273ffffffffffffffffffffffffffffffffffffffff161415801561009957505f73ffffffffffffffffffffffffffffffffffffffff168173ffffffffffffffffffffffffffffffffffffffff1614155b6100d8576040517f08c379a00000000000000000000000000000000000000000000000000000000081526004016100cf9061023d565b60405180910390fd5b8173ffffffffffffffffffffffffffffffffffffffff1660808173ffffffffffffffffffffffffffffffffffffffff16815250508073ffffffffffffffffffffffffffffffffffffffff1660a08173ffffffffffffffffffffffffffffffffffffffff1681525050505061025b565b5f5ffd5b5f73ffffffffffffffffffffffffffffffffffffffff82169050919050565b5f6101748261014b565b9050919050565b6101848161016a565b811461018e575f5ffd5b50565b5f8151905061019f8161017b565b92915050565b5f5f604083850312156101bb576101ba610147565b5b5f6101c885828601610191565b92505060206101d985828601610191565b9150509250929050565b5f82825260208201905092915050565b7f496e76616c6964206164647200000000000000000000000000000000000000005f82015250565b5f610227600c836101e3565b9150610232826101f3565b602082019050919050565b5f6020820190508181035f8301526102548161021b565b9050919050565b60805160a0516109cd61029d5f395f818160bd0152818161024b01526102cb01525f818160e3015281816101710152818161020f015261037c01526109cd5ff3fe608060405260043610610033575f3560e01c806303c85ea3146100375780637b3a3c8b14610061578063fd2ef43b14610091575b5f5ffd5b348015610042575f5ffd5b5061004b6100bb565b6040516100589190610418565b60405180910390f35b61007b60048036038101906100769190610511565b6100df565b6040516100889190610605565b60405180910390f35b34801561009c575f5ffd5b506100a561037a565b6040516100b29190610645565b60405180910390f35b7f000000000000000000000000000000000000000000000000000000000000000081565b60607f000000000000000000000000000000000000000000000000000000000000000073ffffffffffffffffffffffffffffffffffffffff168673ffffffffffffffffffffffffffffffffffffffff161461016f576040517f08c379a0000000000000000000000000000000000000000000000000000000008152600401610166906106b8565b60405180910390fd5b7f000000000000000000000000000000000000000000000000000000000000000073ffffffffffffffffffffffffffffffffffffffff166323b872dd3330876040518463ffffffff1660e01b81526004016101cc939291906106f4565b6020604051808303815f875af11580156101e8573d5f5f3e3d5ffd5b505050506040513d601f19601f8201168201806040525081019061020c919061075e565b507f000000000000000000000000000000000000000000000000000000000000000073ffffffffffffffffffffffffffffffffffffffff1663095ea7b37f0000000000000000000000000000000000000000000000000000000000000000866040518363ffffffff1660e01b8152600401610288929190610789565b6020604051808303815f875af11580156102a4573d5f5f3e3d5ffd5b505050506040513d601f19601f820116820180604052508101906102c8919061075e565b507f000000000000000000000000000000000000000000000000000000000000000073ffffffffffffffffffffffffffffffffffffffff16637b3a3c8b3488888888886040518763ffffffff1660e01b815260040161032b9594939291906107ea565b5f6040518083038185885af1158015610346573d5f5f3e3d5ffd5b50505050506040513d5f823e3d601f19601f8201168201806040525081019061036f9190610950565b905095945050505050565b7f000000000000000000000000000000000000000000000000000000000000000081565b5f73ffffffffffffffffffffffffffffffffffffffff82169050919050565b5f819050919050565b5f6103e06103db6103d68461039e565b6103bd565b61039e565b9050919050565b5f6103f1826103c6565b9050919050565b5f610402826103e7565b9050919050565b610412816103f8565b82525050565b5f60208201905061042b5f830184610409565b92915050565b5f604051905090565b5f5ffd5b5f5ffd5b5f61044c8261039e565b9050919050565b61045c81610442565b8114610466575f5ffd5b50565b5f8135905061047781610453565b92915050565b5f819050919050565b61048f8161047d565b8114610499575f5ffd5b50565b5f813590506104aa81610486565b92915050565b5f5ffd5b5f5ffd5b5f5ffd5b5f5f83601f8401126104d1576104d06104b0565b5b8235905067ffffffffffffffff8111156104ee576104ed6104b4565b5b60208301915083600182028301111561050a576105096104b8565b5b9250929050565b5f5f5f5f5f6080868803121561052a5761052961043a565b5b5f61053788828901610469565b955050602061054888828901610469565b94505060406105598882890161049c565b935050606086013567ffffffffffffffff81111561057a5761057961043e565b5b610586888289016104bc565b92509250509295509295909350565b5f81519050919050565b5f82825260208201905092915050565b8281835e5f83830152505050565b5f601f19601f8301169050919050565b5f6105d782610595565b6105e1818561059f565b93506105f18185602086016105af565b6105fa816105bd565b840191505092915050565b5f6020820190508181035f83015261061d81846105cd565b905092915050565b5f61062f826103e7565b9050919050565b61063f81610625565b82525050565b5f6020820190506106585f830184610636565b92915050565b5f82825260208201905092915050565b7f4c313a20746f6b656e206e6f7420737570706f727465640000000000000000005f82015250565b5f6106a260178361065e565b91506106ad8261066e565b602082019050919050565b5f6020820190508181035f8301526106cf81610696565b9050919050565b6106df81610442565b82525050565b6106ee8161047d565b82525050565b5f6060820190506107075f8301866106d6565b61071460208301856106d6565b61072160408301846106e5565b949350505050565b5f8115159050919050565b61073d81610729565b8114610747575f5ffd5b50565b5f8151905061075881610734565b92915050565b5f602082840312156107735761077261043a565b5b5f6107808482850161074a565b91505092915050565b5f60408201905061079c5f8301856106d6565b6107a960208301846106e5565b9392505050565b828183375f83830152505050565b5f6107c9838561059f565b93506107d68385846107b0565b6107df836105bd565b840190509392505050565b5f6080820190506107fd5f8301886106d6565b61080a60208301876106d6565b61081760408301866106e5565b818103606083015261082a8184866107be565b90509695505050505050565b5f5ffd5b7f4e487b71000000000000000000000000000000000000000000000000000000005f52604160045260245ffd5b610870826105bd565b810181811067ffffffffffffffff8211171561088f5761088e61083a565b5b80604052505050565b5f6108a1610431565b90506108ad8282610867565b919050565b5f67ffffffffffffffff8211156108cc576108cb61083a565b5b6108d5826105bd565b9050602081019050919050565b5f6108f46108ef846108b2565b610898565b9050828152602081018484840111156109105761090f610836565b5b61091b8482856105af565b509392505050565b5f82601f830112610937576109366104b0565b5b81516109478482602086016108e2565b91505092915050565b5f602082840312156109655761096461043a565b5b5f82015167ffffffffffffffff8111156109825761098161043e565b5b61098e84828501610923565b9150509291505056fea26469706673582212208767c870d42ce70c670e950ffc4c60bd34ce9f48cc9953e2780a9c05a64be7d164736f6c634300081d0033","linkReferences":{}},"methodIdentifiers":{"bvpToken()":"fd2ef43b","gatewayRouter()":"03c85ea3","outboundTransfer(address,address,uint256,bytes)":"7b3a3c8b"},"id":3}