{"abi":[{"type":"constructor","inputs":[{"name":"publicSale_","type":"address","internalType":"address"},{"name":"operations_","type":"address","internalType":"address"},{"name":"presale_","type":"address","internalType":"address"},{"name":"foundersAndTeam_","type":"address","internalType":"address"},{"name":"marketing_","type":"address","internalType":"address"},{"name":"advisors_","type":"address","internalType":"address"},{"name":"treasury_","type":"address","internalType":"address"},{"name":"liquidity_","type":"address","internalType":"address"}],"stateMutability":"nonpayable"},{"type":"function","name":"MAX_SUPPLY","inputs":[],"outputs":[{"name":"","type":"uint256","internalType":"uint256"}],"stateMutability":"view"},{"type":"function","name":"allowance","inputs":[{"name":"owner","type":"address","internalType":"address"},{"name":"spender","type":"address","internalType":"address"}],"outputs":[{"name":"","type":"uint256","internalType":"uint256"}],"stateMutability":"view"},{"type":"function","name":"approve","inputs":[{"name":"spender","type":"address","internalType":"address"},{"name":"value","type":"uint256","internalType":"uint256"}],"outputs":[{"name":"","type":"bool","internalType":"bool"}],"stateMutability":"nonpayable"},{"type":"function","name":"balanceOf","inputs":[{"name":"account","type":"address","internalType":"address"}],"outputs":[{"name":"","type":"uint256","internalType":"uint256"}],"stateMutability":"view"},{"type":"function","name":"decimals","inputs":[],"outputs":[{"name":"","type":"uint8","internalType":"uint8"}],"stateMutability":"view"},{"type":"function","name":"name","inputs":[],"outputs":[{"name":"","type":"string","internalType":"string"}],"stateMutability":"view"},{"type":"function","name":"symbol","inputs":[],"outputs":[{"name":"","type":"string","internalType":"string"}],"stateMutability":"view"},{"type":"function","name":"totalSupply","inputs":[],"outputs":[{"name":"","type":"uint256","internalType":"uint256"}],"stateMutability":"view"},{"type":"function","name":"transfer","inputs":[{"name":"to","type":"address","internalType":"address"},{"name":"value","type":"uint256","internalType":"uint256"}],"outputs":[{"name":"","type":"bool","internalType":"bool"}],"stateMutability":"nonpayable"},{"type":"function","name":"transferFrom","inputs":[{"name":"from","type":"address","internalType":"address"},{"name":"to","type":"address","internalType":"address"},{"name":"value","type":"uint256","internalType":"uint256"}],"outputs":[{"name":"","type":"bool","internalType":"bool"}],"stateMutability":"nonpayable"},{"type":"event","name":"Approval","inputs":[{"name":"owner","type":"address","indexed":true,"internalType":"address"},{"name":"spender","type":"address","indexed":true,"internalType":"address"},{"name":"value","type":"uint256","indexed":false,"internalType":"uint256"}],"anonymous":false},{"type":"event","name":"Transfer","inputs":[{"name":"from","type":"address","indexed":true,"internalType":"address"},{"name":"to","type":"address","indexed":true,"internalType":"address"},{"name":"value","type":"uint256","indexed":false,"internalType":"uint256"}],"anonymous":false},{"type":"error","name":"ERC20InsufficientAllowance","inputs":[{"name":"spender","type":"address","internalType":"address"},{"name":"allowance","type":"uint256","internalType":"uint256"},{"name":"needed","type":"uint256","internalType":"uint256"}]},{"type":"error","name":"ERC20InsufficientBalance","inputs":[{"name":"sender","type":"address","internalType":"address"},{"name":"balance","type":"uint256","internalType":"uint256"},{"name":"needed","type":"uint256","internalType":"uint256"}]},{"type":"error","name":"ERC20InvalidApprover","inputs":[{"name":"approver","type":"address","internalType":"address"}]},{"type":"error","name":"ERC20InvalidReceiver","inputs":[{"name":"receiver","type":"address","internalType":"address"}]},{"type":"error","name":"ERC20InvalidSender","inputs":[{"name":"sender","type":"address","internalType":"address"}]},{"type":"error","name":"ERC20InvalidSpender","inputs":[{"name":"spender","type":"address","internalType":"address"}]}],"bytecode":{"object":"0x608060405234801561000f575f5ffd5b50604051610d4a380380610d4a83398101604081905261002e916103f4565b6040518060400160405280601981526020017f42696720566973696f6e20506963747572657320546f6b656e000000000000008152506040518060400160405280600381526020016204256560ec1b815250816003908161008f919061051e565b50600461009c828261051e565b5050506001600160a01b038816158015906100bf57506001600160a01b03871615155b80156100d357506001600160a01b03861615155b80156100e757506001600160a01b03851615155b80156100fb57506001600160a01b03841615155b801561010f57506001600160a01b03831615155b801561012357506001600160a01b03821615155b801561013757506001600160a01b03811615155b6101775760405162461bcd60e51b815260206004820152600c60248201526b5a45524f5f4144445245535360a01b60448201526064015b60405180910390fd5b6101a38860646101946b033b2e3c9fd0803ce8000000601e6105ec565b61019e9190610609565b61027b565b6101c08760646101946b033b2e3c9fd0803ce800000060146105ec565b6101dd8660646101946b033b2e3c9fd0803ce8000000600a6105ec565b6101fa8560646101946b033b2e3c9fd0803ce8000000600a6105ec565b6102178460646101946b033b2e3c9fd0803ce8000000600f6105ec565b6102348360646101946b033b2e3c9fd0803ce800000060056105ec565b6102518260646101946b033b2e3c9fd0803ce800000060056105ec565b61026e8160646101946b033b2e3c9fd0803ce800000060056105ec565b505050505050505061063b565b6001600160a01b0382166102a45760405163ec442f0560e01b81525f600482015260240161016e565b6102af5f83836102b3565b5050565b6001600160a01b0383166102dd578060025f8282546102d29190610628565b9091555061034d9050565b6001600160a01b0383165f908152602081905260409020548181101561032f5760405163391434e360e21b81526001600160a01b0385166004820152602481018290526044810183905260640161016e565b6001600160a01b0384165f9081526020819052604090209082900390555b6001600160a01b03821661036957600280548290039055610387565b6001600160a01b0382165f9081526020819052604090208054820190555b816001600160a01b0316836001600160a01b03167fddf252ad1be2c89b69c2b068fc378daa952ba7f163c4a11628f55a4df523b3ef836040516103cc91815260200190565b60405180910390a3505050565b80516001600160a01b03811681146103ef575f5ffd5b919050565b5f5f5f5f5f5f5f5f610100898b03121561040c575f5ffd5b610415896103d9565b975061042360208a016103d9565b965061043160408a016103d9565b955061043f60608a016103d9565b945061044d60808a016103d9565b935061045b60a08a016103d9565b925061046960c08a016103d9565b915061047760e08a016103d9565b90509295985092959890939650565b634e487b7160e01b5f52604160045260245ffd5b600181811c908216806104ae57607f821691505b6020821081036104cc57634e487b7160e01b5f52602260045260245ffd5b50919050565b601f82111561051957805f5260205f20601f840160051c810160208510156104f75750805b601f840160051c820191505b81811015610516575f8155600101610503565b50505b505050565b81516001600160401b0381111561053757610537610486565b61054b81610545845461049a565b846104d2565b6020601f82116001811461057d575f83156105665750848201515b5f19600385901b1c1916600184901b178455610516565b5f84815260208120601f198516915b828110156105ac578785015182556020948501946001909201910161058c565b50848210156105c957868401515f19600387901b60f8161c191681555b50505050600190811b01905550565b634e487b7160e01b5f52601160045260245ffd5b8082028115828204841417610603576106036105d8565b92915050565b5f8261062357634e487b7160e01b5f52601260045260245ffd5b500490565b80820180821115610603576106036105d8565b610702806106485f395ff3fe608060405234801561000f575f5ffd5b506004361061009b575f3560e01c806332cb6b0c1161006357806332cb6b0c1461011457806370a082311461012757806395d89b411461014f578063a9059cbb14610157578063dd62ed3e1461016a575f5ffd5b806306fdde031461009f578063095ea7b3146100bd57806318160ddd146100e057806323b872dd146100f2578063313ce56714610105575b5f5ffd5b6100a76101a2565b6040516100b49190610572565b60405180910390f35b6100d06100cb3660046105c2565b610232565b60405190151581526020016100b4565b6002545b6040519081526020016100b4565b6100d06101003660046105ea565b61024b565b604051601281526020016100b4565b6100e46b033b2e3c9fd0803ce800000081565b6100e4610135366004610624565b6001600160a01b03165f9081526020819052604090205490565b6100a761026e565b6100d06101653660046105c2565b61027d565b6100e4610178366004610644565b6001600160a01b039182165f90815260016020908152604080832093909416825291909152205490565b6060600380546101b190610675565b80601f01602080910402602001604051908101604052809291908181526020018280546101dd90610675565b80156102285780601f106101ff57610100808354040283529160200191610228565b820191905f5260205f20905b81548152906001019060200180831161020b57829003601f168201915b5050505050905090565b5f3361023f81858561028a565b60019150505b92915050565b5f3361025885828561029c565b61026385858561031d565b506001949350505050565b6060600480546101b190610675565b5f3361023f81858561031d565b610297838383600161037a565b505050565b6001600160a01b038381165f908152600160209081526040808320938616835292905220545f19811015610317578181101561030957604051637dc7a0d960e11b81526001600160a01b038416600482015260248101829052604481018390526064015b60405180910390fd5b61031784848484035f61037a565b50505050565b6001600160a01b03831661034657604051634b637e8f60e11b81525f6004820152602401610300565b6001600160a01b03821661036f5760405163ec442f0560e01b81525f6004820152602401610300565b61029783838361044c565b6001600160a01b0384166103a35760405163e602df0560e01b81525f6004820152602401610300565b6001600160a01b0383166103cc57604051634a1406b160e11b81525f6004820152602401610300565b6001600160a01b038085165f908152600160209081526040808320938716835292905220829055801561031757826001600160a01b0316846001600160a01b03167f8c5be1e5ebec7d5bd14f71427d1e84f3dd0314c0f7b2291e5b200ac8c7c3b9258460405161043e91815260200190565b60405180910390a350505050565b6001600160a01b038316610476578060025f82825461046b91906106ad565b909155506104e69050565b6001600160a01b0383165f90815260208190526040902054818110156104c85760405163391434e360e21b81526001600160a01b03851660048201526024810182905260448101839052606401610300565b6001600160a01b0384165f9081526020819052604090209082900390555b6001600160a01b03821661050257600280548290039055610520565b6001600160a01b0382165f9081526020819052604090208054820190555b816001600160a01b0316836001600160a01b03167fddf252ad1be2c89b69c2b068fc378daa952ba7f163c4a11628f55a4df523b3ef8360405161056591815260200190565b60405180910390a3505050565b602081525f82518060208401528060208501604085015e5f604082850101526040601f19601f83011684010191505092915050565b80356001600160a01b03811681146105bd575f5ffd5b919050565b5f5f604083850312156105d3575f5ffd5b6105dc836105a7565b946020939093013593505050565b5f5f5f606084860312156105fc575f5ffd5b610605846105a7565b9250610613602085016105a7565b929592945050506040919091013590565b5f60208284031215610634575f5ffd5b61063d826105a7565b9392505050565b5f5f60408385031215610655575f5ffd5b61065e836105a7565b915061066c602084016105a7565b90509250929050565b600181811c9082168061068957607f821691505b6020821081036106a757634e487b7160e01b5f52602260045260245ffd5b50919050565b8082018082111561024557634e487b7160e01b5f52601160045260245ffdfea26469706673582212201110e409953cc52e46ee75c607d3c1207ced51e3176534bfa12043196f2f548964736f6c634300081d0033","linkReferences":{}},"methodIdentifiers":{"MAX_SUPPLY()":"32cb6b0c","allowance(address,address)":"dd62ed3e","approve(address,uint256)":"095ea7b3","balanceOf(address)":"70a08231","decimals()":"313ce567","name()":"06fdde03","symbol()":"95d89b41","totalSupply()":"18160ddd","transfer(address,uint256)":"a9059cbb","transferFrom(address,address,uint256)":"23b872dd"},"id":1}