{"abi":[{"type":"constructor","inputs":[{"name":"publicSale_","type":"address","internalType":"address"},{"name":"operations_","type":"address","internalType":"address"},{"name":"presale_","type":"address","internalType":"address"},{"name":"foundersAndTeam_","type":"address","internalType":"address"},{"name":"marketing_","type":"address","internalType":"address"},{"name":"advisors_","type":"address","internalType":"address"},{"name":"treasury_","type":"address","internalType":"address"},{"name":"liquidity_","type":"address","internalType":"address"}],"stateMutability":"nonpayable"},{"type":"function","name":"MAX_TX","inputs":[],"outputs":[{"name":"","type":"uint256","internalType":"uint256"}],"stateMutability":"view"},{"type":"function","name":"MAX_WALLET","inputs":[],"outputs":[{"name":"","type":"uint256","internalType":"uint256"}],"stateMutability":"view"},{"type":"function","name":"allowance","inputs":[{"name":"owner","type":"address","internalType":"address"},{"name":"spender","type":"address","internalType":"address"}],"outputs":[{"name":"","type":"uint256","internalType":"uint256"}],"stateMutability":"view"},{"type":"function","name":"approve","inputs":[{"name":"spender","type":"address","internalType":"address"},{"name":"value","type":"uint256","internalType":"uint256"}],"outputs":[{"name":"","type":"bool","internalType":"bool"}],"stateMutability":"nonpayable"},{"type":"function","name":"balanceOf","inputs":[{"name":"account","type":"address","internalType":"address"}],"outputs":[{"name":"","type":"uint256","internalType":"uint256"}],"stateMutability":"view"},{"type":"function","name":"cap","inputs":[],"outputs":[{"name":"","type":"uint256","internalType":"uint256"}],"stateMutability":"view"},{"type":"function","name":"decimals","inputs":[],"outputs":[{"name":"","type":"uint8","internalType":"uint8"}],"stateMutability":"view"},{"type":"function","name":"isExcludedFromLimits","inputs":[{"name":"","type":"address","internalType":"address"}],"outputs":[{"name":"","type":"bool","internalType":"bool"}],"stateMutability":"view"},{"type":"function","name":"name","inputs":[],"outputs":[{"name":"","type":"string","internalType":"string"}],"stateMutability":"view"},{"type":"function","name":"setExcluded","inputs":[{"name":"account","type":"address","internalType":"address"},{"name":"excluded","type":"bool","internalType":"bool"}],"outputs":[],"stateMutability":"nonpayable"},{"type":"function","name":"symbol","inputs":[],"outputs":[{"name":"","type":"string","internalType":"string"}],"stateMutability":"view"},{"type":"function","name":"totalSupply","inputs":[],"outputs":[{"name":"","type":"uint256","internalType":"uint256"}],"stateMutability":"view"},{"type":"function","name":"transfer","inputs":[{"name":"to","type":"address","internalType":"address"},{"name":"value","type":"uint256","internalType":"uint256"}],"outputs":[{"name":"","type":"bool","internalType":"bool"}],"stateMutability":"nonpayable"},{"type":"function","name":"transferFrom","inputs":[{"name":"from","type":"address","internalType":"address"},{"name":"to","type":"address","internalType":"address"},{"name":"value","type":"uint256","internalType":"uint256"}],"outputs":[{"name":"","type":"bool","internalType":"bool"}],"stateMutability":"nonpayable"},{"type":"event","name":"Approval","inputs":[{"name":"owner","type":"address","indexed":true,"internalType":"address"},{"name":"spender","type":"address","indexed":true,"internalType":"address"},{"name":"value","type":"uint256","indexed":false,"internalType":"uint256"}],"anonymous":false},{"type":"event","name":"Transfer","inputs":[{"name":"from","type":"address","indexed":true,"internalType":"address"},{"name":"to","type":"address","indexed":true,"internalType":"address"},{"name":"value","type":"uint256","indexed":false,"internalType":"uint256"}],"anonymous":false},{"type":"error","name":"ERC20ExceededCap","inputs":[{"name":"increasedSupply","type":"uint256","internalType":"uint256"},{"name":"cap","type":"uint256","internalType":"uint256"}]},{"type":"error","name":"ERC20InsufficientAllowance","inputs":[{"name":"spender","type":"address","internalType":"address"},{"name":"allowance","type":"uint256","internalType":"uint256"},{"name":"needed","type":"uint256","internalType":"uint256"}]},{"type":"error","name":"ERC20InsufficientBalance","inputs":[{"name":"sender","type":"address","internalType":"address"},{"name":"balance","type":"uint256","internalType":"uint256"},{"name":"needed","type":"uint256","internalType":"uint256"}]},{"type":"error","name":"ERC20InvalidApprover","inputs":[{"name":"approver","type":"address","internalType":"address"}]},{"type":"error","name":"ERC20InvalidCap","inputs":[{"name":"cap","type":"uint256","internalType":"uint256"}]},{"type":"error","name":"ERC20InvalidReceiver","inputs":[{"name":"receiver","type":"address","internalType":"address"}]},{"type":"error","name":"ERC20InvalidSender","inputs":[{"name":"sender","type":"address","internalType":"address"}]},{"type":"error","name":"ERC20InvalidSpender","inputs":[{"name":"spender","type":"address","internalType":"address"}]}],"bytecode":{"object":"0x60e060405234801561000f575f5ffd5b5060405161118e38038061118e83398101604081905261002e9161050c565b6b033b2e3c9fd0803ce80000006040518060400160405280601981526020017f42696720566973696f6e20506963747572657320546f6b656e000000000000008152506040518060400160405280600381526020016204256560ec1b815250816003908161009c919061062e565b5060046100a9828261062e565b505050805f036100d35760405163392e1e2760e01b81525f60048201526024015b60405180910390fd5b6080526a084595161401484a00000060a0526a108b2a2c2802909400000060c05261011e5f89606461010460805190565b61010f90601e6106fc565b6101199190610719565b61021f565b6101395f88606461012e60805190565b61010f9060146106fc565b6101545f87606461014960805190565b61010f90600a6106fc565b6101645f86606461014960805190565b61017f5f85606461017460805190565b61010f90600f6106fc565b61019a5f84606461018f60805190565b61010f9060056106fc565b6101aa5f83606461018f60805190565b6101ba5f82606461018f60805190565b6001600160a01b039788165f908152600560205260408082208054600160ff199182168117909255998b16835281832080548b1682179055928a16825280822080548a1684179055929098168852962080549095169095179093555061074b92505050565b6001600160a01b0383161580159061023f57506001600160a01b03821615155b801561026357506001600160a01b0383165f9081526005602052604090205460ff16155b801561028757506001600160a01b0382165f9081526005602052604090205460ff16155b156103585760a0518111156102de5760405162461bcd60e51b815260206004820152601860248201527f54585f4c494d49543a2065786365656473206d6178207478000000000000000060448201526064016100ca565b60c05181610300846001600160a01b03165f9081526020819052604090205490565b61030a9190610738565b11156103585760405162461bcd60e51b815260206004820181905260248201527f57414c4c45545f4c494d49543a2065786365656473206d61782077616c6c657460448201526064016100ca565b610363838383610368565b505050565b6103738383836103cb565b6001600160a01b038316610363575f61038b60805190565b90505f61039760025490565b9050818111156103c45760405163279e7e1560e21b815260048101829052602481018390526044016100ca565b5050505050565b6001600160a01b0383166103f5578060025f8282546103ea9190610738565b909155506104659050565b6001600160a01b0383165f90815260208190526040902054818110156104475760405163391434e360e21b81526001600160a01b038516600482015260248101829052604481018390526064016100ca565b6001600160a01b0384165f9081526020819052604090209082900390555b6001600160a01b0382166104815760028054829003905561049f565b6001600160a01b0382165f9081526020819052604090208054820190555b816001600160a01b0316836001600160a01b03167fddf252ad1be2c89b69c2b068fc378daa952ba7f163c4a11628f55a4df523b3ef836040516104e491815260200190565b60405180910390a3505050565b80516001600160a01b0381168114610507575f5ffd5b919050565b5f5f5f5f5f5f5f5f610100898b031215610524575f5ffd5b61052d896104f1565b975061053b60208a016104f1565b965061054960408a016104f1565b955061055760608a016104f1565b945061056560808a016104f1565b935061057360a08a016104f1565b925061058160c08a016104f1565b915061058f60e08a016104f1565b90509295985092959890939650565b634e487b7160e01b5f52604160045260245ffd5b600181811c908216806105c657607f821691505b6020821081036105e457634e487b7160e01b5f52602260045260245ffd5b50919050565b601f82111561036357805f5260205f20601f840160051c8101602085101561060f5750805b601f840160051c820191505b818110156103c4575f815560010161061b565b81516001600160401b038111156106475761064761059e565b61065b8161065584546105b2565b846105ea565b6020601f82116001811461068d575f83156106765750848201515b5f19600385901b1c1916600184901b1784556103c4565b5f84815260208120601f198516915b828110156106bc578785015182556020948501946001909201910161069c565b50848210156106d957868401515f19600387901b60f8161c191681555b50505050600190811b01905550565b634e487b7160e01b5f52601160045260245ffd5b8082028115828204841417610713576107136106e8565b92915050565b5f8261073357634e487b7160e01b5f52601260045260245ffd5b500490565b80820180821115610713576107136106e8565b60805160a05160c051610a0461078a5f395f8181610260015261063201525f818161028701526105c201525f818161019a01526106ec0152610a045ff3fe608060405234801561000f575f5ffd5b50600436106100e5575f3560e01c80635cce86cd11610088578063a9059cbb11610063578063a9059cbb14610210578063dd62ed3e14610223578063df7787a41461025b578063f3b2db3f14610282575f5ffd5b80635cce86cd146101be57806370a08231146101e057806395d89b4114610208575f5ffd5b806323b872dd116100c357806323b872dd1461013c5780632836be241461014f578063313ce56714610189578063355274ea14610198575f5ffd5b806306fdde03146100e9578063095ea7b31461010757806318160ddd1461012a575b5f5ffd5b6100f16102a9565b6040516100fe9190610864565b60405180910390f35b61011a6101153660046108b4565b610339565b60405190151581526020016100fe565b6002545b6040519081526020016100fe565b61011a61014a3660046108dc565b610352565b61018761015d366004610916565b6001600160a01b03919091165f908152600560205260409020805460ff1916911515919091179055565b005b604051601281526020016100fe565b7f000000000000000000000000000000000000000000000000000000000000000061012e565b61011a6101cc36600461094f565b60056020525f908152604090205460ff1681565b61012e6101ee36600461094f565b6001600160a01b03165f9081526020819052604090205490565b6100f1610375565b61011a61021e3660046108b4565b610384565b61012e61023136600461096f565b6001600160a01b039182165f90815260016020908152604080832093909416825291909152205490565b61012e7f000000000000000000000000000000000000000000000000000000000000000081565b61012e7f000000000000000000000000000000000000000000000000000000000000000081565b6060600380546102b8906109a0565b80601f01602080910402602001604051908101604052809291908181526020018280546102e4906109a0565b801561032f5780601f106103065761010080835404028352916020019161032f565b820191905f5260205f20905b81548152906001019060200180831161031257829003601f168201915b5050505050905090565b5f33610346818585610391565b60019150505b92915050565b5f3361035f8582856103a3565b61036a858585610424565b506001949350505050565b6060600480546102b8906109a0565b5f33610346818585610424565b61039e8383836001610481565b505050565b6001600160a01b038381165f908152600160209081526040808320938616835292905220545f1981101561041e578181101561041057604051637dc7a0d960e11b81526001600160a01b038416600482015260248101829052604481018390526064015b60405180910390fd5b61041e84848484035f610481565b50505050565b6001600160a01b03831661044d57604051634b637e8f60e11b81525f6004820152602401610407565b6001600160a01b0382166104765760405163ec442f0560e01b81525f6004820152602401610407565b61039e838383610553565b6001600160a01b0384166104aa5760405163e602df0560e01b81525f6004820152602401610407565b6001600160a01b0383166104d357604051634a1406b160e11b81525f6004820152602401610407565b6001600160a01b038085165f908152600160209081526040808320938716835292905220829055801561041e57826001600160a01b0316846001600160a01b03167f8c5be1e5ebec7d5bd14f71427d1e84f3dd0314c0f7b2291e5b200ac8c7c3b9258460405161054591815260200190565b60405180910390a350505050565b6001600160a01b0383161580159061057357506001600160a01b03821615155b801561059757506001600160a01b0383165f9081526005602052604090205460ff16155b80156105bb57506001600160a01b0382165f9081526005602052604090205460ff16155b156106c8577f00000000000000000000000000000000000000000000000000000000000000008111156106305760405162461bcd60e51b815260206004820152601860248201527f54585f4c494d49543a2065786365656473206d617820747800000000000000006044820152606401610407565b7f000000000000000000000000000000000000000000000000000000000000000081610670846001600160a01b03165f9081526020819052604090205490565b61067a91906109d8565b11156106c85760405162461bcd60e51b815260206004820181905260248201527f57414c4c45545f4c494d49543a2065786365656473206d61782077616c6c65746044820152606401610407565b61039e8383836106d983838361073e565b6001600160a01b03831661039e576002547f000000000000000000000000000000000000000000000000000000000000000090818111156107375760405163279e7e1560e21b81526004810182905260248101839052604401610407565b5050505050565b6001600160a01b038316610768578060025f82825461075d91906109d8565b909155506107d89050565b6001600160a01b0383165f90815260208190526040902054818110156107ba5760405163391434e360e21b81526001600160a01b03851660048201526024810182905260448101839052606401610407565b6001600160a01b0384165f9081526020819052604090209082900390555b6001600160a01b0382166107f457600280548290039055610812565b6001600160a01b0382165f9081526020819052604090208054820190555b816001600160a01b0316836001600160a01b03167fddf252ad1be2c89b69c2b068fc378daa952ba7f163c4a11628f55a4df523b3ef8360405161085791815260200190565b60405180910390a3505050565b602081525f82518060208401528060208501604085015e5f604082850101526040601f19601f83011684010191505092915050565b80356001600160a01b03811681146108af575f5ffd5b919050565b5f5f604083850312156108c5575f5ffd5b6108ce83610899565b946020939093013593505050565b5f5f5f606084860312156108ee575f5ffd5b6108f784610899565b925061090560208501610899565b929592945050506040919091013590565b5f5f60408385031215610927575f5ffd5b61093083610899565b915060208301358015158114610944575f5ffd5b809150509250929050565b5f6020828403121561095f575f5ffd5b61096882610899565b9392505050565b5f5f60408385031215610980575f5ffd5b61098983610899565b915061099760208401610899565b90509250929050565b600181811c908216806109b457607f821691505b6020821081036109d257634e487b7160e01b5f52602260045260245ffd5b50919050565b8082018082111561034c57634e487b7160e01b5f52601160045260245ffdfea164736f6c634300081d000a","linkReferences":{}},"methodIdentifiers":{"MAX_TX()":"f3b2db3f","MAX_WALLET()":"df7787a4","allowance(address,address)":"dd62ed3e","approve(address,uint256)":"095ea7b3","balanceOf(address)":"70a08231","cap()":"355274ea","decimals()":"313ce567","isExcludedFromLimits(address)":"5cce86cd","name()":"06fdde03","setExcluded(address,bool)":"2836be24","symbol()":"95d89b41","totalSupply()":"18160ddd","transfer(address,uint256)":"a9059cbb","transferFrom(address,address,uint256)":"23b872dd"},"id":0}