{"abi":[{"type":"constructor","inputs":[{"name":"publicSale_","type":"address","internalType":"address"},{"name":"operations_","type":"address","internalType":"address"},{"name":"presale_","type":"address","internalType":"address"},{"name":"foundersAndTeam_","type":"address","internalType":"address"},{"name":"marketing_","type":"address","internalType":"address"},{"name":"advisors_","type":"address","internalType":"address"},{"name":"treasury_","type":"address","internalType":"address"},{"name":"liquidity_","type":"address","internalType":"address"}],"stateMutability":"nonpayable"},{"type":"function","name":"MAX_TX","inputs":[],"outputs":[{"name":"","type":"uint256","internalType":"uint256"}],"stateMutability":"view"},{"type":"function","name":"MAX_WALLET","inputs":[],"outputs":[{"name":"","type":"uint256","internalType":"uint256"}],"stateMutability":"view"},{"type":"function","name":"allowance","inputs":[{"name":"owner","type":"address","internalType":"address"},{"name":"spender","type":"address","internalType":"address"}],"outputs":[{"name":"","type":"uint256","internalType":"uint256"}],"stateMutability":"view"},{"type":"function","name":"approve","inputs":[{"name":"spender","type":"address","internalType":"address"},{"name":"value","type":"uint256","internalType":"uint256"}],"outputs":[{"name":"","type":"bool","internalType":"bool"}],"stateMutability":"nonpayable"},{"type":"function","name":"balanceOf","inputs":[{"name":"account","type":"address","internalType":"address"}],"outputs":[{"name":"","type":"uint256","internalType":"uint256"}],"stateMutability":"view"},{"type":"function","name":"cap","inputs":[],"outputs":[{"name":"","type":"uint256","internalType":"uint256"}],"stateMutability":"view"},{"type":"function","name":"decimals","inputs":[],"outputs":[{"name":"","type":"uint8","internalType":"uint8"}],"stateMutability":"view"},{"type":"function","name":"isExcludedFromLimits","inputs":[{"name":"","type":"address","internalType":"address"}],"outputs":[{"name":"","type":"bool","internalType":"bool"}],"stateMutability":"view"},{"type":"function","name":"name","inputs":[],"outputs":[{"name":"","type":"string","internalType":"string"}],"stateMutability":"view"},{"type":"function","name":"setExcluded","inputs":[{"name":"account","type":"address","internalType":"address"},{"name":"excluded","type":"bool","internalType":"bool"}],"outputs":[],"stateMutability":"nonpayable"},{"type":"function","name":"symbol","inputs":[],"outputs":[{"name":"","type":"string","internalType":"string"}],"stateMutability":"view"},{"type":"function","name":"totalSupply","inputs":[],"outputs":[{"name":"","type":"uint256","internalType":"uint256"}],"stateMutability":"view"},{"type":"function","name":"transfer","inputs":[{"name":"to","type":"address","internalType":"address"},{"name":"value","type":"uint256","internalType":"uint256"}],"outputs":[{"name":"","type":"bool","internalType":"bool"}],"stateMutability":"nonpayable"},{"type":"function","name":"transferFrom","inputs":[{"name":"from","type":"address","internalType":"address"},{"name":"to","type":"address","internalType":"address"},{"name":"value","type":"uint256","internalType":"uint256"}],"outputs":[{"name":"","type":"bool","internalType":"bool"}],"stateMutability":"nonpayable"},{"type":"event","name":"Approval","inputs":[{"name":"owner","type":"address","indexed":true,"internalType":"address"},{"name":"spender","type":"address","indexed":true,"internalType":"address"},{"name":"value","type":"uint256","indexed":false,"internalType":"uint256"}],"anonymous":false},{"type":"event","name":"Transfer","inputs":[{"name":"from","type":"address","indexed":true,"internalType":"address"},{"name":"to","type":"address","indexed":true,"internalType":"address"},{"name":"value","type":"uint256","indexed":false,"internalType":"uint256"}],"anonymous":false},{"type":"error","name":"ERC20ExceededCap","inputs":[{"name":"increasedSupply","type":"uint256","internalType":"uint256"},{"name":"cap","type":"uint256","internalType":"uint256"}]},{"type":"error","name":"ERC20InsufficientAllowance","inputs":[{"name":"spender","type":"address","internalType":"address"},{"name":"allowance","type":"uint256","internalType":"uint256"},{"name":"needed","type":"uint256","internalType":"uint256"}]},{"type":"error","name":"ERC20InsufficientBalance","inputs":[{"name":"sender","type":"address","internalType":"address"},{"name":"balance","type":"uint256","internalType":"uint256"},{"name":"needed","type":"uint256","internalType":"uint256"}]},{"type":"error","name":"ERC20InvalidApprover","inputs":[{"name":"approver","type":"address","internalType":"address"}]},{"type":"error","name":"ERC20InvalidCap","inputs":[{"name":"cap","type":"uint256","internalType":"uint256"}]},{"type":"error","name":"ERC20InvalidReceiver","inputs":[{"name":"receiver","type":"address","internalType":"address"}]},{"type":"error","name":"ERC20InvalidSender","inputs":[{"name":"sender","type":"address","internalType":"address"}]},{"type":"error","name":"ERC20InvalidSpender","inputs":[{"name":"spender","type":"address","internalType":"address"}]}],"bytecode":{"object":"0x610100604052348015610010575f5ffd5b5060405161123538038061123583398101604081905261002f91610541565b6b033b2e3c9fd0803ce80000006040518060400160405280601981526020017f42696720566973696f6e20506963747572657320546f6b656e000000000000008152506040518060400160405280600381526020016204256560ec1b815250816003908161009d9190610663565b5060046100aa8282610663565b505050805f036100d45760405163392e1e2760e01b81525f60048201526024015b60405180910390fd5b6080523360e0526a084595161401484a00000060a0526a108b2a2c2802909400000060c05261012288606461010860805190565b61011390601e610731565b61011d919061074e565b61021c565b61013c87606461013160805190565b610113906014610731565b61015686606461014b60805190565b61011390600a610731565b61016585606461014b60805190565b61017f84606461017460805190565b61011390600f610731565b61019983606461018e60805190565b610113906005610731565b6101a882606461018e60805190565b6101b781606461018e60805190565b6001600160a01b039788165f908152600560205260408082208054600160ff199182168117909255998b16835281832080548b1682179055928a16825280822080548a1684179055929098168852962080549095169095179093555061078092505050565b6001600160a01b0382166102455760405163ec442f0560e01b81525f60048201526024016100cb565b6102505f8383610254565b5050565b6001600160a01b0383161580159061027457506001600160a01b03821615155b801561029857506001600160a01b0383165f9081526005602052604090205460ff16155b80156102bc57506001600160a01b0382165f9081526005602052604090205460ff16155b1561038d5760a0518111156103135760405162461bcd60e51b815260206004820152601860248201527f54585f4c494d49543a2065786365656473206d6178207478000000000000000060448201526064016100cb565b60c05181610335846001600160a01b03165f9081526020819052604090205490565b61033f919061076d565b111561038d5760405162461bcd60e51b815260206004820181905260248201527f57414c4c45545f4c494d49543a2065786365656473206d61782077616c6c657460448201526064016100cb565b61039883838361039d565b505050565b6103a8838383610400565b6001600160a01b038316610398575f6103c060805190565b90505f6103cc60025490565b9050818111156103f95760405163279e7e1560e21b815260048101829052602481018390526044016100cb565b5050505050565b6001600160a01b03831661042a578060025f82825461041f919061076d565b9091555061049a9050565b6001600160a01b0383165f908152602081905260409020548181101561047c5760405163391434e360e21b81526001600160a01b038516600482015260248101829052604481018390526064016100cb565b6001600160a01b0384165f9081526020819052604090209082900390555b6001600160a01b0382166104b6576002805482900390556104d4565b6001600160a01b0382165f9081526020819052604090208054820190555b816001600160a01b0316836001600160a01b03167fddf252ad1be2c89b69c2b068fc378daa952ba7f163c4a11628f55a4df523b3ef8360405161051991815260200190565b60405180910390a3505050565b80516001600160a01b038116811461053c575f5ffd5b919050565b5f5f5f5f5f5f5f5f610100898b031215610559575f5ffd5b61056289610526565b975061057060208a01610526565b965061057e60408a01610526565b955061058c60608a01610526565b945061059a60808a01610526565b93506105a860a08a01610526565b92506105b660c08a01610526565b91506105c460e08a01610526565b90509295985092959890939650565b634e487b7160e01b5f52604160045260245ffd5b600181811c908216806105fb57607f821691505b60208210810361061957634e487b7160e01b5f52602260045260245ffd5b50919050565b601f82111561039857805f5260205f20601f840160051c810160208510156106445750805b601f840160051c820191505b818110156103f9575f8155600101610650565b81516001600160401b0381111561067c5761067c6105d3565b6106908161068a84546105e7565b8461061f565b6020601f8211600181146106c2575f83156106ab5750848201515b5f19600385901b1c1916600184901b1784556103f9565b5f84815260208120601f198516915b828110156106f157878501518255602094850194600190920191016106d1565b508482101561070e57868401515f19600387901b60f8161c191681555b50505050600190811b01905550565b634e487b7160e01b5f52601160045260245ffd5b80820281158282048414176107485761074861071d565b92915050565b5f8261076857634e487b7160e01b5f52601260045260245ffd5b500490565b808201808211156107485761074861071d565b60805160a05160c05160e051610a6d6107c85f395f61035b01525f818161023b015261069b01525f8181610262015261062b01525f818161017501526107550152610a6d5ff3fe608060405234801561000f575f5ffd5b50600436106100e5575f3560e01c80635cce86cd11610088578063a9059cbb11610063578063a9059cbb146101eb578063dd62ed3e146101fe578063df7787a414610236578063f3b2db3f1461025d575f5ffd5b80635cce86cd1461019957806370a08231146101bb57806395d89b41146101e3575f5ffd5b806323b872dd116100c357806323b872dd1461013c5780632836be241461014f578063313ce56714610164578063355274ea14610173575f5ffd5b806306fdde03146100e9578063095ea7b31461010757806318160ddd1461012a575b5f5ffd5b6100f1610284565b6040516100fe91906108cd565b60405180910390f35b61011a61011536600461091d565b610314565b60405190151581526020016100fe565b6002545b6040519081526020016100fe565b61011a61014a366004610945565b61032d565b61016261015d36600461097f565b610350565b005b604051601281526020016100fe565b7f000000000000000000000000000000000000000000000000000000000000000061012e565b61011a6101a73660046109b8565b60056020525f908152604090205460ff1681565b61012e6101c93660046109b8565b6001600160a01b03165f9081526020819052604090205490565b6100f16103e3565b61011a6101f936600461091d565b6103f2565b61012e61020c3660046109d8565b6001600160a01b039182165f90815260016020908152604080832093909416825291909152205490565b61012e7f000000000000000000000000000000000000000000000000000000000000000081565b61012e7f000000000000000000000000000000000000000000000000000000000000000081565b60606003805461029390610a09565b80601f01602080910402602001604051908101604052809291908181526020018280546102bf90610a09565b801561030a5780601f106102e15761010080835404028352916020019161030a565b820191905f5260205f20905b8154815290600101906020018083116102ed57829003601f168201915b5050505050905090565b5f336103218185856103ff565b60019150505b92915050565b5f3361033a858285610411565b61034585858561048d565b506001949350505050565b336001600160a01b037f000000000000000000000000000000000000000000000000000000000000000016146103b95760405162461bcd60e51b81526020600482015260096024820152682737ba1037bbb732b960b91b60448201526064015b60405180910390fd5b6001600160a01b03919091165f908152600560205260409020805460ff1916911515919091179055565b60606004805461029390610a09565b5f3361032181858561048d565b61040c83838360016104ea565b505050565b6001600160a01b038381165f908152600160209081526040808320938616835292905220545f19811015610487578181101561047957604051637dc7a0d960e11b81526001600160a01b038416600482015260248101829052604481018390526064016103b0565b61048784848484035f6104ea565b50505050565b6001600160a01b0383166104b657604051634b637e8f60e11b81525f60048201526024016103b0565b6001600160a01b0382166104df5760405163ec442f0560e01b81525f60048201526024016103b0565b61040c8383836105bc565b6001600160a01b0384166105135760405163e602df0560e01b81525f60048201526024016103b0565b6001600160a01b03831661053c57604051634a1406b160e11b81525f60048201526024016103b0565b6001600160a01b038085165f908152600160209081526040808320938716835292905220829055801561048757826001600160a01b0316846001600160a01b03167f8c5be1e5ebec7d5bd14f71427d1e84f3dd0314c0f7b2291e5b200ac8c7c3b925846040516105ae91815260200190565b60405180910390a350505050565b6001600160a01b038316158015906105dc57506001600160a01b03821615155b801561060057506001600160a01b0383165f9081526005602052604090205460ff16155b801561062457506001600160a01b0382165f9081526005602052604090205460ff16155b15610731577f00000000000000000000000000000000000000000000000000000000000000008111156106995760405162461bcd60e51b815260206004820152601860248201527f54585f4c494d49543a2065786365656473206d6178207478000000000000000060448201526064016103b0565b7f0000000000000000000000000000000000000000000000000000000000000000816106d9846001600160a01b03165f9081526020819052604090205490565b6106e39190610a41565b11156107315760405162461bcd60e51b815260206004820181905260248201527f57414c4c45545f4c494d49543a2065786365656473206d61782077616c6c657460448201526064016103b0565b61040c8383836107428383836107a7565b6001600160a01b03831661040c576002547f000000000000000000000000000000000000000000000000000000000000000090818111156107a05760405163279e7e1560e21b815260048101829052602481018390526044016103b0565b5050505050565b6001600160a01b0383166107d1578060025f8282546107c69190610a41565b909155506108419050565b6001600160a01b0383165f90815260208190526040902054818110156108235760405163391434e360e21b81526001600160a01b038516600482015260248101829052604481018390526064016103b0565b6001600160a01b0384165f9081526020819052604090209082900390555b6001600160a01b03821661085d5760028054829003905561087b565b6001600160a01b0382165f9081526020819052604090208054820190555b816001600160a01b0316836001600160a01b03167fddf252ad1be2c89b69c2b068fc378daa952ba7f163c4a11628f55a4df523b3ef836040516108c091815260200190565b60405180910390a3505050565b602081525f82518060208401528060208501604085015e5f604082850101526040601f19601f83011684010191505092915050565b80356001600160a01b0381168114610918575f5ffd5b919050565b5f5f6040838503121561092e575f5ffd5b61093783610902565b946020939093013593505050565b5f5f5f60608486031215610957575f5ffd5b61096084610902565b925061096e60208501610902565b929592945050506040919091013590565b5f5f60408385031215610990575f5ffd5b61099983610902565b9150602083013580151581146109ad575f5ffd5b809150509250929050565b5f602082840312156109c8575f5ffd5b6109d182610902565b9392505050565b5f5f604083850312156109e9575f5ffd5b6109f283610902565b9150610a0060208401610902565b90509250929050565b600181811c90821680610a1d57607f821691505b602082108103610a3b57634e487b7160e01b5f52602260045260245ffd5b50919050565b8082018082111561032757634e487b7160e01b5f52601160045260245ffdfea164736f6c634300081d000a","linkReferences":{}},"methodIdentifiers":{"MAX_TX()":"f3b2db3f","MAX_WALLET()":"df7787a4","allowance(address,address)":"dd62ed3e","approve(address,uint256)":"095ea7b3","balanceOf(address)":"70a08231","cap()":"355274ea","decimals()":"313ce567","isExcludedFromLimits(address)":"5cce86cd","name()":"06fdde03","setExcluded(address,bool)":"2836be24","symbol()":"95d89b41","totalSupply()":"18160ddd","transfer(address,uint256)":"a9059cbb","transferFrom(address,address,uint256)":"23b872dd"},"id":0}