{"abi":[{"type":"constructor","inputs":[{"name":"_bvpToken","type":"address","internalType":"address"},{"name":"_l1Gateway","type":"address","internalType":"address"}],"stateMutability":"nonpayable"},{"type":"function","name":"bvpToken","inputs":[],"outputs":[{"name":"","type":"address","internalType":"contract IERC20Mintable"}],"stateMutability":"view"},{"type":"function","name":"inboundTransfer","inputs":[{"name":"","type":"address","internalType":"address"},{"name":"to","type":"address","internalType":"address"},{"name":"amount","type":"uint256","internalType":"uint256"},{"name":"","type":"bytes","internalType":"bytes"}],"outputs":[{"name":"","type":"bytes","internalType":"bytes"}],"stateMutability":"payable"},{"type":"function","name":"l1Gateway","inputs":[],"outputs":[{"name":"","type":"address","internalType":"address"}],"stateMutability":"view"},{"type":"function","name":"outboundTransfer","inputs":[{"name":"token","type":"address","internalType":"address"},{"name":"to","type":"address","internalType":"address"},{"name":"amount","type":"uint256","internalType":"uint256"},{"name":"data","type":"bytes","internalType":"bytes"}],"outputs":[{"name":"","type":"bytes","internalType":"bytes"}],"stateMutability":"payable"}],"bytecode":{"object":"0x60c060405234801561000f575f5ffd5b50604051610c4b380380610c4b833981810160405281019061003191906101a5565b5f73ffffffffffffffffffffffffffffffffffffffff168273ffffffffffffffffffffffffffffffffffffffff161415801561009957505f73ffffffffffffffffffffffffffffffffffffffff168173ffffffffffffffffffffffffffffffffffffffff1614155b6100d8576040517f08c379a00000000000000000000000000000000000000000000000000000000081526004016100cf9061023d565b60405180910390fd5b8173ffffffffffffffffffffffffffffffffffffffff1660808173ffffffffffffffffffffffffffffffffffffffff16815250508073ffffffffffffffffffffffffffffffffffffffff1660a08173ffffffffffffffffffffffffffffffffffffffff1681525050505061025b565b5f5ffd5b5f73ffffffffffffffffffffffffffffffffffffffff82169050919050565b5f6101748261014b565b9050919050565b6101848161016a565b811461018e575f5ffd5b50565b5f8151905061019f8161017b565b92915050565b5f5f604083850312156101bb576101ba610147565b5b5f6101c885828601610191565b92505060206101d985828601610191565b9150509250929050565b5f82825260208201905092915050565b7f496e76616c6964206164647200000000000000000000000000000000000000005f82015250565b5f610227600c836101e3565b9150610232826101f3565b602082019050919050565b5f6020820190508181035f8301526102548161021b565b9050919050565b60805160a0516109ad61029e5f395f818160fa0152818161023d015261041801525f818161018801528181610263015281816102f101526104a601526109ad5ff3fe60806040526004361061003e575f3560e01c8063164528f51461004257806327ead6f6146100725780637b3a3c8b1461009c578063fd2ef43b146100cc575b5f5ffd5b61005c600480360381019061005791906105be565b6100f6565b60405161006991906106b2565b60405180910390f35b34801561007d575f5ffd5b5061008661023b565b60405161009391906106e1565b60405180910390f35b6100b660048036038101906100b191906105be565b61025f565b6040516100c391906106b2565b60405180910390f35b3480156100d7575f5ffd5b506100e06104a4565b6040516100ed9190610755565b60405180910390f35b60607f000000000000000000000000000000000000000000000000000000000000000073ffffffffffffffffffffffffffffffffffffffff163373ffffffffffffffffffffffffffffffffffffffff1614610186576040517f08c379a000000000000000000000000000000000000000000000000000000000815260040161017d906107c8565b60405180910390fd5b7f000000000000000000000000000000000000000000000000000000000000000073ffffffffffffffffffffffffffffffffffffffff166340c10f1986866040518363ffffffff1660e01b81526004016101e19291906107f5565b5f604051808303815f87803b1580156101f8575f5ffd5b505af115801561020a573d5f5f3e3d5ffd5b5050505084846040516020016102219291906107f5565b604051602081830303815290604052905095945050505050565b7f000000000000000000000000000000000000000000000000000000000000000081565b60607f000000000000000000000000000000000000000000000000000000000000000073ffffffffffffffffffffffffffffffffffffffff168673ffffffffffffffffffffffffffffffffffffffff16146102ef576040517f08c379a00000000000000000000000000000000000000000000000000000000081526004016102e690610866565b60405180910390fd5b7f000000000000000000000000000000000000000000000000000000000000000073ffffffffffffffffffffffffffffffffffffffff16639dc29fac33866040518363ffffffff1660e01b815260040161034a9291906107f5565b5f604051808303815f87803b158015610361575f5ffd5b505af1158015610373573d5f5f3e3d5ffd5b505050505f637b3a3c8b60e01b87878787876040516024016103999594939291906108be565b604051602081830303815290604052907bffffffffffffffffffffffffffffffffffffffffffffffffffffffff19166020820180517bffffffffffffffffffffffffffffffffffffffffffffffffffffffff83818316178352505050509050606473ffffffffffffffffffffffffffffffffffffffff1663928c169a347f0000000000000000000000000000000000000000000000000000000000000000846040518463ffffffff1660e01b815260040161045592919061090a565b60206040518083038185885af1158015610471573d5f5f3e3d5ffd5b50505050506040513d601f19601f82011682018060405250810190610496919061094c565b508091505095945050505050565b7f000000000000000000000000000000000000000000000000000000000000000081565b5f5ffd5b5f5ffd5b5f73ffffffffffffffffffffffffffffffffffffffff82169050919050565b5f6104f9826104d0565b9050919050565b610509816104ef565b8114610513575f5ffd5b50565b5f8135905061052481610500565b92915050565b5f819050919050565b61053c8161052a565b8114610546575f5ffd5b50565b5f8135905061055781610533565b92915050565b5f5ffd5b5f5ffd5b5f5ffd5b5f5f83601f84011261057e5761057d61055d565b5b8235905067ffffffffffffffff81111561059b5761059a610561565b5b6020830191508360018202830111156105b7576105b6610565565b5b9250929050565b5f5f5f5f5f608086880312156105d7576105d66104c8565b5b5f6105e488828901610516565b95505060206105f588828901610516565b945050604061060688828901610549565b935050606086013567ffffffffffffffff811115610627576106266104cc565b5b61063388828901610569565b92509250509295509295909350565b5f81519050919050565b5f82825260208201905092915050565b8281835e5f83830152505050565b5f601f19601f8301169050919050565b5f61068482610642565b61068e818561064c565b935061069e81856020860161065c565b6106a78161066a565b840191505092915050565b5f6020820190508181035f8301526106ca818461067a565b905092915050565b6106db816104ef565b82525050565b5f6020820190506106f45f8301846106d2565b92915050565b5f819050919050565b5f61071d610718610713846104d0565b6106fa565b6104d0565b9050919050565b5f61072e82610703565b9050919050565b5f61073f82610724565b9050919050565b61074f81610735565b82525050565b5f6020820190506107685f830184610746565b92915050565b5f82825260208201905092915050565b7f4c323a206f6e6c79204c312067617465776179000000000000000000000000005f82015250565b5f6107b260138361076e565b91506107bd8261077e565b602082019050919050565b5f6020820190508181035f8301526107df816107a6565b9050919050565b6107ef8161052a565b82525050565b5f6040820190506108085f8301856106d2565b61081560208301846107e6565b9392505050565b7f4c323a20746f6b656e206e6f7420737570706f727465640000000000000000005f82015250565b5f61085060178361076e565b915061085b8261081c565b602082019050919050565b5f6020820190508181035f83015261087d81610844565b9050919050565b828183375f83830152505050565b5f61089d838561064c565b93506108aa838584610884565b6108b38361066a565b840190509392505050565b5f6080820190506108d15f8301886106d2565b6108de60208301876106d2565b6108eb60408301866107e6565b81810360608301526108fe818486610892565b90509695505050505050565b5f60408201905061091d5f8301856106d2565b818103602083015261092f818461067a565b90509392505050565b5f8151905061094681610533565b92915050565b5f60208284031215610961576109606104c8565b5b5f61096e84828501610938565b9150509291505056fea264697066735822122024ac6e7c9404d54acd9eae7478432a42baed3c57bbd994951a9f422ab1a4294f64736f6c634300081d0033","linkReferences":{}},"methodIdentifiers":{"bvpToken()":"fd2ef43b","inboundTransfer(address,address,uint256,bytes)":"164528f5","l1Gateway()":"27ead6f6","outboundTransfer(address,address,uint256,bytes)":"7b3a3c8b"},"id":7}