{
  "_format": "hh-sol-artifact-1",
  "contractName": "ConstantFeeTokenPricer",
  "sourceName": "contracts/ConstantFeeTokenPricer.sol",
  "abi": [
    {
      "inputs": [
        {
          "internalType": "address",
          "name": "_feeToken",
          "type": "address"
        },
        {
          "internalType": "uint256",
          "name": "_feeAmount",
          "type": "uint256"
        }
      ],
      "stateMutability": "nonpayable",
      "type": "constructor"
    },
    {
      "inputs": [],
      "name": "feeAmount",
      "outputs": [
        {
          "internalType": "uint256",
          "name": "",
          "type": "uint256"
        }
      ],
      "stateMutability": "view",
      "type": "function"
    },
    {
      "inputs": [],
      "name": "feeToken",
      "outputs": [
        {
          "internalType": "address",
          "name": "",
          "type": "address"
        }
      ],
      "stateMutability": "view",
      "type": "function"
    },
    {
      "inputs": [
        {
          "internalType": "uint256",
          "name": "gasUsed",
          "type": "uint256"
        },
        {
          "internalType": "address",
          "name": "refundRecipient",
          "type": "address"
        }
      ],
      "name": "tokenGasPrice",
      "outputs": [
        {
          "internalType": "uint256",
          "name": "",
          "type": "uint256"
        }
      ],
      "stateMutability": "view",
      "type": "function"
    }
  ],
  "bytecode": "0x60c060405234801561001057600080fd5b506040516103ff3803806103ff8339818101604052810190610032919061010e565b8173ffffffffffffffffffffffffffffffffffffffff1660808173ffffffffffffffffffffffffffffffffffffffff16815250508060a08181525050505061014e565b600080fd5b600073ffffffffffffffffffffffffffffffffffffffff82169050919050565b60006100a58261007a565b9050919050565b6100b58161009a565b81146100c057600080fd5b50565b6000815190506100d2816100ac565b92915050565b6000819050919050565b6100eb816100d8565b81146100f657600080fd5b50565b600081519050610108816100e2565b92915050565b6000806040838503121561012557610124610075565b5b6000610133858286016100c3565b9250506020610144858286016100f9565b9150509250929050565b60805160a0516102886101776000396000818160d8015260fe0152600060b401526102886000f3fe608060405234801561001057600080fd5b50600436106100415760003560e01c8063647846a51461004657806369e1540414610064578063c46b0d5214610082575b600080fd5b61004e6100b2565b60405161005b9190610166565b60405180910390f35b61006c6100d6565b604051610079919061019a565b60405180910390f35b61009c60048036038101906100979190610212565b6100fa565b6040516100a9919061019a565b60405180910390f35b7f000000000000000000000000000000000000000000000000000000000000000081565b7f000000000000000000000000000000000000000000000000000000000000000081565b60007f0000000000000000000000000000000000000000000000000000000000000000905092915050565b600073ffffffffffffffffffffffffffffffffffffffff82169050919050565b600061015082610125565b9050919050565b61016081610145565b82525050565b600060208201905061017b6000830184610157565b92915050565b6000819050919050565b61019481610181565b82525050565b60006020820190506101af600083018461018b565b92915050565b600080fd5b6101c381610181565b81146101ce57600080fd5b50565b6000813590506101e0816101ba565b92915050565b6101ef81610145565b81146101fa57600080fd5b50565b60008135905061020c816101e6565b92915050565b60008060408385031215610229576102286101b5565b5b6000610237858286016101d1565b9250506020610248858286016101fd565b915050925092905056fea26469706673582212203fcf3d805165d9d1edeee3e1c2b7b81f75bf53b316445925d19dedda1ca5a44564736f6c634300081d0033",
  "linkReferences": {},
  "deployedLinkReferences": {}
}