{"contracts/BVPToken.sol":{"BVPToken":{"abi":[{"type":"constructor","inputs":[{"name":"publicSale_","type":"address","internalType":"address"},{"name":"operations_","type":"address","internalType":"address"},{"name":"presale_","type":"address","internalType":"address"},{"name":"foundersAndTeam_","type":"address","internalType":"address"},{"name":"marketing_","type":"address","internalType":"address"},{"name":"advisors_","type":"address","internalType":"address"},{"name":"treasury_","type":"address","internalType":"address"},{"name":"liquidity_","type":"address","internalType":"address"}],"stateMutability":"nonpayable"},{"type":"function","name":"allowance","inputs":[{"name":"owner","type":"address","internalType":"address"},{"name":"spender","type":"address","internalType":"address"}],"outputs":[{"name":"","type":"uint256","internalType":"uint256"}],"stateMutability":"view"},{"type":"function","name":"approve","inputs":[{"name":"spender","type":"address","internalType":"address"},{"name":"amount","type":"uint256","internalType":"uint256"}],"outputs":[{"name":"","type":"bool","internalType":"bool"}],"stateMutability":"nonpayable"},{"type":"function","name":"balanceOf","inputs":[{"name":"account","type":"address","internalType":"address"}],"outputs":[{"name":"","type":"uint256","internalType":"uint256"}],"stateMutability":"view"},{"type":"function","name":"cap","inputs":[],"outputs":[{"name":"","type":"uint256","internalType":"uint256"}],"stateMutability":"view"},{"type":"function","name":"decimals","inputs":[],"outputs":[{"name":"","type":"uint8","internalType":"uint8"}],"stateMutability":"view"},{"type":"function","name":"decreaseAllowance","inputs":[{"name":"spender","type":"address","internalType":"address"},{"name":"subtractedValue","type":"uint256","internalType":"uint256"}],"outputs":[{"name":"","type":"bool","internalType":"bool"}],"stateMutability":"nonpayable"},{"type":"function","name":"increaseAllowance","inputs":[{"name":"spender","type":"address","internalType":"address"},{"name":"addedValue","type":"uint256","internalType":"uint256"}],"outputs":[{"name":"","type":"bool","internalType":"bool"}],"stateMutability":"nonpayable"},{"type":"function","name":"isExcludedFromLimits","inputs":[{"name":"","type":"address","internalType":"address"}],"outputs":[{"name":"","type":"bool","internalType":"bool"}],"stateMutability":"view"},{"type":"function","name":"maxTx","inputs":[],"outputs":[{"name":"","type":"uint256","internalType":"uint256"}],"stateMutability":"view"},{"type":"function","name":"maxWallet","inputs":[],"outputs":[{"name":"","type":"uint256","internalType":"uint256"}],"stateMutability":"view"},{"type":"function","name":"name","inputs":[],"outputs":[{"name":"","type":"string","internalType":"string"}],"stateMutability":"view"},{"type":"function","name":"setExcluded","inputs":[{"name":"account","type":"address","internalType":"address"},{"name":"excluded","type":"bool","internalType":"bool"}],"outputs":[],"stateMutability":"nonpayable"},{"type":"function","name":"symbol","inputs":[],"outputs":[{"name":"","type":"string","internalType":"string"}],"stateMutability":"view"},{"type":"function","name":"totalSupply","inputs":[],"outputs":[{"name":"","type":"uint256","internalType":"uint256"}],"stateMutability":"view"},{"type":"function","name":"transfer","inputs":[{"name":"to","type":"address","internalType":"address"},{"name":"amount","type":"uint256","internalType":"uint256"}],"outputs":[{"name":"","type":"bool","internalType":"bool"}],"stateMutability":"nonpayable"},{"type":"function","name":"transferFrom","inputs":[{"name":"from","type":"address","internalType":"address"},{"name":"to","type":"address","internalType":"address"},{"name":"amount","type":"uint256","internalType":"uint256"}],"outputs":[{"name":"","type":"bool","internalType":"bool"}],"stateMutability":"nonpayable"},{"type":"event","name":"Approval","inputs":[{"name":"owner","type":"address","indexed":true,"internalType":"address"},{"name":"spender","type":"address","indexed":true,"internalType":"address"},{"name":"value","type":"uint256","indexed":false,"internalType":"uint256"}],"anonymous":false},{"type":"event","name":"Transfer","inputs":[{"name":"from","type":"address","indexed":true,"internalType":"address"},{"name":"to","type":"address","indexed":true,"internalType":"address"},{"name":"value","type":"uint256","indexed":false,"internalType":"uint256"}],"anonymous":false}],"userdoc":{},"devdoc":{},"evm":{"bytecode":{"object":"6101006040523480156200001257600080fd5b506040516200137638038062001376833981016040819052620000359162000528565b6b033b2e3c9fd0803ce80000006040518060400160405280601981526020017f42696720566973696f6e20506963747572657320546f6b656e000000000000008152506040518060400160405280600381526020016204256560ec1b8152508160039081620000a5919062000674565b506004620000b4828262000674565b505050600081116200010d5760405162461bcd60e51b815260206004820152601560248201527f45524332304361707065643a206361702069732030000000000000000000000060448201526064015b60405180910390fd5b6080523360e0526a084595161401484a00000060a0526a108b2a2c2802909400000060c052620001628860646200014360805190565b6200015090601e62000756565b6200015c919062000776565b62000274565b620001808760646200017360805190565b6200015090601462000756565b6200019e8660646200019160805190565b6200015090600a62000756565b620001af8560646200019160805190565b620001cd846064620001c060805190565b6200015090600f62000756565b620001eb836064620001de60805190565b6200015090600562000756565b620001fc826064620001de60805190565b6200020d816064620001de60805190565b6001600160a01b039788166000908152600560205260408082208054600160ff199182168117909255998b16835281832080548b1682179055928a16825280822080548a16841790559290981688529620805490951690951790935550620007af92505050565b608051816200028260025490565b6200028e919062000799565b1115620002de5760405162461bcd60e51b815260206004820152601960248201527f45524332304361707065643a2063617020657863656564656400000000000000604482015260640162000104565b620002ea8282620002ee565b5050565b6001600160a01b038216620003465760405162461bcd60e51b815260206004820152601f60248201527f45524332303a206d696e7420746f20746865207a65726f206164647265737300604482015260640162000104565b6200035460008383620003bf565b806002600082825462000368919062000799565b90915550506001600160a01b038216600081815260208181526040808320805486019055518481527fddf252ad1be2c89b69c2b068fc378daa952ba7f163c4a11628f55a4df523b3ef910160405180910390a35050565b6001600160a01b03831615801590620003e057506001600160a01b03821615155b80156200040657506001600160a01b03831660009081526005602052604090205460ff16155b80156200042c57506001600160a01b03821660009081526005602052604090205460ff16155b15620005065760a051811115620004865760405162461bcd60e51b815260206004820152601860248201527f54585f4c494d49543a2065786365656473206d61782074780000000000000000604482015260640162000104565b60c05181620004aa846001600160a01b031660009081526020819052604090205490565b620004b6919062000799565b1115620005065760405162461bcd60e51b815260206004820181905260248201527f57414c4c45545f4c494d49543a2065786365656473206d61782077616c6c6574604482015260640162000104565b505050565b80516001600160a01b03811681146200052357600080fd5b919050565b600080600080600080600080610100898b0312156200054657600080fd5b62000551896200050b565b97506200056160208a016200050b565b96506200057160408a016200050b565b95506200058160608a016200050b565b94506200059160808a016200050b565b9350620005a160a08a016200050b565b9250620005b160c08a016200050b565b9150620005c160e08a016200050b565b90509295985092959890939650565b634e487b7160e01b600052604160045260246000fd5b600181811c90821680620005fb57607f821691505b6020821081036200061c57634e487b7160e01b600052602260045260246000fd5b50919050565b601f8211156200050657600081815260208120601f850160051c810160208610156200064b5750805b601f850160051c820191505b818110156200066c5782815560010162000657565b505050505050565b81516001600160401b03811115620006905762000690620005d0565b620006a881620006a18454620005e6565b8462000622565b602080601f831160018114620006e05760008415620006c75750858301515b600019600386901b1c1916600185901b1785556200066c565b600085815260208120601f198616915b828110156200071157888601518255948401946001909101908401620006f0565b5085821015620007305787850151600019600388901b60f8161c191681555b5050505050600190811b01905550565b634e487b7160e01b600052601160045260246000fd5b808202811582820484141762000770576200077062000740565b92915050565b6000826200079457634e487b7160e01b600052601260045260246000fd5b500490565b8082018082111562000770576200077062000740565b60805160a05160c05160e051610b7f620007f7600039600061037e015260008181610281015261091a01526000818161021901526108aa015260006101910152610b7f6000f3fe608060405234801561001057600080fd5b50600436106101005760003560e01c80635cce86cd11610097578063a457c2d711610066578063a457c2d714610243578063a9059cbb14610256578063dd62ed3e14610269578063f8b45b051461027c57600080fd5b80635cce86cd146101c857806370a08231146101eb5780637437681e1461021457806395d89b411461023b57600080fd5b80632836be24116100d35780632836be241461016b578063313ce56714610180578063355274ea1461018f57806339509351146101b557600080fd5b806306fdde0314610105578063095ea7b31461012357806318160ddd1461014657806323b872dd14610158575b600080fd5b61010d6102a3565b60405161011a91906109b6565b60405180910390f35b610136610131366004610a20565b610335565b604051901515815260200161011a565b6002545b60405190815260200161011a565b610136610166366004610a4a565b61034f565b61017e610179366004610a86565b610373565b005b6040516012815260200161011a565b7f000000000000000000000000000000000000000000000000000000000000000061014a565b6101366101c3366004610a20565b610407565b6101366101d6366004610ac2565b60056020526000908152604090205460ff1681565b61014a6101f9366004610ac2565b6001600160a01b031660009081526020819052604090205490565b61014a7f000000000000000000000000000000000000000000000000000000000000000081565b61010d610429565b610136610251366004610a20565b610438565b610136610264366004610a20565b6104b3565b61014a610277366004610ae4565b6104c1565b61014a7f000000000000000000000000000000000000000000000000000000000000000081565b6060600380546102b290610b17565b80601f01602080910402602001604051908101604052809291908181526020018280546102de90610b17565b801561032b5780601f106103005761010080835404028352916020019161032b565b820191906000526020600020905b81548152906001019060200180831161030e57829003601f168201915b5050505050905090565b6000336103438185856104ec565b60019150505b92915050565b60003361035d858285610610565b61036885858561068a565b506001949350505050565b336001600160a01b037f000000000000000000000000000000000000000000000000000000000000000016146103dc5760405162461bcd60e51b81526020600482015260096024820152682737ba1037bbb732b960b91b60448201526064015b60405180910390fd5b6001600160a01b03919091166000908152600560205260409020805460ff1916911515919091179055565b60003361034381858561041a83836104c1565b6104249190610b51565b6104ec565b6060600480546102b290610b17565b6000338161044682866104c1565b9050838110156104a65760405162461bcd60e51b815260206004820152602560248201527f45524332303a2064656372656173656420616c6c6f77616e63652062656c6f77604482015264207a65726f60d81b60648201526084016103d3565b61036882868684036104ec565b60003361034381858561068a565b6001600160a01b03918216600090815260016020908152604080832093909416825291909152205490565b6001600160a01b03831661054e5760405162461bcd60e51b8152602060048201526024808201527f45524332303a20617070726f76652066726f6d20746865207a65726f206164646044820152637265737360e01b60648201526084016103d3565b6001600160a01b0382166105af5760405162461bcd60e51b815260206004820152602260248201527f45524332303a20617070726f766520746f20746865207a65726f206164647265604482015261737360f01b60648201526084016103d3565b6001600160a01b0383811660008181526001602090815260408083209487168084529482529182902085905590518481527f8c5be1e5ebec7d5bd14f71427d1e84f3dd0314c0f7b2291e5b200ac8c7c3b925910160405180910390a3505050565b600061061c84846104c1565b9050600019811461068457818110156106775760405162461bcd60e51b815260206004820152601d60248201527f45524332303a20696e73756666696369656e7420616c6c6f77616e636500000060448201526064016103d3565b61068484848484036104ec565b50505050565b6001600160a01b0383166106ee5760405162461bcd60e51b815260206004820152602560248201527f45524332303a207472616e736665722066726f6d20746865207a65726f206164604482015264647265737360d81b60648201526084016103d3565b6001600160a01b0382166107505760405162461bcd60e51b815260206004820152602360248201527f45524332303a207472616e7366657220746f20746865207a65726f206164647260448201526265737360e81b60648201526084016103d3565b61075b838383610839565b6001600160a01b038316600090815260208190526040902054818110156107d35760405162461bcd60e51b815260206004820152602660248201527f45524332303a207472616e7366657220616d6f756e7420657863656564732062604482015265616c616e636560d01b60648201526084016103d3565b6001600160a01b03848116600081815260208181526040808320878703905593871680835291849020805487019055925185815290927fddf252ad1be2c89b69c2b068fc378daa952ba7f163c4a11628f55a4df523b3ef910160405180910390a3610684565b6001600160a01b0383161580159061085957506001600160a01b03821615155b801561087e57506001600160a01b03831660009081526005602052604090205460ff16155b80156108a357506001600160a01b03821660009081526005602052604090205460ff16155b156109b1577f00000000000000000000000000000000000000000000000000000000000000008111156109185760405162461bcd60e51b815260206004820152601860248201527f54585f4c494d49543a2065786365656473206d6178207478000000000000000060448201526064016103d3565b7f000000000000000000000000000000000000000000000000000000000000000081610959846001600160a01b031660009081526020819052604090205490565b6109639190610b51565b11156109b15760405162461bcd60e51b815260206004820181905260248201527f57414c4c45545f4c494d49543a2065786365656473206d61782077616c6c657460448201526064016103d3565b505050565b600060208083528351808285015260005b818110156109e3578581018301518582016040015282016109c7565b506000604082860101526040601f19601f8301168501019250505092915050565b80356001600160a01b0381168114610a1b57600080fd5b919050565b60008060408385031215610a3357600080fd5b610a3c83610a04565b946020939093013593505050565b600080600060608486031215610a5f57600080fd5b610a6884610a04565b9250610a7660208501610a04565b9150604084013590509250925092565b60008060408385031215610a9957600080fd5b610aa283610a04565b915060208301358015158114610ab757600080fd5b809150509250929050565b600060208284031215610ad457600080fd5b610add82610a04565b9392505050565b60008060408385031215610af757600080fd5b610b0083610a04565b9150610b0e60208401610a04565b90509250929050565b600181811c90821680610b2b57607f821691505b602082108103610b4b57634e487b7160e01b600052602260045260246000fd5b50919050565b8082018082111561034957634e487b7160e01b600052601160045260246000fdfea164736f6c6343000813000a","linkReferences":{}},"methodIdentifiers":{"allowance(address,address)":"dd62ed3e","approve(address,uint256)":"095ea7b3","balanceOf(address)":"70a08231","cap()":"355274ea","decimals()":"313ce567","decreaseAllowance(address,uint256)":"a457c2d7","increaseAllowance(address,uint256)":"39509351","isExcludedFromLimits(address)":"5cce86cd","maxTx()":"7437681e","maxWallet()":"f8b45b05","name()":"06fdde03","setExcluded(address,bool)":"2836be24","symbol()":"95d89b41","totalSupply()":"18160ddd","transfer(address,uint256)":"a9059cbb","transferFrom(address,address,uint256)":"23b872dd"}}}}}