{"contracts/BVPStaking.sol":{"BVPStaking":{"abi":[{"type":"constructor","inputs":[{"name":"_bvpToken","type":"address","internalType":"address"}],"stateMutability":"nonpayable"},{"type":"function","name":"LOCK_TIME_12M","inputs":[],"outputs":[{"name":"","type":"uint256","internalType":"uint256"}],"stateMutability":"view"},{"type":"function","name":"LOCK_TIME_3M","inputs":[],"outputs":[{"name":"","type":"uint256","internalType":"uint256"}],"stateMutability":"view"},{"type":"function","name":"LOCK_TIME_6M","inputs":[],"outputs":[{"name":"","type":"uint256","internalType":"uint256"}],"stateMutability":"view"},{"type":"function","name":"bvpToken","inputs":[],"outputs":[{"name":"","type":"address","internalType":"contract IERC20"}],"stateMutability":"view"},{"type":"function","name":"getStake","inputs":[{"name":"user","type":"address","internalType":"address"}],"outputs":[{"name":"amount","type":"uint256","internalType":"uint256"},{"name":"timestamp","type":"uint256","internalType":"uint256"},{"name":"lockTime","type":"uint256","internalType":"uint256"},{"name":"unlocked","type":"bool","internalType":"bool"},{"name":"unlockAt","type":"uint256","internalType":"uint256"}],"stateMutability":"view"},{"type":"function","name":"getTierCode","inputs":[{"name":"user","type":"address","internalType":"address"}],"outputs":[{"name":"","type":"uint8","internalType":"uint8"}],"stateMutability":"view"},{"type":"function","name":"getTierName","inputs":[{"name":"user","type":"address","internalType":"address"}],"outputs":[{"name":"","type":"string","internalType":"string"}],"stateMutability":"view"},{"type":"function","name":"stake12Months","inputs":[{"name":"amount","type":"uint256","internalType":"uint256"}],"outputs":[],"stateMutability":"nonpayable"},{"type":"function","name":"stake3Months","inputs":[{"name":"amount","type":"uint256","internalType":"uint256"}],"outputs":[],"stateMutability":"nonpayable"},{"type":"function","name":"stake6Months","inputs":[{"name":"amount","type":"uint256","internalType":"uint256"}],"outputs":[],"stateMutability":"nonpayable"},{"type":"function","name":"unlock","inputs":[],"outputs":[],"stateMutability":"nonpayable"},{"type":"function","name":"unstake","inputs":[],"outputs":[],"stateMutability":"nonpayable"},{"type":"event","name":"Staked","inputs":[{"name":"user","type":"address","indexed":true,"internalType":"address"},{"name":"amount","type":"uint256","indexed":false,"internalType":"uint256"},{"name":"lockTime","type":"uint256","indexed":false,"internalType":"uint256"},{"name":"unlockAt","type":"uint256","indexed":false,"internalType":"uint256"}],"anonymous":false},{"type":"event","name":"Unlocked","inputs":[{"name":"user","type":"address","indexed":true,"internalType":"address"},{"name":"when","type":"uint256","indexed":false,"internalType":"uint256"}],"anonymous":false},{"type":"event","name":"Unstaked","inputs":[{"name":"user","type":"address","indexed":true,"internalType":"address"},{"name":"amount","type":"uint256","indexed":false,"internalType":"uint256"}],"anonymous":false}],"userdoc":{},"devdoc":{},"evm":{"bytecode":{"object":"60a060405234801561001057600080fd5b50604051610b42380380610b4283398101604081905261002f9161008c565b60016000556001600160a01b03811661007b5760405162461bcd60e51b815260206004820152600a6024820152692d32b937903a37b5b2b760b11b604482015260640160405180910390fd5b6001600160a01b03166080526100bc565b60006020828403121561009e57600080fd5b81516001600160a01b03811681146100b557600080fd5b9392505050565b608051610a5d6100e5600039600081816101bd015281816102da015261085d0152610a5d6000f3fe608060405234801561001057600080fd5b50600436106100b45760003560e01c80638a03b5ac116100715780638a03b5ac1461016957806391d090b6146101735780639ab1c8b91461017d578063a69df4b51461019d578063ec7505f1146101a5578063fd2ef43b146101b857600080fd5b80632def6620146100b9578063306f08c3146100c35780633a7c0995146100d657806355f0f023146100f45780637a76646014610107578063846366c314610144575b600080fd5b6100c16101f7565b005b6100c16100d1366004610970565b6103ca565b6100e16301e1338081565b6040519081526020015b60405180910390f35b6100c1610102366004610970565b6103da565b61011a610115366004610989565b6103e7565b6040805195865260208601949094529284019190915215156060830152608082015260a0016100eb565b610157610152366004610989565b610434565b60405160ff90911681526020016100eb565b6100e16276a70081565b6100e162ed4e0081565b61019061018b366004610989565b6104d9565b6040516100eb91906109b9565b6100c16105f6565b6100c16101b3366004610970565b610723565b6101df7f000000000000000000000000000000000000000000000000000000000000000081565b6040516001600160a01b0390911681526020016100eb565b6101ff610731565b33600090815260016020818152604092839020835160808101855281548152928101549183019190915260028101549282019290925260039091015460ff161515606082018190526102875760405162461bcd60e51b815260206004820152600c60248201526b139bdd081d5b9b1bd8dad95960a21b60448201526064015b60405180910390fd5b3360008181526001602081905260408083208381559182018390556002820192909255600301805460ff191690558251905163a9059cbb60e01b8152600481019290925260248201526001600160a01b037f0000000000000000000000000000000000000000000000000000000000000000169063a9059cbb906044016020604051808303816000875af1158015610323573d6000803e3d6000fd5b505050506040513d601f19601f820116820180604052508101906103479190610a07565b6103855760405162461bcd60e51b815260206004820152600f60248201526e1514905394d1915497d19052531151608a1b604482015260640161027e565b805160405190815233907f0f5bb82176feb1b5e747e28471aa92156a04d9f3ab9f45f28e2d704232b93f75906020015b60405180910390a2506103c86001600055565b565b6103d78162ed4e0061078a565b50565b6103d7816276a70061078a565b6001600160a01b038116600090815260016020819052604082208054918101546002820154600383015493949193909260ff90911691906104288486610a29565b91505091939590929450565b6001600160a01b0381166000908152600160205260408120546a01a784379d99db4200000081106104685750600592915050565b69d3c21bcecceda100000081106104825750600492915050565b6969e10de76676d0800000811061049c5750600392915050565b69152d02c7e14af680000081106104b65750600292915050565b69043c33c193756480000081106104d05750600192915050565b50600092915050565b606060006104e683610434565b90508060ff1660010361051757505060408051808201909152600681526542726f6e7a6560d01b6020820152919050565b8060ff1660020361054657505060408051808201909152600681526529b4b63b32b960d11b6020820152919050565b8060ff1660030361057357505060408051808201909152600481526311dbdb1960e21b6020820152919050565b8060ff166004036105a4575050604080518082019091526008815267506c6174696e756d60c01b6020820152919050565b8060ff166005036105d4575050604080518082019091526007815266111a585b5bdb9960ca1b6020820152919050565b50506040805180820190915260048152634e6f6e6560e01b6020820152919050565b6105fe610731565b33600090815260016020526040902080546106465760405162461bcd60e51b81526020600482015260086024820152674e6f207374616b6560c01b604482015260640161027e565b600381015460ff161561068e5760405162461bcd60e51b815260206004820152601060248201526f105b1c9958591e481d5b9b1bd8dad95960821b604482015260640161027e565b806002015481600101546106a29190610a29565b4210156106e05760405162461bcd60e51b815260206004820152600c60248201526b14dd1a5b1b081b1bd8dad95960a21b604482015260640161027e565b60038101805460ff1916600117905560405133907f0f0bc5b519ddefdd8e5f9e6423433aa2b869738de2ae34d58ebc796fc749fa0d906103b59042815260200190565b6103d7816301e1338061078a565b6002600054036107835760405162461bcd60e51b815260206004820152601f60248201527f5265656e7472616e637947756172643a207265656e7472616e742063616c6c00604482015260640161027e565b6002600055565b610792610731565b600082116107d05760405162461bcd60e51b815260206004820152600b60248201526a16995c9bc8185b5bdd5b9d60aa1b604482015260640161027e565b33600090815260016020526040902080541561081f5760405162461bcd60e51b815260206004820152600e60248201526d105b1c9958591e481cdd185ad95960921b604482015260640161027e565b8281554260018201556002810182905560038101805460ff191690556040516323b872dd60e01b8152336004820152306024820152604481018490527f00000000000000000000000000000000000000000000000000000000000000006001600160a01b0316906323b872dd906064016020604051808303816000875af11580156108ae573d6000803e3d6000fd5b505050506040513d601f19601f820116820180604052508101906108d29190610a07565b6109155760405162461bcd60e51b81526020600482015260146024820152731514905394d1915497d19493d357d1905253115160621b604482015260640161027e565b337fb4caaf29adda3eefee3ad552a8e85058589bf834c7466cae4ee58787f70589ed84846109438142610a29565b6040805193845260208401929092529082015260600160405180910390a25061096c6001600055565b5050565b60006020828403121561098257600080fd5b5035919050565b60006020828403121561099b57600080fd5b81356001600160a01b03811681146109b257600080fd5b9392505050565b600060208083528351808285015260005b818110156109e6578581018301518582016040015282016109ca565b506000604082860101526040601f19601f8301168501019250505092915050565b600060208284031215610a1957600080fd5b815180151581146109b257600080fd5b80820180821115610a4a57634e487b7160e01b600052601160045260246000fd5b9291505056fea164736f6c6343000813000a","linkReferences":{}},"methodIdentifiers":{"LOCK_TIME_12M()":"3a7c0995","LOCK_TIME_3M()":"8a03b5ac","LOCK_TIME_6M()":"91d090b6","bvpToken()":"fd2ef43b","getStake(address)":"7a766460","getTierCode(address)":"846366c3","getTierName(address)":"9ab1c8b9","stake12Months(uint256)":"ec7505f1","stake3Months(uint256)":"55f0f023","stake6Months(uint256)":"306f08c3","unlock()":"a69df4b5","unstake()":"2def6620"}}}}}