{"contracts/GasRouterUpgradeable.sol":{"GasRouterUpgradeable":{"abi":[{"type":"function","name":"bvpToken","inputs":[],"outputs":[{"name":"","type":"address","internalType":"contract IERC20Upgradeable"}],"stateMutability":"view"},{"type":"function","name":"depositGas","inputs":[{"name":"amount","type":"uint256","internalType":"uint256"}],"outputs":[],"stateMutability":"nonpayable"},{"type":"function","name":"gasBalances","inputs":[{"name":"","type":"address","internalType":"address"}],"outputs":[{"name":"","type":"uint256","internalType":"uint256"}],"stateMutability":"view"},{"type":"function","name":"initialize","inputs":[{"name":"tokenAddress","type":"address","internalType":"address"}],"outputs":[],"stateMutability":"nonpayable"},{"type":"function","name":"owner","inputs":[],"outputs":[{"name":"","type":"address","internalType":"address"}],"stateMutability":"view"},{"type":"function","name":"proxiableUUID","inputs":[],"outputs":[{"name":"","type":"bytes32","internalType":"bytes32"}],"stateMutability":"view"},{"type":"function","name":"renounceOwnership","inputs":[],"outputs":[],"stateMutability":"nonpayable"},{"type":"function","name":"transferOwnership","inputs":[{"name":"newOwner","type":"address","internalType":"address"}],"outputs":[],"stateMutability":"nonpayable"},{"type":"function","name":"treasury","inputs":[],"outputs":[{"name":"","type":"address","internalType":"address"}],"stateMutability":"view"},{"type":"function","name":"upgradeTo","inputs":[{"name":"newImplementation","type":"address","internalType":"address"}],"outputs":[],"stateMutability":"nonpayable"},{"type":"function","name":"upgradeToAndCall","inputs":[{"name":"newImplementation","type":"address","internalType":"address"},{"name":"data","type":"bytes","internalType":"bytes"}],"outputs":[],"stateMutability":"payable"},{"type":"function","name":"withdrawGas","inputs":[{"name":"amount","type":"uint256","internalType":"uint256"}],"outputs":[],"stateMutability":"nonpayable"},{"type":"event","name":"AdminChanged","inputs":[{"name":"previousAdmin","type":"address","indexed":false,"internalType":"address"},{"name":"newAdmin","type":"address","indexed":false,"internalType":"address"}],"anonymous":false},{"type":"event","name":"BeaconUpgraded","inputs":[{"name":"beacon","type":"address","indexed":true,"internalType":"address"}],"anonymous":false},{"type":"event","name":"GasDeposited","inputs":[{"name":"user","type":"address","indexed":true,"internalType":"address"},{"name":"amount","type":"uint256","indexed":false,"internalType":"uint256"}],"anonymous":false},{"type":"event","name":"GasWithdrawn","inputs":[{"name":"user","type":"address","indexed":true,"internalType":"address"},{"name":"amount","type":"uint256","indexed":false,"internalType":"uint256"}],"anonymous":false},{"type":"event","name":"Initialized","inputs":[{"name":"version","type":"uint8","indexed":false,"internalType":"uint8"}],"anonymous":false},{"type":"event","name":"OwnershipTransferred","inputs":[{"name":"previousOwner","type":"address","indexed":true,"internalType":"address"},{"name":"newOwner","type":"address","indexed":true,"internalType":"address"}],"anonymous":false},{"type":"event","name":"Upgraded","inputs":[{"name":"implementation","type":"address","indexed":true,"internalType":"address"}],"anonymous":false}],"userdoc":{},"devdoc":{},"evm":{"bytecode":{"object":"60a06040523073ffffffffffffffffffffffffffffffffffffffff1660809073ffffffffffffffffffffffffffffffffffffffff16815250348015610042575f5ffd5b506080516121c36100775f395f818161028a01528181610318015281816105a50152818161063301526106e201526121c35ff3fe6080604052600436106100a6575f3560e01c80638da5cb5b116100635780638da5cb5b1461018057806391657544146101aa578063c4d66de8146101d2578063e988040b146101fa578063f2fde38b14610236578063fd2ef43b1461025e576100a6565b80633659cfe6146100aa57806343628421146100d25780634f1ef286146100fa57806352d1902d1461011657806361d027b314610140578063715018a61461016a575b5f5ffd5b3480156100b5575f5ffd5b506100d060048036038101906100cb9190611470565b610288565b005b3480156100dd575f5ffd5b506100f860048036038101906100f391906114ce565b61040e565b005b610114600480360381019061010f9190611635565b6105a3565b005b348015610121575f5ffd5b5061012a6106df565b60405161013791906116a7565b60405180910390f35b34801561014b575f5ffd5b50610154610796565b60405161016191906116cf565b60405180910390f35b348015610175575f5ffd5b5061017e6107bb565b005b34801561018b575f5ffd5b506101946107ce565b6040516101a191906116cf565b60405180910390f35b3480156101b5575f5ffd5b506101d060048036038101906101cb91906114ce565b6107f6565b005b3480156101dd575f5ffd5b506101f860048036038101906101f39190611470565b6109c7565b005b348015610205575f5ffd5b50610220600480360381019061021b9190611470565b610b52565b60405161022d91906116f7565b60405180910390f35b348015610241575f5ffd5b5061025c60048036038101906102579190611470565b610b67565b005b348015610269575f5ffd5b50610272610be9565b60405161027f919061176b565b60405180910390f35b7f000000000000000000000000000000000000000000000000000000000000000073ffffffffffffffffffffffffffffffffffffffff163073ffffffffffffffffffffffffffffffffffffffff1603610316576040517f08c379a000000000000000000000000000000000000000000000000000000000815260040161030d90611804565b60405180910390fd5b7f000000000000000000000000000000000000000000000000000000000000000073ffffffffffffffffffffffffffffffffffffffff16610355610c0e565b73ffffffffffffffffffffffffffffffffffffffff16146103ab576040517f08c379a00000000000000000000000000000000000000000000000000000000081526004016103a290611892565b60405180910390fd5b6103b481610c61565b61040b815f67ffffffffffffffff8111156103d2576103d1611511565b5b6040519080825280601f01601f1916602001820160405280156104045781602001600182028036833780820191505090505b505f610c6c565b50565b610416610dd6565b5f8111610458576040517f08c379a000000000000000000000000000000000000000000000000000000000815260040161044f906118fa565b60405180910390fd5b60fb5f9054906101000a900473ffffffffffffffffffffffffffffffffffffffff1673ffffffffffffffffffffffffffffffffffffffff166323b872dd3330846040518463ffffffff1660e01b81526004016104b693929190611918565b6020604051808303815f875af11580156104d2573d5f5f3e3d5ffd5b505050506040513d601f19601f820116820180604052508101906104f69190611982565b508060fd5f3373ffffffffffffffffffffffffffffffffffffffff1673ffffffffffffffffffffffffffffffffffffffff1681526020019081526020015f205f82825461054391906119da565b925050819055503373ffffffffffffffffffffffffffffffffffffffff167f1dbbf474736d6415d6a265fabee708fe6e988f6fd0c9d870ded36cab380898dd8260405161059091906116f7565b60405180910390a26105a0610e25565b50565b7f000000000000000000000000000000000000000000000000000000000000000073ffffffffffffffffffffffffffffffffffffffff163073ffffffffffffffffffffffffffffffffffffffff1603610631576040517f08c379a000000000000000000000000000000000000000000000000000000000815260040161062890611804565b60405180910390fd5b7f000000000000000000000000000000000000000000000000000000000000000073ffffffffffffffffffffffffffffffffffffffff16610670610c0e565b73ffffffffffffffffffffffffffffffffffffffff16146106c6576040517f08c379a00000000000000000000000000000000000000000000000000000000081526004016106bd90611892565b60405180910390fd5b6106cf82610c61565b6106db82826001610c6c565b5050565b5f7f000000000000000000000000000000000000000000000000000000000000000073ffffffffffffffffffffffffffffffffffffffff163073ffffffffffffffffffffffffffffffffffffffff161461076e576040517f08c379a000000000000000000000000000000000000000000000000000000000815260040161076590611a7d565b60405180910390fd5b7f360894a13ba1a3210667c828492db98dca3e2076cc3735a920a3ca505d382bbc5f1b905090565b60fc5f9054906101000a900473ffffffffffffffffffffffffffffffffffffffff1681565b6107c3610e2f565b6107cc5f610ead565b565b5f60335f9054906101000a900473ffffffffffffffffffffffffffffffffffffffff16905090565b6107fe610dd6565b8060fd5f3373ffffffffffffffffffffffffffffffffffffffff1673ffffffffffffffffffffffffffffffffffffffff1681526020019081526020015f2054101561087e576040517f08c379a000000000000000000000000000000000000000000000000000000000815260040161087590611ae5565b60405180910390fd5b8060fd5f3373ffffffffffffffffffffffffffffffffffffffff1673ffffffffffffffffffffffffffffffffffffffff1681526020019081526020015f205f8282546108ca9190611b03565b9250508190555060fb5f9054906101000a900473ffffffffffffffffffffffffffffffffffffffff1673ffffffffffffffffffffffffffffffffffffffff1663a9059cbb33836040518363ffffffff1660e01b815260040161092d929190611b36565b6020604051808303815f875af1158015610949573d5f5f3e3d5ffd5b505050506040513d601f19601f8201168201806040525081019061096d9190611982565b503373ffffffffffffffffffffffffffffffffffffffff167fb72c343bf59a3e8780aed75e2e61cdd3faab698b9a1c6f9e46426ba5e0e28e13826040516109b491906116f7565b60405180910390a26109c4610e25565b50565b5f5f60019054906101000a900460ff161590508080156109f7575060015f5f9054906101000a900460ff1660ff16105b80610a245750610a0630610f70565b158015610a23575060015f5f9054906101000a900460ff1660ff16145b5b610a63576040517f08c379a0000000000000000000000000000000000000000000000000000000008152600401610a5a90611bcd565b60405180910390fd5b60015f5f6101000a81548160ff021916908360ff1602179055508015610a9e5760015f60016101000a81548160ff0219169083151502179055505b610aa6610f92565b610aae610fea565b610ab6611042565b8160fb5f6101000a81548173ffffffffffffffffffffffffffffffffffffffff021916908373ffffffffffffffffffffffffffffffffffffffff1602179055508015610b4e575f5f60016101000a81548160ff0219169083151502179055507f7f26b83ff96e1f2b6a682f133852f6798a09c465da95921460cefb38474024986001604051610b459190611c30565b60405180910390a15b5050565b60fd602052805f5260405f205f915090505481565b610b6f610e2f565b5f73ffffffffffffffffffffffffffffffffffffffff168173ffffffffffffffffffffffffffffffffffffffff1603610bdd576040517f08c379a0000000000000000000000000000000000000000000000000000000008152600401610bd490611cb9565b60405180910390fd5b610be681610ead565b50565b60fb5f9054906101000a900473ffffffffffffffffffffffffffffffffffffffff1681565b5f610c3a7f360894a13ba1a3210667c828492db98dca3e2076cc3735a920a3ca505d382bbc5f1b611092565b5f015f9054906101000a900473ffffffffffffffffffffffffffffffffffffffff16905090565b610c69610e2f565b50565b610c977f4910fdfa16fed3260ed0e7147f7cc6da11a60208b5b9406d12a635614ffd91435f1b61109b565b5f015f9054906101000a900460ff1615610cb957610cb4836110a4565b610dd1565b8273ffffffffffffffffffffffffffffffffffffffff166352d1902d6040518163ffffffff1660e01b8152600401602060405180830381865afa925050508015610d2157506040513d601f19601f82011682018060405250810190610d1e9190611d01565b60015b610d60576040517f08c379a0000000000000000000000000000000000000000000000000000000008152600401610d5790611d9c565b60405180910390fd5b7f360894a13ba1a3210667c828492db98dca3e2076cc3735a920a3ca505d382bbc5f1b8114610dc4576040517f08c379a0000000000000000000000000000000000000000000000000000000008152600401610dbb90611e2a565b60405180910390fd5b50610dd083838361115a565b5b505050565b600260655403610e1b576040517f08c379a0000000000000000000000000000000000000000000000000000000008152600401610e1290611e92565b60405180910390fd5b6002606581905550565b6001606581905550565b610e37611185565b73ffffffffffffffffffffffffffffffffffffffff16610e556107ce565b73ffffffffffffffffffffffffffffffffffffffff1614610eab576040517f08c379a0000000000000000000000000000000000000000000000000000000008152600401610ea290611efa565b60405180910390fd5b565b5f60335f9054906101000a900473ffffffffffffffffffffffffffffffffffffffff1690508160335f6101000a81548173ffffffffffffffffffffffffffffffffffffffff021916908373ffffffffffffffffffffffffffffffffffffffff1602179055508173ffffffffffffffffffffffffffffffffffffffff168173ffffffffffffffffffffffffffffffffffffffff167f8be0079c531659141344cd1fd0a4f28419497f9722a3daafe3b4186f6b6457e060405160405180910390a35050565b5f5f8273ffffffffffffffffffffffffffffffffffffffff163b119050919050565b5f60019054906101000a900460ff16610fe0576040517f08c379a0000000000000000000000000000000000000000000000000000000008152600401610fd790611f88565b60405180910390fd5b610fe861118c565b565b5f60019054906101000a900460ff16611038576040517f08c379a000000000000000000000000000000000000000000000000000000000815260040161102f90611f88565b60405180910390fd5b6110406111ec565b565b5f60019054906101000a900460ff16611090576040517f08c379a000000000000000000000000000000000000000000000000000000000815260040161108790611f88565b60405180910390fd5b565b5f819050919050565b5f819050919050565b6110ad81610f70565b6110ec576040517f08c379a00000000000000000000000000000000000000000000000000000000081526004016110e390612016565b60405180910390fd5b806111187f360894a13ba1a3210667c828492db98dca3e2076cc3735a920a3ca505d382bbc5f1b611092565b5f015f6101000a81548173ffffffffffffffffffffffffffffffffffffffff021916908373ffffffffffffffffffffffffffffffffffffffff16021790555050565b61116383611244565b5f8251118061116f5750805b156111805761117e8383611293565b505b505050565b5f33905090565b5f60019054906101000a900460ff166111da576040517f08c379a00000000000000000000000000000000000000000000000000000000081526004016111d190611f88565b60405180910390fd5b6111ea6111e5611185565b610ead565b565b5f60019054906101000a900460ff1661123a576040517f08c379a000000000000000000000000000000000000000000000000000000000815260040161123190611f88565b60405180910390fd5b6001606581905550565b61124d816110a4565b8073ffffffffffffffffffffffffffffffffffffffff167fbc7cd75a20ee27fd9adebab32041f755214dbc6bffa90cc0225b39da2e5c2d3b60405160405180910390a250565b60606112b88383604051806060016040528060278152602001612167602791396112c0565b905092915050565b60605f5f8573ffffffffffffffffffffffffffffffffffffffff16856040516112e99190612086565b5f60405180830381855af49150503d805f8114611321576040519150601f19603f3d011682016040523d82523d5f602084013e611326565b606091505b509150915061133786838387611342565b925050509392505050565b606083156113a3575f83510361139b5761135b85610f70565b61139a576040517f08c379a0000000000000000000000000000000000000000000000000000000008152600401611391906120e6565b60405180910390fd5b5b8290506113ae565b6113ad83836113b6565b5b949350505050565b5f825111156113c85781518083602001fd5b806040517f08c379a00000000000000000000000000000000000000000000000000000000081526004016113fc9190612146565b60405180910390fd5b5f604051905090565b5f5ffd5b5f5ffd5b5f73ffffffffffffffffffffffffffffffffffffffff82169050919050565b5f61143f82611416565b9050919050565b61144f81611435565b8114611459575f5ffd5b50565b5f8135905061146a81611446565b92915050565b5f602082840312156114855761148461140e565b5b5f6114928482850161145c565b91505092915050565b5f819050919050565b6114ad8161149b565b81146114b7575f5ffd5b50565b5f813590506114c8816114a4565b92915050565b5f602082840312156114e3576114e261140e565b5b5f6114f0848285016114ba565b91505092915050565b5f5ffd5b5f5ffd5b5f601f19601f8301169050919050565b7f4e487b71000000000000000000000000000000000000000000000000000000005f52604160045260245ffd5b61154782611501565b810181811067ffffffffffffffff8211171561156657611565611511565b5b80604052505050565b5f611578611405565b9050611584828261153e565b919050565b5f67ffffffffffffffff8211156115a3576115a2611511565b5b6115ac82611501565b9050602081019050919050565b828183375f83830152505050565b5f6115d96115d484611589565b61156f565b9050828152602081018484840111156115f5576115f46114fd565b5b6116008482856115b9565b509392505050565b5f82601f83011261161c5761161b6114f9565b5b813561162c8482602086016115c7565b91505092915050565b5f5f6040838503121561164b5761164a61140e565b5b5f6116588582860161145c565b925050602083013567ffffffffffffffff81111561167957611678611412565b5b61168585828601611608565b9150509250929050565b5f819050919050565b6116a18161168f565b82525050565b5f6020820190506116ba5f830184611698565b92915050565b6116c981611435565b82525050565b5f6020820190506116e25f8301846116c0565b92915050565b6116f18161149b565b82525050565b5f60208201905061170a5f8301846116e8565b92915050565b5f819050919050565b5f61173361172e61172984611416565b611710565b611416565b9050919050565b5f61174482611719565b9050919050565b5f6117558261173a565b9050919050565b6117658161174b565b82525050565b5f60208201905061177e5f83018461175c565b92915050565b5f82825260208201905092915050565b7f46756e6374696f6e206d7573742062652063616c6c6564207468726f756768205f8201527f64656c656761746563616c6c0000000000000000000000000000000000000000602082015250565b5f6117ee602c83611784565b91506117f982611794565b604082019050919050565b5f6020820190508181035f83015261181b816117e2565b9050919050565b7f46756e6374696f6e206d7573742062652063616c6c6564207468726f756768205f8201527f6163746976652070726f78790000000000000000000000000000000000000000602082015250565b5f61187c602c83611784565b915061188782611822565b604082019050919050565b5f6020820190508181035f8301526118a981611870565b9050919050565b7f416d6f756e74206d757374206265203e203000000000000000000000000000005f82015250565b5f6118e4601283611784565b91506118ef826118b0565b602082019050919050565b5f6020820190508181035f830152611911816118d8565b9050919050565b5f60608201905061192b5f8301866116c0565b61193860208301856116c0565b61194560408301846116e8565b949350505050565b5f8115159050919050565b6119618161194d565b811461196b575f5ffd5b50565b5f8151905061197c81611958565b92915050565b5f602082840312156119975761199661140e565b5b5f6119a48482850161196e565b91505092915050565b7f4e487b71000000000000000000000000000000000000000000000000000000005f52601160045260245ffd5b5f6119e48261149b565b91506119ef8361149b565b9250828201905080821115611a0757611a066119ad565b5b92915050565b7f555550535570677261646561626c653a206d757374206e6f742062652063616c5f8201527f6c6564207468726f7567682064656c656761746563616c6c0000000000000000602082015250565b5f611a67603883611784565b9150611a7282611a0d565b604082019050919050565b5f6020820190508181035f830152611a9481611a5b565b9050919050565b7f496e73756666696369656e74206761732062616c616e636500000000000000005f82015250565b5f611acf601883611784565b9150611ada82611a9b565b602082019050919050565b5f6020820190508181035f830152611afc81611ac3565b9050919050565b5f611b0d8261149b565b9150611b188361149b565b9250828203905081811115611b3057611b2f6119ad565b5b92915050565b5f604082019050611b495f8301856116c0565b611b5660208301846116e8565b9392505050565b7f496e697469616c697a61626c653a20636f6e747261637420697320616c7265615f8201527f647920696e697469616c697a6564000000000000000000000000000000000000602082015250565b5f611bb7602e83611784565b9150611bc282611b5d565b604082019050919050565b5f6020820190508181035f830152611be481611bab565b9050919050565b5f819050919050565b5f60ff82169050919050565b5f611c1a611c15611c1084611beb565b611710565b611bf4565b9050919050565b611c2a81611c00565b82525050565b5f602082019050611c435f830184611c21565b92915050565b7f4f776e61626c653a206e6577206f776e657220697320746865207a65726f20615f8201527f6464726573730000000000000000000000000000000000000000000000000000602082015250565b5f611ca3602683611784565b9150611cae82611c49565b604082019050919050565b5f6020820190508181035f830152611cd081611c97565b9050919050565b611ce08161168f565b8114611cea575f5ffd5b50565b5f81519050611cfb81611cd7565b92915050565b5f60208284031215611d1657611d1561140e565b5b5f611d2384828501611ced565b91505092915050565b7f45524331393637557067726164653a206e657720696d706c656d656e746174695f8201527f6f6e206973206e6f742055555053000000000000000000000000000000000000602082015250565b5f611d86602e83611784565b9150611d9182611d2c565b604082019050919050565b5f6020820190508181035f830152611db381611d7a565b9050919050565b7f45524331393637557067726164653a20756e737570706f727465642070726f785f8201527f6961626c65555549440000000000000000000000000000000000000000000000602082015250565b5f611e14602983611784565b9150611e1f82611dba565b604082019050919050565b5f6020820190508181035f830152611e4181611e08565b9050919050565b7f5265656e7472616e637947756172643a207265656e7472616e742063616c6c005f82015250565b5f611e7c601f83611784565b9150611e8782611e48565b602082019050919050565b5f6020820190508181035f830152611ea981611e70565b9050919050565b7f4f776e61626c653a2063616c6c6572206973206e6f7420746865206f776e65725f82015250565b5f611ee4602083611784565b9150611eef82611eb0565b602082019050919050565b5f6020820190508181035f830152611f1181611ed8565b9050919050565b7f496e697469616c697a61626c653a20636f6e7472616374206973206e6f7420695f8201527f6e697469616c697a696e67000000000000000000000000000000000000000000602082015250565b5f611f72602b83611784565b9150611f7d82611f18565b604082019050919050565b5f6020820190508181035f830152611f9f81611f66565b9050919050565b7f455243313936373a206e657720696d706c656d656e746174696f6e206973206e5f8201527f6f74206120636f6e747261637400000000000000000000000000000000000000602082015250565b5f612000602d83611784565b915061200b82611fa6565b604082019050919050565b5f6020820190508181035f83015261202d81611ff4565b9050919050565b5f81519050919050565b5f81905092915050565b8281835e5f83830152505050565b5f61206082612034565b61206a818561203e565b935061207a818560208601612048565b80840191505092915050565b5f6120918284612056565b915081905092915050565b7f416464726573733a2063616c6c20746f206e6f6e2d636f6e74726163740000005f82015250565b5f6120d0601d83611784565b91506120db8261209c565b602082019050919050565b5f6020820190508181035f8301526120fd816120c4565b9050919050565b5f81519050919050565b5f61211882612104565b6121228185611784565b9350612132818560208601612048565b61213b81611501565b840191505092915050565b5f6020820190508181035f83015261215e818461210e565b90509291505056fe416464726573733a206c6f772d6c6576656c2064656c65676174652063616c6c206661696c6564a26469706673582212206d73675248943c6de2c320684da98308710197d7172d10925aed7b584975bd9a64736f6c634300081d0033","linkReferences":{}},"methodIdentifiers":{"bvpToken()":"fd2ef43b","depositGas(uint256)":"43628421","gasBalances(address)":"e988040b","initialize(address)":"c4d66de8","owner()":"8da5cb5b","proxiableUUID()":"52d1902d","renounceOwnership()":"715018a6","transferOwnership(address)":"f2fde38b","treasury()":"61d027b3","upgradeTo(address)":"3659cfe6","upgradeToAndCall(address,bytes)":"4f1ef286","withdrawGas(uint256)":"91657544"}}}}}