{"contracts/BVPStakingUpgradeable.sol":{"BVPStakingUpgradeable":{"abi":[{"type":"function","name":"LOCK_TIME","inputs":[],"outputs":[{"name":"","type":"uint256","internalType":"uint256"}],"stateMutability":"view"},{"type":"function","name":"SIX_MONTHS","inputs":[],"outputs":[{"name":"","type":"uint256","internalType":"uint256"}],"stateMutability":"view"},{"type":"function","name":"TWELVE_MONTHS","inputs":[],"outputs":[{"name":"","type":"uint256","internalType":"uint256"}],"stateMutability":"view"},{"type":"function","name":"bvpToken","inputs":[],"outputs":[{"name":"","type":"address","internalType":"contract IERC20Upgradeable"}],"stateMutability":"view"},{"type":"function","name":"emergencyWithdraw","inputs":[{"name":"user","type":"address","internalType":"address"}],"outputs":[],"stateMutability":"nonpayable"},{"type":"function","name":"getTier","inputs":[{"name":"user","type":"address","internalType":"address"}],"outputs":[{"name":"","type":"string","internalType":"string"}],"stateMutability":"view"},{"type":"function","name":"initialize","inputs":[{"name":"_token","type":"address","internalType":"address"}],"outputs":[],"stateMutability":"nonpayable"},{"type":"function","name":"owner","inputs":[],"outputs":[{"name":"","type":"address","internalType":"address"}],"stateMutability":"view"},{"type":"function","name":"proxiableUUID","inputs":[],"outputs":[{"name":"","type":"bytes32","internalType":"bytes32"}],"stateMutability":"view"},{"type":"function","name":"renounceOwnership","inputs":[],"outputs":[],"stateMutability":"nonpayable"},{"type":"function","name":"stake","inputs":[{"name":"amount","type":"uint256","internalType":"uint256"},{"name":"lockPeriod","type":"uint256","internalType":"uint256"}],"outputs":[],"stateMutability":"nonpayable"},{"type":"function","name":"stake","inputs":[{"name":"amount","type":"uint256","internalType":"uint256"}],"outputs":[],"stateMutability":"nonpayable"},{"type":"function","name":"stakes","inputs":[{"name":"","type":"address","internalType":"address"}],"outputs":[{"name":"amount","type":"uint256","internalType":"uint256"},{"name":"timestamp","type":"uint256","internalType":"uint256"},{"name":"unlocked","type":"bool","internalType":"bool"},{"name":"lockTime","type":"uint256","internalType":"uint256"}],"stateMutability":"view"},{"type":"function","name":"transferOwnership","inputs":[{"name":"newOwner","type":"address","internalType":"address"}],"outputs":[],"stateMutability":"nonpayable"},{"type":"function","name":"unlock","inputs":[],"outputs":[],"stateMutability":"nonpayable"},{"type":"function","name":"unstake","inputs":[],"outputs":[],"stateMutability":"nonpayable"},{"type":"function","name":"upgradeTo","inputs":[{"name":"newImplementation","type":"address","internalType":"address"}],"outputs":[],"stateMutability":"nonpayable"},{"type":"function","name":"upgradeToAndCall","inputs":[{"name":"newImplementation","type":"address","internalType":"address"},{"name":"data","type":"bytes","internalType":"bytes"}],"outputs":[],"stateMutability":"payable"},{"type":"event","name":"AdminChanged","inputs":[{"name":"previousAdmin","type":"address","indexed":false,"internalType":"address"},{"name":"newAdmin","type":"address","indexed":false,"internalType":"address"}],"anonymous":false},{"type":"event","name":"BeaconUpgraded","inputs":[{"name":"beacon","type":"address","indexed":true,"internalType":"address"}],"anonymous":false},{"type":"event","name":"Initialized","inputs":[{"name":"version","type":"uint8","indexed":false,"internalType":"uint8"}],"anonymous":false},{"type":"event","name":"OwnershipTransferred","inputs":[{"name":"previousOwner","type":"address","indexed":true,"internalType":"address"},{"name":"newOwner","type":"address","indexed":true,"internalType":"address"}],"anonymous":false},{"type":"event","name":"Upgraded","inputs":[{"name":"implementation","type":"address","indexed":true,"internalType":"address"}],"anonymous":false}],"userdoc":{},"devdoc":{},"evm":{"bytecode":{"object":"60a06040523073ffffffffffffffffffffffffffffffffffffffff1660809073ffffffffffffffffffffffffffffffffffffffff16815250348015610042575f5ffd5b50608051612a6a6100775f395f818161058d0152818161061b0152818161071a015281816107a801526108570152612a6a5ff3fe608060405260043610610108575f3560e01c80637c4a485c11610094578063b45aae5211610063578063b45aae52146102f1578063ba579c741461032d578063c4d66de814610357578063f2fde38b1461037f578063fd2ef43b146103a757610108565b80637c4a485c1461025f5780638da5cb5b14610289578063a694fc3a146102b3578063a69df4b5146102db57610108565b80634f1ef286116100db5780634f1ef286146101b357806352d1902d146101cf5780636ff1c9bc146101f9578063715018a6146102215780637b0472f01461023757610108565b806316934fc41461010c5780632def66201461014b5780633659cfe614610161578063413d9c3a14610189575b5f5ffd5b348015610117575f5ffd5b50610132600480360381019061012d9190611ab2565b6103d1565b6040516101429493929190611b0f565b60405180910390f35b348015610156575f5ffd5b5061015f610409565b005b34801561016c575f5ffd5b5061018760048036038101906101829190611ab2565b61058b565b005b348015610194575f5ffd5b5061019d610711565b6040516101aa9190611b52565b60405180910390f35b6101cd60048036038101906101c89190611ca7565b610718565b005b3480156101da575f5ffd5b506101e3610854565b6040516101f09190611d19565b60405180910390f35b348015610204575f5ffd5b5061021f600480360381019061021a9190611ab2565b61090b565b005b34801561022c575f5ffd5b50610235610a50565b005b348015610242575f5ffd5b5061025d60048036038101906102589190611d5c565b610a63565b005b34801561026a575f5ffd5b50610273610a71565b6040516102809190611b52565b60405180910390f35b348015610294575f5ffd5b5061029d610a79565b6040516102aa9190611da9565b60405180910390f35b3480156102be575f5ffd5b506102d960048036038101906102d49190611dc2565b610aa1565b005b3480156102e6575f5ffd5b506102ef610ab1565b005b3480156102fc575f5ffd5b5061031760048036038101906103129190611ab2565b610bfc565b6040516103249190611e4d565b60405180910390f35b348015610338575f5ffd5b50610341610e0c565b60405161034e9190611b52565b60405180910390f35b348015610362575f5ffd5b5061037d60048036038101906103789190611ab2565b610e13565b005b34801561038a575f5ffd5b506103a560048036038101906103a09190611ab2565b610f9e565b005b3480156103b2575f5ffd5b506103bb611020565b6040516103c89190611ec8565b60405180910390f35b60fc602052805f5260405f205f91509050805f015490806001015490806002015f9054906101000a900460ff16908060030154905084565b5f60fc5f3373ffffffffffffffffffffffffffffffffffffffff1673ffffffffffffffffffffffffffffffffffffffff1681526020019081526020015f209050806002015f9054906101000a900460ff16610499576040517f08c379a000000000000000000000000000000000000000000000000000000000815260040161049090611f2b565b60405180910390fd5b5f815f015490505f81116104e2576040517f08c379a00000000000000000000000000000000000000000000000000000000081526004016104d990611f93565b60405180910390fd5b5f825f018190555060fb5f9054906101000a900473ffffffffffffffffffffffffffffffffffffffff1673ffffffffffffffffffffffffffffffffffffffff1663a9059cbb33836040518363ffffffff1660e01b8152600401610546929190611fb1565b6020604051808303815f875af1158015610562573d5f5f3e3d5ffd5b505050506040513d601f19601f820116820180604052508101906105869190612002565b505050565b7f000000000000000000000000000000000000000000000000000000000000000073ffffffffffffffffffffffffffffffffffffffff163073ffffffffffffffffffffffffffffffffffffffff1603610619576040517f08c379a00000000000000000000000000000000000000000000000000000000081526004016106109061209d565b60405180910390fd5b7f000000000000000000000000000000000000000000000000000000000000000073ffffffffffffffffffffffffffffffffffffffff16610658611045565b73ffffffffffffffffffffffffffffffffffffffff16146106ae576040517f08c379a00000000000000000000000000000000000000000000000000000000081526004016106a59061212b565b60405180910390fd5b6106b781611098565b61070e815f67ffffffffffffffff8111156106d5576106d4611b83565b5b6040519080825280601f01601f1916602001820160405280156107075781602001600182028036833780820191505090505b505f6110a3565b50565b6276a70081565b7f000000000000000000000000000000000000000000000000000000000000000073ffffffffffffffffffffffffffffffffffffffff163073ffffffffffffffffffffffffffffffffffffffff16036107a6576040517f08c379a000000000000000000000000000000000000000000000000000000000815260040161079d9061209d565b60405180910390fd5b7f000000000000000000000000000000000000000000000000000000000000000073ffffffffffffffffffffffffffffffffffffffff166107e5611045565b73ffffffffffffffffffffffffffffffffffffffff161461083b576040517f08c379a00000000000000000000000000000000000000000000000000000000081526004016108329061212b565b60405180910390fd5b61084482611098565b610850828260016110a3565b5050565b5f7f000000000000000000000000000000000000000000000000000000000000000073ffffffffffffffffffffffffffffffffffffffff163073ffffffffffffffffffffffffffffffffffffffff16146108e3576040517f08c379a00000000000000000000000000000000000000000000000000000000081526004016108da906121b9565b60405180910390fd5b7f360894a13ba1a3210667c828492db98dca3e2076cc3735a920a3ca505d382bbc5f1b905090565b61091361120d565b5f60fc5f8373ffffffffffffffffffffffffffffffffffffffff1673ffffffffffffffffffffffffffffffffffffffff1681526020019081526020015f2090505f815f015411610998576040517f08c379a000000000000000000000000000000000000000000000000000000000815260040161098f90612221565b60405180910390fd5b5f815f015490505f825f018190555060fb5f9054906101000a900473ffffffffffffffffffffffffffffffffffffffff1673ffffffffffffffffffffffffffffffffffffffff1663a9059cbb6109ec610a79565b836040518363ffffffff1660e01b8152600401610a0a929190611fb1565b6020604051808303815f875af1158015610a26573d5f5f3e3d5ffd5b505050506040513d601f19601f82011682018060405250810190610a4a9190612002565b50505050565b610a5861120d565b610a615f61128b565b565b610a6d828261134e565b5050565b6301e1338081565b5f60335f9054906101000a900473ffffffffffffffffffffffffffffffffffffffff16905090565b610aae816276a70061134e565b50565b5f60fc5f3373ffffffffffffffffffffffffffffffffffffffff1673ffffffffffffffffffffffffffffffffffffffff1681526020019081526020015f2090505f815f015411610b36576040517f08c379a0000000000000000000000000000000000000000000000000000000008152600401610b2d90611f93565b60405180910390fd5b806002015f9054906101000a900460ff1615610b87576040517f08c379a0000000000000000000000000000000000000000000000000000000008152600401610b7e90612289565b60405180910390fd5b80600301548160010154610b9b91906122d4565b421015610bdd576040517f08c379a0000000000000000000000000000000000000000000000000000000008152600401610bd490612351565b60405180910390fd5b6001816002015f6101000a81548160ff02191690831515021790555050565b60605f60fc5f8473ffffffffffffffffffffffffffffffffffffffff1673ffffffffffffffffffffffffffffffffffffffff1681526020019081526020015f205f015490506a01a784379d99db420000008110610c91576040518060400160405280600781526020017f4469616d6f6e6400000000000000000000000000000000000000000000000000815250915050610e07565b69d3c21bcecceda10000008110610ce0576040518060400160405280600881526020017f506c6174696e756d000000000000000000000000000000000000000000000000815250915050610e07565b6969e10de76676d08000008110610d2f576040518060400160405280600481526020017f476f6c6400000000000000000000000000000000000000000000000000000000815250915050610e07565b69152d02c7e14af68000008110610d7e576040518060400160405280600681526020017f53696c7665720000000000000000000000000000000000000000000000000000815250915050610e07565b69043c33c19375648000008110610dcd576040518060400160405280600681526020017f42726f6e7a650000000000000000000000000000000000000000000000000000815250915050610e07565b6040518060400160405280600481526020017f4e6f6e65000000000000000000000000000000000000000000000000000000008152509150505b919050565b62ed4e0081565b5f5f60019054906101000a900460ff16159050808015610e43575060015f5f9054906101000a900460ff1660ff16105b80610e705750610e52306115b2565b158015610e6f575060015f5f9054906101000a900460ff1660ff16145b5b610eaf576040517f08c379a0000000000000000000000000000000000000000000000000000000008152600401610ea6906123df565b60405180910390fd5b60015f5f6101000a81548160ff021916908360ff1602179055508015610eea5760015f60016101000a81548160ff0219169083151502179055505b610ef26115d4565b610efa61162c565b610f02611684565b8160fb5f6101000a81548173ffffffffffffffffffffffffffffffffffffffff021916908373ffffffffffffffffffffffffffffffffffffffff1602179055508015610f9a575f5f60016101000a81548160ff0219169083151502179055507f7f26b83ff96e1f2b6a682f133852f6798a09c465da95921460cefb38474024986001604051610f919190612442565b60405180910390a15b5050565b610fa661120d565b5f73ffffffffffffffffffffffffffffffffffffffff168173ffffffffffffffffffffffffffffffffffffffff1603611014576040517f08c379a000000000000000000000000000000000000000000000000000000000815260040161100b906124cb565b60405180910390fd5b61101d8161128b565b50565b60fb5f9054906101000a900473ffffffffffffffffffffffffffffffffffffffff1681565b5f6110717f360894a13ba1a3210667c828492db98dca3e2076cc3735a920a3ca505d382bbc5f1b6116d4565b5f015f9054906101000a900473ffffffffffffffffffffffffffffffffffffffff16905090565b6110a061120d565b50565b6110ce7f4910fdfa16fed3260ed0e7147f7cc6da11a60208b5b9406d12a635614ffd91435f1b6116dd565b5f015f9054906101000a900460ff16156110f0576110eb836116e6565b611208565b8273ffffffffffffffffffffffffffffffffffffffff166352d1902d6040518163ffffffff1660e01b8152600401602060405180830381865afa92505050801561115857506040513d601f19601f820116820180604052508101906111559190612513565b60015b611197576040517f08c379a000000000000000000000000000000000000000000000000000000000815260040161118e906125ae565b60405180910390fd5b7f360894a13ba1a3210667c828492db98dca3e2076cc3735a920a3ca505d382bbc5f1b81146111fb576040517f08c379a00000000000000000000000000000000000000000000000000000000081526004016111f29061263c565b60405180910390fd5b5061120783838361179c565b5b505050565b6112156117c7565b73ffffffffffffffffffffffffffffffffffffffff16611233610a79565b73ffffffffffffffffffffffffffffffffffffffff1614611289576040517f08c379a0000000000000000000000000000000000000000000000000000000008152600401611280906126a4565b60405180910390fd5b565b5f60335f9054906101000a900473ffffffffffffffffffffffffffffffffffffffff1690508160335f6101000a81548173ffffffffffffffffffffffffffffffffffffffff021916908373ffffffffffffffffffffffffffffffffffffffff1602179055508173ffffffffffffffffffffffffffffffffffffffff168173ffffffffffffffffffffffffffffffffffffffff167f8be0079c531659141344cd1fd0a4f28419497f9722a3daafe3b4186f6b6457e060405160405180910390a35050565b5f8211611390576040517f08c379a00000000000000000000000000000000000000000000000000000000081526004016113879061270c565b60405180910390fd5b5f60fc5f3373ffffffffffffffffffffffffffffffffffffffff1673ffffffffffffffffffffffffffffffffffffffff1681526020019081526020015f205f015414611411576040517f08c379a000000000000000000000000000000000000000000000000000000000815260040161140890612774565b60405180910390fd5b6276a700811480611424575062ed4e0081145b8061143257506301e1338081145b611471576040517f08c379a0000000000000000000000000000000000000000000000000000000008152600401611468906127dc565b60405180910390fd5b60fb5f9054906101000a900473ffffffffffffffffffffffffffffffffffffffff1673ffffffffffffffffffffffffffffffffffffffff166323b872dd3330856040518463ffffffff1660e01b81526004016114cf939291906127fa565b6020604051808303815f875af11580156114eb573d5f5f3e3d5ffd5b505050506040513d601f19601f8201168201806040525081019061150f9190612002565b5060405180608001604052808381526020014281526020015f151581526020018281525060fc5f3373ffffffffffffffffffffffffffffffffffffffff1673ffffffffffffffffffffffffffffffffffffffff1681526020019081526020015f205f820151815f0155602082015181600101556040820151816002015f6101000a81548160ff021916908315150217905550606082015181600301559050505050565b5f5f8273ffffffffffffffffffffffffffffffffffffffff163b119050919050565b5f60019054906101000a900460ff16611622576040517f08c379a00000000000000000000000000000000000000000000000000000000081526004016116199061289f565b60405180910390fd5b61162a6117ce565b565b5f60019054906101000a900460ff1661167a576040517f08c379a00000000000000000000000000000000000000000000000000000000081526004016116719061289f565b60405180910390fd5b61168261182e565b565b5f60019054906101000a900460ff166116d2576040517f08c379a00000000000000000000000000000000000000000000000000000000081526004016116c99061289f565b60405180910390fd5b565b5f819050919050565b5f819050919050565b6116ef816115b2565b61172e576040517f08c379a00000000000000000000000000000000000000000000000000000000081526004016117259061292d565b60405180910390fd5b8061175a7f360894a13ba1a3210667c828492db98dca3e2076cc3735a920a3ca505d382bbc5f1b6116d4565b5f015f6101000a81548173ffffffffffffffffffffffffffffffffffffffff021916908373ffffffffffffffffffffffffffffffffffffffff16021790555050565b6117a583611886565b5f825111806117b15750805b156117c2576117c083836118d5565b505b505050565b5f33905090565b5f60019054906101000a900460ff1661181c576040517f08c379a00000000000000000000000000000000000000000000000000000000081526004016118139061289f565b60405180910390fd5b61182c6118276117c7565b61128b565b565b5f60019054906101000a900460ff1661187c576040517f08c379a00000000000000000000000000000000000000000000000000000000081526004016118739061289f565b60405180910390fd5b6001606581905550565b61188f816116e6565b8073ffffffffffffffffffffffffffffffffffffffff167fbc7cd75a20ee27fd9adebab32041f755214dbc6bffa90cc0225b39da2e5c2d3b60405160405180910390a250565b60606118fa8383604051806060016040528060278152602001612a0e60279139611902565b905092915050565b60605f5f8573ffffffffffffffffffffffffffffffffffffffff168560405161192b919061298f565b5f60405180830381855af49150503d805f8114611963576040519150601f19603f3d011682016040523d82523d5f602084013e611968565b606091505b509150915061197986838387611984565b925050509392505050565b606083156119e5575f8351036119dd5761199d856115b2565b6119dc576040517f08c379a00000000000000000000000000000000000000000000000000000000081526004016119d3906129ef565b60405180910390fd5b5b8290506119f0565b6119ef83836119f8565b5b949350505050565b5f82511115611a0a5781518083602001fd5b806040517f08c379a0000000000000000000000000000000000000000000000000000000008152600401611a3e9190611e4d565b60405180910390fd5b5f604051905090565b5f5ffd5b5f5ffd5b5f73ffffffffffffffffffffffffffffffffffffffff82169050919050565b5f611a8182611a58565b9050919050565b611a9181611a77565b8114611a9b575f5ffd5b50565b5f81359050611aac81611a88565b92915050565b5f60208284031215611ac757611ac6611a50565b5b5f611ad484828501611a9e565b91505092915050565b5f819050919050565b611aef81611add565b82525050565b5f8115159050919050565b611b0981611af5565b82525050565b5f608082019050611b225f830187611ae6565b611b2f6020830186611ae6565b611b3c6040830185611b00565b611b496060830184611ae6565b95945050505050565b5f602082019050611b655f830184611ae6565b92915050565b5f5ffd5b5f5ffd5b5f601f19601f8301169050919050565b7f4e487b71000000000000000000000000000000000000000000000000000000005f52604160045260245ffd5b611bb982611b73565b810181811067ffffffffffffffff82111715611bd857611bd7611b83565b5b80604052505050565b5f611bea611a47565b9050611bf68282611bb0565b919050565b5f67ffffffffffffffff821115611c1557611c14611b83565b5b611c1e82611b73565b9050602081019050919050565b828183375f83830152505050565b5f611c4b611c4684611bfb565b611be1565b905082815260208101848484011115611c6757611c66611b6f565b5b611c72848285611c2b565b509392505050565b5f82601f830112611c8e57611c8d611b6b565b5b8135611c9e848260208601611c39565b91505092915050565b5f5f60408385031215611cbd57611cbc611a50565b5b5f611cca85828601611a9e565b925050602083013567ffffffffffffffff811115611ceb57611cea611a54565b5b611cf785828601611c7a565b9150509250929050565b5f819050919050565b611d1381611d01565b82525050565b5f602082019050611d2c5f830184611d0a565b92915050565b611d3b81611add565b8114611d45575f5ffd5b50565b5f81359050611d5681611d32565b92915050565b5f5f60408385031215611d7257611d71611a50565b5b5f611d7f85828601611d48565b9250506020611d9085828601611d48565b9150509250929050565b611da381611a77565b82525050565b5f602082019050611dbc5f830184611d9a565b92915050565b5f60208284031215611dd757611dd6611a50565b5b5f611de484828501611d48565b91505092915050565b5f81519050919050565b5f82825260208201905092915050565b8281835e5f83830152505050565b5f611e1f82611ded565b611e298185611df7565b9350611e39818560208601611e07565b611e4281611b73565b840191505092915050565b5f6020820190508181035f830152611e658184611e15565b905092915050565b5f819050919050565b5f611e90611e8b611e8684611a58565b611e6d565b611a58565b9050919050565b5f611ea182611e76565b9050919050565b5f611eb282611e97565b9050919050565b611ec281611ea8565b82525050565b5f602082019050611edb5f830184611eb9565b92915050565b7f4e6f7420756e6c6f636b656400000000000000000000000000000000000000005f82015250565b5f611f15600c83611df7565b9150611f2082611ee1565b602082019050919050565b5f6020820190508181035f830152611f4281611f09565b9050919050565b7f4e6f207374616b650000000000000000000000000000000000000000000000005f82015250565b5f611f7d600883611df7565b9150611f8882611f49565b602082019050919050565b5f6020820190508181035f830152611faa81611f71565b9050919050565b5f604082019050611fc45f830185611d9a565b611fd16020830184611ae6565b9392505050565b611fe181611af5565b8114611feb575f5ffd5b50565b5f81519050611ffc81611fd8565b92915050565b5f6020828403121561201757612016611a50565b5b5f61202484828501611fee565b91505092915050565b7f46756e6374696f6e206d7573742062652063616c6c6564207468726f756768205f8201527f64656c656761746563616c6c0000000000000000000000000000000000000000602082015250565b5f612087602c83611df7565b91506120928261202d565b604082019050919050565b5f6020820190508181035f8301526120b48161207b565b9050919050565b7f46756e6374696f6e206d7573742062652063616c6c6564207468726f756768205f8201527f6163746976652070726f78790000000000000000000000000000000000000000602082015250565b5f612115602c83611df7565b9150612120826120bb565b604082019050919050565b5f6020820190508181035f83015261214281612109565b9050919050565b7f555550535570677261646561626c653a206d757374206e6f742062652063616c5f8201527f6c6564207468726f7567682064656c656761746563616c6c0000000000000000602082015250565b5f6121a3603883611df7565b91506121ae82612149565b604082019050919050565b5f6020820190508181035f8301526121d081612197565b9050919050565b7f4e6f7468696e67207374616b65640000000000000000000000000000000000005f82015250565b5f61220b600e83611df7565b9150612216826121d7565b602082019050919050565b5f6020820190508181035f830152612238816121ff565b9050919050565b7f416c726561647920756e6c6f636b6564000000000000000000000000000000005f82015250565b5f612273601083611df7565b915061227e8261223f565b602082019050919050565b5f6020820190508181035f8301526122a081612267565b9050919050565b7f4e487b71000000000000000000000000000000000000000000000000000000005f52601160045260245ffd5b5f6122de82611add565b91506122e983611add565b9250828201905080821115612301576123006122a7565b5b92915050565b7f5374616b65207374696c6c206c6f636b656400000000000000000000000000005f82015250565b5f61233b601283611df7565b915061234682612307565b602082019050919050565b5f6020820190508181035f8301526123688161232f565b9050919050565b7f496e697469616c697a61626c653a20636f6e747261637420697320616c7265615f8201527f647920696e697469616c697a6564000000000000000000000000000000000000602082015250565b5f6123c9602e83611df7565b91506123d48261236f565b604082019050919050565b5f6020820190508181035f8301526123f6816123bd565b9050919050565b5f819050919050565b5f60ff82169050919050565b5f61242c612427612422846123fd565b611e6d565b612406565b9050919050565b61243c81612412565b82525050565b5f6020820190506124555f830184612433565b92915050565b7f4f776e61626c653a206e6577206f776e657220697320746865207a65726f20615f8201527f6464726573730000000000000000000000000000000000000000000000000000602082015250565b5f6124b5602683611df7565b91506124c08261245b565b604082019050919050565b5f6020820190508181035f8301526124e2816124a9565b9050919050565b6124f281611d01565b81146124fc575f5ffd5b50565b5f8151905061250d816124e9565b92915050565b5f6020828403121561252857612527611a50565b5b5f612535848285016124ff565b91505092915050565b7f45524331393637557067726164653a206e657720696d706c656d656e746174695f8201527f6f6e206973206e6f742055555053000000000000000000000000000000000000602082015250565b5f612598602e83611df7565b91506125a38261253e565b604082019050919050565b5f6020820190508181035f8301526125c58161258c565b9050919050565b7f45524331393637557067726164653a20756e737570706f727465642070726f785f8201527f6961626c65555549440000000000000000000000000000000000000000000000602082015250565b5f612626602983611df7565b9150612631826125cc565b604082019050919050565b5f6020820190508181035f8301526126538161261a565b9050919050565b7f4f776e61626c653a2063616c6c6572206973206e6f7420746865206f776e65725f82015250565b5f61268e602083611df7565b91506126998261265a565b602082019050919050565b5f6020820190508181035f8301526126bb81612682565b9050919050565b7f496e76616c696420616d6f756e740000000000000000000000000000000000005f82015250565b5f6126f6600e83611df7565b9150612701826126c2565b602082019050919050565b5f6020820190508181035f830152612723816126ea565b9050919050565b7f416c7265616479207374616b65640000000000000000000000000000000000005f82015250565b5f61275e600e83611df7565b91506127698261272a565b602082019050919050565b5f6020820190508181035f83015261278b81612752565b9050919050565b7f496e76616c6964206c6f636b20706572696f64000000000000000000000000005f82015250565b5f6127c6601383611df7565b91506127d182612792565b602082019050919050565b5f6020820190508181035f8301526127f3816127ba565b9050919050565b5f60608201905061280d5f830186611d9a565b61281a6020830185611d9a565b6128276040830184611ae6565b949350505050565b7f496e697469616c697a61626c653a20636f6e7472616374206973206e6f7420695f8201527f6e697469616c697a696e67000000000000000000000000000000000000000000602082015250565b5f612889602b83611df7565b91506128948261282f565b604082019050919050565b5f6020820190508181035f8301526128b68161287d565b9050919050565b7f455243313936373a206e657720696d706c656d656e746174696f6e206973206e5f8201527f6f74206120636f6e747261637400000000000000000000000000000000000000602082015250565b5f612917602d83611df7565b9150612922826128bd565b604082019050919050565b5f6020820190508181035f8301526129448161290b565b9050919050565b5f81519050919050565b5f81905092915050565b5f6129698261294b565b6129738185612955565b9350612983818560208601611e07565b80840191505092915050565b5f61299a828461295f565b915081905092915050565b7f416464726573733a2063616c6c20746f206e6f6e2d636f6e74726163740000005f82015250565b5f6129d9601d83611df7565b91506129e4826129a5565b602082019050919050565b5f6020820190508181035f830152612a06816129cd565b905091905056fe416464726573733a206c6f772d6c6576656c2064656c65676174652063616c6c206661696c6564a2646970667358221220d7d8789eee1aefdce28997bf62a21326bac34d1a00e4e0b767881ea3e69fb04064736f6c634300081d0033","linkReferences":{}},"methodIdentifiers":{"LOCK_TIME()":"413d9c3a","SIX_MONTHS()":"ba579c74","TWELVE_MONTHS()":"7c4a485c","bvpToken()":"fd2ef43b","emergencyWithdraw(address)":"6ff1c9bc","getTier(address)":"b45aae52","initialize(address)":"c4d66de8","owner()":"8da5cb5b","proxiableUUID()":"52d1902d","renounceOwnership()":"715018a6","stake(uint256)":"a694fc3a","stake(uint256,uint256)":"7b0472f0","stakes(address)":"16934fc4","transferOwnership(address)":"f2fde38b","unlock()":"a69df4b5","unstake()":"2def6620","upgradeTo(address)":"3659cfe6","upgradeToAndCall(address,bytes)":"4f1ef286"}}}}}