{"abi":[{"type":"constructor","inputs":[{"name":"_bvpToken","type":"address","internalType":"address"},{"name":"_gatewayRouter","type":"address","internalType":"address"}],"stateMutability":"nonpayable"},{"type":"function","name":"bvpToken","inputs":[],"outputs":[{"name":"","type":"address","internalType":"contract IERC20"}],"stateMutability":"view"},{"type":"function","name":"gatewayRouter","inputs":[],"outputs":[{"name":"","type":"address","internalType":"contract IL1GatewayRouter"}],"stateMutability":"view"},{"type":"function","name":"outboundTransfer","inputs":[{"name":"token","type":"address","internalType":"address"},{"name":"to","type":"address","internalType":"address"},{"name":"amount","type":"uint256","internalType":"uint256"},{"name":"data","type":"bytes","internalType":"bytes"}],"outputs":[{"name":"","type":"bytes","internalType":"bytes"}],"stateMutability":"payable"}],"bytecode":{"object":"0x60c060405234801561000f575f5ffd5b506040516106d33803806106d383398101604081905261002e916100bf565b6001600160a01b0382161580159061004e57506001600160a01b03811615155b61008d5760405162461bcd60e51b815260206004820152600c60248201526b24b73b30b634b21030b2323960a11b604482015260640160405180910390fd5b6001600160a01b039182166080521660a0526100f0565b80516001600160a01b03811681146100ba575f5ffd5b919050565b5f5f604083850312156100d0575f5ffd5b6100d9836100a4565b91506100e7602084016100a4565b90509250929050565b60805160a0516105a26101315f395f818160480152818161020d01526102be01525f818160b80152818160de01528181610183015261023c01526105a25ff3fe608060405260043610610033575f3560e01c806303c85ea3146100375780637b3a3c8b14610087578063fd2ef43b146100a7575b5f5ffd5b348015610042575f5ffd5b5061006a7f000000000000000000000000000000000000000000000000000000000000000081565b6040516001600160a01b0390911681526020015b60405180910390f35b61009a610095366004610365565b6100da565b60405161007e91906103fa565b3480156100b2575f5ffd5b5061006a7f000000000000000000000000000000000000000000000000000000000000000081565b60607f00000000000000000000000000000000000000000000000000000000000000006001600160a01b0316866001600160a01b0316146101615760405162461bcd60e51b815260206004820152601760248201527f4c313a20746f6b656e206e6f7420737570706f72746564000000000000000000604482015260640160405180910390fd5b6040516323b872dd60e01b8152336004820152306024820152604481018590527f00000000000000000000000000000000000000000000000000000000000000006001600160a01b0316906323b872dd906064016020604051808303815f875af11580156101d1573d5f5f3e3d5ffd5b505050506040513d601f19601f820116820180604052508101906101f5919061042f565b5060405163095ea7b360e01b81526001600160a01b037f000000000000000000000000000000000000000000000000000000000000000081166004830152602482018690527f0000000000000000000000000000000000000000000000000000000000000000169063095ea7b3906044016020604051808303815f875af1158015610282573d5f5f3e3d5ffd5b505050506040513d601f19601f820116820180604052508101906102a6919061042f565b50604051637b3a3c8b60e01b81526001600160a01b037f00000000000000000000000000000000000000000000000000000000000000001690637b3a3c8b9034906102fd908a908a908a908a908a90600401610455565b5f6040518083038185885af1158015610318573d5f5f3e3d5ffd5b50505050506040513d5f823e601f3d908101601f1916820160405261034091908101906104b9565b9695505050505050565b80356001600160a01b0381168114610360575f5ffd5b919050565b5f5f5f5f5f60808688031215610379575f5ffd5b6103828661034a565b94506103906020870161034a565b935060408601359250606086013567ffffffffffffffff8111156103b2575f5ffd5b8601601f810188136103c2575f5ffd5b803567ffffffffffffffff8111156103d8575f5ffd5b8860208284010111156103e9575f5ffd5b959894975092955050506020019190565b602081525f82518060208401528060208501604085015e5f604082850101526040601f19601f83011684010191505092915050565b5f6020828403121561043f575f5ffd5b8151801515811461044e575f5ffd5b9392505050565b6001600160a01b03868116825285166020820152604081018490526080606082018190528101829052818360a08301375f81830160a090810191909152601f909201601f19160101949350505050565b634e487b7160e01b5f52604160045260245ffd5b5f602082840312156104c9575f5ffd5b815167ffffffffffffffff8111156104df575f5ffd5b8201601f810184136104ef575f5ffd5b805167ffffffffffffffff811115610509576105096104a5565b604051601f8201601f19908116603f0116810167ffffffffffffffff81118282101715610538576105386104a5565b60405281815282820160200186101561054f575f5ffd5b8160208401602083015e5f9181016020019190915294935050505056fea26469706673582212201a35ec404d6644b108345239446288932554674bfba2711e14c0205e99e03fa164736f6c634300081d0033","linkReferences":{}},"methodIdentifiers":{"bvpToken()":"fd2ef43b","gatewayRouter()":"03c85ea3","outboundTransfer(address,address,uint256,bytes)":"7b3a3c8b"},"id":2}