{"abi":[{"type":"constructor","inputs":[{"name":"publicSale_","type":"address","internalType":"address"},{"name":"operations_","type":"address","internalType":"address"},{"name":"presale_","type":"address","internalType":"address"},{"name":"foundersAndTeam_","type":"address","internalType":"address"},{"name":"marketing_","type":"address","internalType":"address"},{"name":"advisors_","type":"address","internalType":"address"},{"name":"treasury_","type":"address","internalType":"address"},{"name":"liquidity_","type":"address","internalType":"address"}],"stateMutability":"nonpayable"},{"type":"function","name":"DOMAIN_SEPARATOR","inputs":[],"outputs":[{"name":"","type":"bytes32","internalType":"bytes32"}],"stateMutability":"view"},{"type":"function","name":"allowance","inputs":[{"name":"owner","type":"address","internalType":"address"},{"name":"spender","type":"address","internalType":"address"}],"outputs":[{"name":"","type":"uint256","internalType":"uint256"}],"stateMutability":"view"},{"type":"function","name":"approve","inputs":[{"name":"spender","type":"address","internalType":"address"},{"name":"amount","type":"uint256","internalType":"uint256"}],"outputs":[{"name":"","type":"bool","internalType":"bool"}],"stateMutability":"nonpayable"},{"type":"function","name":"balanceOf","inputs":[{"name":"account","type":"address","internalType":"address"}],"outputs":[{"name":"","type":"uint256","internalType":"uint256"}],"stateMutability":"view"},{"type":"function","name":"cap","inputs":[],"outputs":[{"name":"","type":"uint256","internalType":"uint256"}],"stateMutability":"view"},{"type":"function","name":"decimals","inputs":[],"outputs":[{"name":"","type":"uint8","internalType":"uint8"}],"stateMutability":"view"},{"type":"function","name":"decreaseAllowance","inputs":[{"name":"spender","type":"address","internalType":"address"},{"name":"subtractedValue","type":"uint256","internalType":"uint256"}],"outputs":[{"name":"","type":"bool","internalType":"bool"}],"stateMutability":"nonpayable"},{"type":"function","name":"eip712Domain","inputs":[],"outputs":[{"name":"fields","type":"bytes1","internalType":"bytes1"},{"name":"name","type":"string","internalType":"string"},{"name":"version","type":"string","internalType":"string"},{"name":"chainId","type":"uint256","internalType":"uint256"},{"name":"verifyingContract","type":"address","internalType":"address"},{"name":"salt","type":"bytes32","internalType":"bytes32"},{"name":"extensions","type":"uint256[]","internalType":"uint256[]"}],"stateMutability":"view"},{"type":"function","name":"increaseAllowance","inputs":[{"name":"spender","type":"address","internalType":"address"},{"name":"addedValue","type":"uint256","internalType":"uint256"}],"outputs":[{"name":"","type":"bool","internalType":"bool"}],"stateMutability":"nonpayable"},{"type":"function","name":"isTxLimitExcluded","inputs":[{"name":"","type":"address","internalType":"address"}],"outputs":[{"name":"","type":"bool","internalType":"bool"}],"stateMutability":"view"},{"type":"function","name":"isWalletLimitExcluded","inputs":[{"name":"","type":"address","internalType":"address"}],"outputs":[{"name":"","type":"bool","internalType":"bool"}],"stateMutability":"view"},{"type":"function","name":"maxTx","inputs":[],"outputs":[{"name":"","type":"uint256","internalType":"uint256"}],"stateMutability":"view"},{"type":"function","name":"maxWallet","inputs":[],"outputs":[{"name":"","type":"uint256","internalType":"uint256"}],"stateMutability":"view"},{"type":"function","name":"name","inputs":[],"outputs":[{"name":"","type":"string","internalType":"string"}],"stateMutability":"view"},{"type":"function","name":"nonces","inputs":[{"name":"owner","type":"address","internalType":"address"}],"outputs":[{"name":"","type":"uint256","internalType":"uint256"}],"stateMutability":"view"},{"type":"function","name":"permit","inputs":[{"name":"owner","type":"address","internalType":"address"},{"name":"spender","type":"address","internalType":"address"},{"name":"value","type":"uint256","internalType":"uint256"},{"name":"deadline","type":"uint256","internalType":"uint256"},{"name":"v","type":"uint8","internalType":"uint8"},{"name":"r","type":"bytes32","internalType":"bytes32"},{"name":"s","type":"bytes32","internalType":"bytes32"}],"outputs":[],"stateMutability":"nonpayable"},{"type":"function","name":"symbol","inputs":[],"outputs":[{"name":"","type":"string","internalType":"string"}],"stateMutability":"view"},{"type":"function","name":"totalSupply","inputs":[],"outputs":[{"name":"","type":"uint256","internalType":"uint256"}],"stateMutability":"view"},{"type":"function","name":"transfer","inputs":[{"name":"to","type":"address","internalType":"address"},{"name":"amount","type":"uint256","internalType":"uint256"}],"outputs":[{"name":"","type":"bool","internalType":"bool"}],"stateMutability":"nonpayable"},{"type":"function","name":"transferFrom","inputs":[{"name":"from","type":"address","internalType":"address"},{"name":"to","type":"address","internalType":"address"},{"name":"amount","type":"uint256","internalType":"uint256"}],"outputs":[{"name":"","type":"bool","internalType":"bool"}],"stateMutability":"nonpayable"},{"type":"event","name":"Approval","inputs":[{"name":"owner","type":"address","indexed":true,"internalType":"address"},{"name":"spender","type":"address","indexed":true,"internalType":"address"},{"name":"value","type":"uint256","indexed":false,"internalType":"uint256"}],"anonymous":false},{"type":"event","name":"EIP712DomainChanged","inputs":[],"anonymous":false},{"type":"event","name":"Transfer","inputs":[{"name":"from","type":"address","indexed":true,"internalType":"address"},{"name":"to","type":"address","indexed":true,"internalType":"address"},{"name":"value","type":"uint256","indexed":false,"internalType":"uint256"}],"anonymous":false},{"type":"error","name":"InvalidShortString","inputs":[]},{"type":"error","name":"StringTooLong","inputs":[{"name":"str","type":"string","internalType":"string"}]}],"bytecode":{"object":"0x6101c06040523480156200001257600080fd5b5060405162001d5938038062001d598339810160408190526200003591620006c5565b6040518060400160405280601981526020017f42696720566973696f6e20506963747572657320546f6b656e0000000000000081525080604051806040016040528060018152602001603160f81b8152506b033b2e3c9fd0803ce80000006040518060400160405280601981526020017f42696720566973696f6e20506963747572657320546f6b656e000000000000008152506040518060400160405280600381526020016204256560ec1b8152508160039081620000f6919062000811565b50600462000105828262000811565b505050600081116200015e5760405162461bcd60e51b815260206004820152601560248201527f45524332304361707065643a206361702069732030000000000000000000000060448201526064015b60405180910390fd5b6080526200016e826005620003bb565b610140526200017f816006620003bb565b61016052815160208084019190912061010052815190820120610120524660c0526200020f6101005161012051604080517f8b73c3c69bb8fe3d512ecc4cf759cc79239f7b179b0ffacaa9a75d522b39400f60208201529081019290925260608201524660808201523060a082015260009060c00160405160208183030381529060405280519060200120905090565b60a05250503060e052506a084595161401484a000000610180526a108b2a2c280290940000006101a052620002698860646200024a60805190565b6200025790601e620008f3565b6200026391906200090d565b620003f4565b620002878760646200027a60805190565b62000257906014620008f3565b620002a58660646200029860805190565b6200025790600a620008f3565b620002b68560646200029860805190565b620002d4846064620002c760805190565b6200025790600f620008f3565b620002f2836064620002e560805190565b62000257906005620008f3565b62000303826064620002e560805190565b62000314816064620002e560805190565b6001600160a01b0397881660008181526009602090815260408083208054600160ff1991821681179092559b8d1680855282852080548e1683179055968d1680855282852080548e168317905595909c1680845281842080548d168e179055938352600a90915280822080548b168c17905593815283812080548a168b179055918252828220805489168a179055815220805490951690951790935550620009bb92505050565b6000602083511015620003db57620003d38362000404565b9050620003ee565b81620003e8848262000811565b5060ff90505b92915050565b62000400828262000447565b5050565b600080829050601f8151111562000432578260405163305a27a960e01b815260040162000155919062000930565b80516200043f8262000980565b179392505050565b608051816200045560025490565b620004619190620009a5565b1115620004b15760405162461bcd60e51b815260206004820152601960248201527f45524332304361707065643a2063617020657863656564656400000000000000604482015260640162000155565b6200040082826001600160a01b0382166200050f5760405162461bcd60e51b815260206004820152601f60248201527f45524332303a206d696e7420746f20746865207a65726f206164647265737300604482015260640162000155565b6200051d6000838362000588565b8060026000828254620005319190620009a5565b90915550506001600160a01b038216600081815260208181526040808320805486019055518481527fddf252ad1be2c89b69c2b068fc378daa952ba7f163c4a11628f55a4df523b3ef910160405180910390a35050565b6001600160a01b0383161580620005a657506001600160a01b038216155b15620005b157505050565b6001600160a01b03831660009081526009602052604090205460ff16620006125761018051811115620006125760405162461bcd60e51b8152602060048201526008602482015267151617d31253525560c21b604482015260640162000155565b6001600160a01b0382166000908152600a602052604090205460ff16620006a3576101a0518162000658846001600160a01b031660009081526020819052604090205490565b620006649190620009a5565b1115620006a35760405162461bcd60e51b815260206004820152600c60248201526b15d05313115517d31253525560a21b604482015260640162000155565b505050565b80516001600160a01b0381168114620006c057600080fd5b919050565b600080600080600080600080610100898b031215620006e357600080fd5b620006ee89620006a8565b9750620006fe60208a01620006a8565b96506200070e60408a01620006a8565b95506200071e60608a01620006a8565b94506200072e60808a01620006a8565b93506200073e60a08a01620006a8565b92506200074e60c08a01620006a8565b91506200075e60e08a01620006a8565b90509295985092959890939650565b634e487b7160e01b600052604160045260246000fd5b600181811c908216806200079857607f821691505b602082108103620007b957634e487b7160e01b600052602260045260246000fd5b50919050565b601f821115620006a357600081815260208120601f850160051c81016020861015620007e85750805b601f850160051c820191505b818110156200080957828155600101620007f4565b505050505050565b81516001600160401b038111156200082d576200082d6200076d565b62000845816200083e845462000783565b84620007bf565b602080601f8311600181146200087d5760008415620008645750858301515b600019600386901b1c1916600185901b17855562000809565b600085815260208120601f198616915b82811015620008ae578886015182559484019460019091019084016200088d565b5085821015620008cd5787850151600019600388901b60f8161c191681555b5050505050600190811b01905550565b634e487b7160e01b600052601160045260246000fd5b8082028115828204841417620003ee57620003ee620008dd565b6000826200092b57634e487b7160e01b600052601260045260246000fd5b500490565b600060208083528351808285015260005b818110156200095f5785810183015185820160400152820162000941565b506000604082860101526040601f19601f8301168501019250505092915050565b80516020808301519190811015620007b95760001960209190910360031b1b16919050565b80820180821115620003ee57620003ee620008dd565b60805160a05160c05160e05161010051610120516101405161016051610180516101a05161131462000a45600039600081816103060152610d600152600081816102150152610ce5015260006104800152600061045501526000610b2301526000610afb01526000610a5601526000610a8001526000610aaa015260006101a801526113146000f3fe608060405234801561001057600080fd5b506004361061012c5760003560e01c80637ecebe00116100ad578063a9059cbb11610071578063a9059cbb146102a3578063b7470a2f146102b6578063d505accf146102d9578063dd62ed3e146102ee578063f8b45b051461030157600080fd5b80637ecebe00146102375780637f523f791461024a57806384b0196e1461026d57806395d89b4114610288578063a457c2d71461029057600080fd5b8063355274ea116100f4578063355274ea146101a65780633644e515146101cc57806339509351146101d457806370a08231146101e75780637437681e1461021057600080fd5b806306fdde0314610131578063095ea7b31461014f57806318160ddd1461017257806323b872dd14610184578063313ce56714610197575b600080fd5b610139610328565b60405161014691906110a9565b60405180910390f35b61016261015d3660046110df565b6103ba565b6040519015158152602001610146565b6002545b604051908152602001610146565b610162610192366004611109565b6103d4565b60405160128152602001610146565b7f0000000000000000000000000000000000000000000000000000000000000000610176565b6101766103f8565b6101626101e23660046110df565b610407565b6101766101f5366004611145565b6001600160a01b031660009081526020819052604090205490565b6101767f000000000000000000000000000000000000000000000000000000000000000081565b610176610245366004611145565b610429565b610162610258366004611145565b60096020526000908152604090205460ff1681565b610275610447565b6040516101469796959493929190611160565b6101396104d0565b61016261029e3660046110df565b6104df565b6101626102b13660046110df565b61055f565b6101626102c4366004611145565b600a6020526000908152604090205460ff1681565b6102ec6102e73660046111f6565b61056d565b005b6101766102fc366004611269565b6106d1565b6101767f000000000000000000000000000000000000000000000000000000000000000081565b6060600380546103379061129c565b80601f01602080910402602001604051908101604052809291908181526020018280546103639061129c565b80156103b05780601f10610385576101008083540402835291602001916103b0565b820191906000526020600020905b81548152906001019060200180831161039357829003601f168201915b5050505050905090565b6000336103c88185856106fc565b60019150505b92915050565b6000336103e2858285610820565b6103ed85858561089a565b506001949350505050565b6000610402610a49565b905090565b6000336103c881858561041a83836106d1565b61042491906112d0565b6106fc565b6001600160a01b0381166000908152600760205260408120546103ce565b60006060808280808361047b7f00000000000000000000000000000000000000000000000000000000000000006005610b74565b6104a67f00000000000000000000000000000000000000000000000000000000000000006006610b74565b60408051600080825260208201909252600f60f81b9b939a50919850469750309650945092509050565b6060600480546103379061129c565b600033816104ed82866106d1565b9050838110156105525760405162461bcd60e51b815260206004820152602560248201527f45524332303a2064656372656173656420616c6c6f77616e63652062656c6f77604482015264207a65726f60d81b60648201526084015b60405180910390fd5b6103ed82868684036106fc565b6000336103c881858561089a565b834211156105bd5760405162461bcd60e51b815260206004820152601d60248201527f45524332305065726d69743a206578706972656420646561646c696e650000006044820152606401610549565b60007f6e71edae12b1b97f4d1f60370fef10105fa2faae0126114a169c64845d6126c98888886105ec8c610c1f565b6040805160208101969096526001600160a01b0394851690860152929091166060840152608083015260a082015260c0810186905260e001604051602081830303815290604052805190602001209050600061064782610c47565b9050600061065782878787610c74565b9050896001600160a01b0316816001600160a01b0316146106ba5760405162461bcd60e51b815260206004820152601e60248201527f45524332305065726d69743a20696e76616c6964207369676e617475726500006044820152606401610549565b6106c58a8a8a6106fc565b50505050505050505050565b6001600160a01b03918216600090815260016020908152604080832093909416825291909152205490565b6001600160a01b03831661075e5760405162461bcd60e51b8152602060048201526024808201527f45524332303a20617070726f76652066726f6d20746865207a65726f206164646044820152637265737360e01b6064820152608401610549565b6001600160a01b0382166107bf5760405162461bcd60e51b815260206004820152602260248201527f45524332303a20617070726f766520746f20746865207a65726f206164647265604482015261737360f01b6064820152608401610549565b6001600160a01b0383811660008181526001602090815260408083209487168084529482529182902085905590518481527f8c5be1e5ebec7d5bd14f71427d1e84f3dd0314c0f7b2291e5b200ac8c7c3b925910160405180910390a3505050565b600061082c84846106d1565b9050600019811461089457818110156108875760405162461bcd60e51b815260206004820152601d60248201527f45524332303a20696e73756666696369656e7420616c6c6f77616e63650000006044820152606401610549565b61089484848484036106fc565b50505050565b6001600160a01b0383166108fe5760405162461bcd60e51b815260206004820152602560248201527f45524332303a207472616e736665722066726f6d20746865207a65726f206164604482015264647265737360d81b6064820152608401610549565b6001600160a01b0382166109605760405162461bcd60e51b815260206004820152602360248201527f45524332303a207472616e7366657220746f20746865207a65726f206164647260448201526265737360e81b6064820152608401610549565b61096b838383610c9c565b6001600160a01b038316600090815260208190526040902054818110156109e35760405162461bcd60e51b815260206004820152602660248201527f45524332303a207472616e7366657220616d6f756e7420657863656564732062604482015265616c616e636560d01b6064820152608401610549565b6001600160a01b03848116600081815260208181526040808320878703905593871680835291849020805487019055925185815290927fddf252ad1be2c89b69c2b068fc378daa952ba7f163c4a11628f55a4df523b3ef910160405180910390a3610894565b6000306001600160a01b037f000000000000000000000000000000000000000000000000000000000000000016148015610aa257507f000000000000000000000000000000000000000000000000000000000000000046145b15610acc57507f000000000000000000000000000000000000000000000000000000000000000090565b610402604080517f8b73c3c69bb8fe3d512ecc4cf759cc79239f7b179b0ffacaa9a75d522b39400f60208201527f0000000000000000000000000000000000000000000000000000000000000000918101919091527f000000000000000000000000000000000000000000000000000000000000000060608201524660808201523060a082015260009060c00160405160208183030381529060405280519060200120905090565b606060ff8314610b8e57610b8783610deb565b90506103ce565b818054610b9a9061129c565b80601f0160208091040260200160405190810160405280929190818152602001828054610bc69061129c565b8015610c135780601f10610be857610100808354040283529160200191610c13565b820191906000526020600020905b815481529060010190602001808311610bf657829003601f168201915b505050505090506103ce565b6001600160a01b03811660009081526007602052604090208054600181018255905b50919050565b60006103ce610c54610a49565b8360405161190160f01b8152600281019290925260228201526042902090565b6000806000610c8587878787610e2a565b91509150610c9281610eee565b5095945050505050565b6001600160a01b0383161580610cb957506001600160a01b038216155b15610cc357505050565b6001600160a01b03831660009081526009602052604090205460ff16610d3e577f0000000000000000000000000000000000000000000000000000000000000000811115610d3e5760405162461bcd60e51b8152602060048201526008602482015267151617d31253525560c21b6044820152606401610549565b6001600160a01b0382166000908152600a602052604090205460ff16610de6577f000000000000000000000000000000000000000000000000000000000000000081610d9f846001600160a01b031660009081526020819052604090205490565b610da991906112d0565b1115610de65760405162461bcd60e51b815260206004820152600c60248201526b15d05313115517d31253525560a21b6044820152606401610549565b505050565b60606000610df88361103b565b604080516020808252818301909252919250600091906020820181803683375050509182525060208101929092525090565b6000807f7fffffffffffffffffffffffffffffff5d576e7357a4501ddfe92f46681b20a0831115610e615750600090506003610ee5565b6040805160008082526020820180845289905260ff881692820192909252606081018690526080810185905260019060a0016020604051602081039080840390855afa158015610eb5573d6000803e3d6000fd5b5050604051601f1901519150506001600160a01b038116610ede57600060019250925050610ee5565b9150600090505b94509492505050565b6000816004811115610f0257610f026112f1565b03610f0a5750565b6001816004811115610f1e57610f1e6112f1565b03610f6b5760405162461bcd60e51b815260206004820152601860248201527f45434453413a20696e76616c6964207369676e617475726500000000000000006044820152606401610549565b6002816004811115610f7f57610f7f6112f1565b03610fcc5760405162461bcd60e51b815260206004820152601f60248201527f45434453413a20696e76616c6964207369676e6174757265206c656e677468006044820152606401610549565b6003816004811115610fe057610fe06112f1565b036110385760405162461bcd60e51b815260206004820152602260248201527f45434453413a20696e76616c6964207369676e6174757265202773272076616c604482015261756560f01b6064820152608401610549565b50565b600060ff8216601f8111156103ce57604051632cd44ac360e21b815260040160405180910390fd5b6000815180845260005b818110156110895760208185018101518683018201520161106d565b506000602082860101526020601f19601f83011685010191505092915050565b6020815260006110bc6020830184611063565b9392505050565b80356001600160a01b03811681146110da57600080fd5b919050565b600080604083850312156110f257600080fd5b6110fb836110c3565b946020939093013593505050565b60008060006060848603121561111e57600080fd5b611127846110c3565b9250611135602085016110c3565b9150604084013590509250925092565b60006020828403121561115757600080fd5b6110bc826110c3565b60ff60f81b881681526000602060e08184015261118060e084018a611063565b8381036040850152611192818a611063565b606085018990526001600160a01b038816608086015260a0850187905284810360c0860152855180825283870192509083019060005b818110156111e4578351835292840192918401916001016111c8565b50909c9b505050505050505050505050565b600080600080600080600060e0888a03121561121157600080fd5b61121a886110c3565b9650611228602089016110c3565b95506040880135945060608801359350608088013560ff8116811461124c57600080fd5b9699959850939692959460a0840135945060c09093013592915050565b6000806040838503121561127c57600080fd5b611285836110c3565b9150611293602084016110c3565b90509250929050565b600181811c908216806112b057607f821691505b602082108103610c4157634e487b7160e01b600052602260045260246000fd5b808201808211156103ce57634e487b7160e01b600052601160045260246000fd5b634e487b7160e01b600052602160045260246000fdfea164736f6c6343000813000a","linkReferences":{}},"methodIdentifiers":{"DOMAIN_SEPARATOR()":"3644e515","allowance(address,address)":"dd62ed3e","approve(address,uint256)":"095ea7b3","balanceOf(address)":"70a08231","cap()":"355274ea","decimals()":"313ce567","decreaseAllowance(address,uint256)":"a457c2d7","eip712Domain()":"84b0196e","increaseAllowance(address,uint256)":"39509351","isTxLimitExcluded(address)":"7f523f79","isWalletLimitExcluded(address)":"b7470a2f","maxTx()":"7437681e","maxWallet()":"f8b45b05","name()":"06fdde03","nonces(address)":"7ecebe00","permit(address,address,uint256,uint256,uint8,bytes32,bytes32)":"d505accf","symbol()":"95d89b41","totalSupply()":"18160ddd","transfer(address,uint256)":"a9059cbb","transferFrom(address,address,uint256)":"23b872dd"},"id":1}