{"abi":[{"type":"constructor","inputs":[{"name":"_treasury","type":"address","internalType":"address"}],"stateMutability":"nonpayable"},{"type":"function","name":"MAX_SUPPLY","inputs":[],"outputs":[{"name":"","type":"uint256","internalType":"uint256"}],"stateMutability":"view"},{"type":"function","name":"allowance","inputs":[{"name":"owner","type":"address","internalType":"address"},{"name":"spender","type":"address","internalType":"address"}],"outputs":[{"name":"","type":"uint256","internalType":"uint256"}],"stateMutability":"view"},{"type":"function","name":"approve","inputs":[{"name":"spender","type":"address","internalType":"address"},{"name":"value","type":"uint256","internalType":"uint256"}],"outputs":[{"name":"","type":"bool","internalType":"bool"}],"stateMutability":"nonpayable"},{"type":"function","name":"automatedMarketMakerPairs","inputs":[{"name":"","type":"address","internalType":"address"}],"outputs":[{"name":"","type":"bool","internalType":"bool"}],"stateMutability":"view"},{"type":"function","name":"balanceOf","inputs":[{"name":"account","type":"address","internalType":"address"}],"outputs":[{"name":"","type":"uint256","internalType":"uint256"}],"stateMutability":"view"},{"type":"function","name":"buyTax","inputs":[],"outputs":[{"name":"","type":"uint256","internalType":"uint256"}],"stateMutability":"view"},{"type":"function","name":"decimals","inputs":[],"outputs":[{"name":"","type":"uint8","internalType":"uint8"}],"stateMutability":"view"},{"type":"function","name":"isTaxExempt","inputs":[{"name":"","type":"address","internalType":"address"}],"outputs":[{"name":"","type":"bool","internalType":"bool"}],"stateMutability":"view"},{"type":"function","name":"name","inputs":[],"outputs":[{"name":"","type":"string","internalType":"string"}],"stateMutability":"view"},{"type":"function","name":"owner","inputs":[],"outputs":[{"name":"","type":"address","internalType":"address"}],"stateMutability":"view"},{"type":"function","name":"renounceOwnership","inputs":[],"outputs":[],"stateMutability":"nonpayable"},{"type":"function","name":"sellTax","inputs":[],"outputs":[{"name":"","type":"uint256","internalType":"uint256"}],"stateMutability":"view"},{"type":"function","name":"setAMMPair","inputs":[{"name":"pair","type":"address","internalType":"address"},{"name":"isPair","type":"bool","internalType":"bool"}],"outputs":[],"stateMutability":"nonpayable"},{"type":"function","name":"setBuyTax","inputs":[{"name":"newBuyTax","type":"uint256","internalType":"uint256"}],"outputs":[],"stateMutability":"nonpayable"},{"type":"function","name":"setSellTax","inputs":[{"name":"newSellTax","type":"uint256","internalType":"uint256"}],"outputs":[],"stateMutability":"nonpayable"},{"type":"function","name":"setTaxExempt","inputs":[{"name":"account","type":"address","internalType":"address"},{"name":"exempt","type":"bool","internalType":"bool"}],"outputs":[],"stateMutability":"nonpayable"},{"type":"function","name":"setTreasury","inputs":[{"name":"newTreasury","type":"address","internalType":"address"}],"outputs":[],"stateMutability":"nonpayable"},{"type":"function","name":"symbol","inputs":[],"outputs":[{"name":"","type":"string","internalType":"string"}],"stateMutability":"view"},{"type":"function","name":"totalSupply","inputs":[],"outputs":[{"name":"","type":"uint256","internalType":"uint256"}],"stateMutability":"view"},{"type":"function","name":"transfer","inputs":[{"name":"to","type":"address","internalType":"address"},{"name":"value","type":"uint256","internalType":"uint256"}],"outputs":[{"name":"","type":"bool","internalType":"bool"}],"stateMutability":"nonpayable"},{"type":"function","name":"transferFrom","inputs":[{"name":"from","type":"address","internalType":"address"},{"name":"to","type":"address","internalType":"address"},{"name":"value","type":"uint256","internalType":"uint256"}],"outputs":[{"name":"","type":"bool","internalType":"bool"}],"stateMutability":"nonpayable"},{"type":"function","name":"transferOwnership","inputs":[{"name":"newOwner","type":"address","internalType":"address"}],"outputs":[],"stateMutability":"nonpayable"},{"type":"function","name":"treasury","inputs":[],"outputs":[{"name":"","type":"address","internalType":"address"}],"stateMutability":"view"},{"type":"event","name":"Approval","inputs":[{"name":"owner","type":"address","indexed":true,"internalType":"address"},{"name":"spender","type":"address","indexed":true,"internalType":"address"},{"name":"value","type":"uint256","indexed":false,"internalType":"uint256"}],"anonymous":false},{"type":"event","name":"OwnershipTransferred","inputs":[{"name":"previousOwner","type":"address","indexed":true,"internalType":"address"},{"name":"newOwner","type":"address","indexed":true,"internalType":"address"}],"anonymous":false},{"type":"event","name":"Transfer","inputs":[{"name":"from","type":"address","indexed":true,"internalType":"address"},{"name":"to","type":"address","indexed":true,"internalType":"address"},{"name":"value","type":"uint256","indexed":false,"internalType":"uint256"}],"anonymous":false},{"type":"error","name":"ERC20InsufficientAllowance","inputs":[{"name":"spender","type":"address","internalType":"address"},{"name":"allowance","type":"uint256","internalType":"uint256"},{"name":"needed","type":"uint256","internalType":"uint256"}]},{"type":"error","name":"ERC20InsufficientBalance","inputs":[{"name":"sender","type":"address","internalType":"address"},{"name":"balance","type":"uint256","internalType":"uint256"},{"name":"needed","type":"uint256","internalType":"uint256"}]},{"type":"error","name":"ERC20InvalidApprover","inputs":[{"name":"approver","type":"address","internalType":"address"}]},{"type":"error","name":"ERC20InvalidReceiver","inputs":[{"name":"receiver","type":"address","internalType":"address"}]},{"type":"error","name":"ERC20InvalidSender","inputs":[{"name":"sender","type":"address","internalType":"address"}]},{"type":"error","name":"ERC20InvalidSpender","inputs":[{"name":"spender","type":"address","internalType":"address"}]},{"type":"error","name":"OwnableInvalidOwner","inputs":[{"name":"owner","type":"address","internalType":"address"}]},{"type":"error","name":"OwnableUnauthorizedAccount","inputs":[{"name":"account","type":"address","internalType":"address"}]}],"bytecode":{"object":"0x6080604052600a600655600f600755348015610019575f5ffd5b50604051612181380380612181833981810160405281019061003b91906105c0565b336040518060400160405280601981526020017f42696720566973696f6e20506963747572657320546f6b656e000000000000008152506040518060400160405280600381526020017f425650000000000000000000000000000000000000000000000000000000000081525081600390816100b79190610828565b5080600490816100c79190610828565b5050505f73ffffffffffffffffffffffffffffffffffffffff168173ffffffffffffffffffffffffffffffffffffffff160361013a575f6040517f1e4fbdf70000000000000000000000000000000000000000000000000000000081526004016101319190610906565b60405180910390fd5b6101498161020160201b60201c565b50610166336b033b2e3c9fd0803ce80000006102c460201b60201c565b8060085f6101000a81548173ffffffffffffffffffffffffffffffffffffffff021916908373ffffffffffffffffffffffffffffffffffffffff160217905550600160095f3373ffffffffffffffffffffffffffffffffffffffff1673ffffffffffffffffffffffffffffffffffffffff1681526020019081526020015f205f6101000a81548160ff021916908315150217905550506109dc565b5f60055f9054906101000a900473ffffffffffffffffffffffffffffffffffffffff1690508160055f6101000a81548173ffffffffffffffffffffffffffffffffffffffff021916908373ffffffffffffffffffffffffffffffffffffffff1602179055508173ffffffffffffffffffffffffffffffffffffffff168173ffffffffffffffffffffffffffffffffffffffff167f8be0079c531659141344cd1fd0a4f28419497f9722a3daafe3b4186f6b6457e060405160405180910390a35050565b5f73ffffffffffffffffffffffffffffffffffffffff168273ffffffffffffffffffffffffffffffffffffffff1603610334575f6040517fec442f0500000000000000000000000000000000000000000000000000000000815260040161032b9190610906565b60405180910390fd5b6103455f838361034960201b60201c565b5050565b5f73ffffffffffffffffffffffffffffffffffffffff168373ffffffffffffffffffffffffffffffffffffffff1603610399578060025f82825461038d919061094c565b92505081905550610467565b5f5f5f8573ffffffffffffffffffffffffffffffffffffffff1673ffffffffffffffffffffffffffffffffffffffff1681526020019081526020015f2054905081811015610422578381836040517fe450d38c0000000000000000000000000000000000000000000000000000000081526004016104199392919061098e565b60405180910390fd5b8181035f5f8673ffffffffffffffffffffffffffffffffffffffff1673ffffffffffffffffffffffffffffffffffffffff1681526020019081526020015f2081905550505b5f73ffffffffffffffffffffffffffffffffffffffff168273ffffffffffffffffffffffffffffffffffffffff16036104ae578060025f82825403925050819055506104f8565b805f5f8473ffffffffffffffffffffffffffffffffffffffff1673ffffffffffffffffffffffffffffffffffffffff1681526020019081526020015f205f82825401925050819055505b8173ffffffffffffffffffffffffffffffffffffffff168373ffffffffffffffffffffffffffffffffffffffff167fddf252ad1be2c89b69c2b068fc378daa952ba7f163c4a11628f55a4df523b3ef8360405161055591906109c3565b60405180910390a3505050565b5f5ffd5b5f73ffffffffffffffffffffffffffffffffffffffff82169050919050565b5f61058f82610566565b9050919050565b61059f81610585565b81146105a9575f5ffd5b50565b5f815190506105ba81610596565b92915050565b5f602082840312156105d5576105d4610562565b5b5f6105e2848285016105ac565b91505092915050565b5f81519050919050565b7f4e487b71000000000000000000000000000000000000000000000000000000005f52604160045260245ffd5b7f4e487b71000000000000000000000000000000000000000000000000000000005f52602260045260245ffd5b5f600282049050600182168061066657607f821691505b60208210810361067957610678610622565b5b50919050565b5f819050815f5260205f209050919050565b5f6020601f8301049050919050565b5f82821b905092915050565b5f600883026106db7fffffffffffffffffffffffffffffffffffffffffffffffffffffffffffffffff826106a0565b6106e586836106a0565b95508019841693508086168417925050509392505050565b5f819050919050565b5f819050919050565b5f61072961072461071f846106fd565b610706565b6106fd565b9050919050565b5f819050919050565b6107428361070f565b61075661074e82610730565b8484546106ac565b825550505050565b5f5f905090565b61076d61075e565b610778818484610739565b505050565b5b8181101561079b576107905f82610765565b60018101905061077e565b5050565b601f8211156107e0576107b18161067f565b6107ba84610691565b810160208510156107c9578190505b6107dd6107d585610691565b83018261077d565b50505b505050565b5f82821c905092915050565b5f6108005f19846008026107e5565b1980831691505092915050565b5f61081883836107f1565b9150826002028217905092915050565b610831826105eb565b67ffffffffffffffff81111561084a576108496105f5565b5b610854825461064f565b61085f82828561079f565b5f60209050601f831160018114610890575f841561087e578287015190505b610888858261080d565b8655506108ef565b601f19841661089e8661067f565b5f5b828110156108c5578489015182556001820191506020850194506020810190506108a0565b868310156108e257848901516108de601f8916826107f1565b8355505b6001600288020188555050505b505050505050565b61090081610585565b82525050565b5f6020820190506109195f8301846108f7565b92915050565b7f4e487b71000000000000000000000000000000000000000000000000000000005f52601160045260245ffd5b5f610956826106fd565b9150610961836106fd565b92508282019050808211156109795761097861091f565b5b92915050565b610988816106fd565b82525050565b5f6060820190506109a15f8301866108f7565b6109ae602083018561097f565b6109bb604083018461097f565b949350505050565b5f6020820190506109d65f83018461097f565b92915050565b611798806109e95f395ff3fe608060405234801561000f575f5ffd5b506004361061014b575f3560e01c806370a08231116100c1578063b62496f51161007a578063b62496f51461038d578063cc1776d3146103bd578063dc1052e2146103db578063dd62ed3e146103f7578063f0f4426014610427578063f2fde38b146104435761014b565b806370a08231146102cb578063715018a6146102fb5780638cd09d50146103055780638da5cb5b1461032157806395d89b411461033f578063a9059cbb1461035d5761014b565b806323b872dd1161011357806323b872dd146102075780632d99d32e14610237578063313ce5671461025357806332cb6b0c146102715780634f7041a51461028f57806361d027b3146102ad5761014b565b806306fdde031461014f578063095ea7b31461016d57806316c2be6b1461019d57806318160ddd146101cd5780631dc61040146101eb575b5f5ffd5b61015761045f565b60405161016491906112ad565b60405180910390f35b6101876004803603810190610182919061135e565b6104ef565b60405161019491906113b6565b60405180910390f35b6101b760048036038101906101b291906113cf565b610511565b6040516101c491906113b6565b60405180910390f35b6101d561052e565b6040516101e29190611409565b60405180910390f35b6102056004803603810190610200919061144c565b610537565b005b610221600480360381019061021c919061148a565b610597565b60405161022e91906113b6565b60405180910390f35b610251600480360381019061024c919061144c565b6105c5565b005b61025b610625565b60405161026891906114f5565b60405180910390f35b61027961062d565b6040516102869190611409565b60405180910390f35b61029761063d565b6040516102a49190611409565b60405180910390f35b6102b5610643565b6040516102c2919061151d565b60405180910390f35b6102e560048036038101906102e091906113cf565b610668565b6040516102f29190611409565b60405180910390f35b6103036106ad565b005b61031f600480360381019061031a9190611536565b6106c0565b005b6103296106d2565b604051610336919061151d565b60405180910390f35b6103476106fa565b60405161035491906112ad565b60405180910390f35b6103776004803603810190610372919061135e565b61078a565b60405161038491906113b6565b60405180910390f35b6103a760048036038101906103a291906113cf565b6107ac565b6040516103b491906113b6565b60405180910390f35b6103c56107c9565b6040516103d29190611409565b60405180910390f35b6103f560048036038101906103f09190611536565b6107cf565b005b610411600480360381019061040c9190611561565b6107e1565b60405161041e9190611409565b60405180910390f35b610441600480360381019061043c91906113cf565b610863565b005b61045d600480360381019061045891906113cf565b6108ae565b005b60606003805461046e906115cc565b80601f016020809104026020016040519081016040528092919081815260200182805461049a906115cc565b80156104e55780601f106104bc576101008083540402835291602001916104e5565b820191905f5260205f20905b8154815290600101906020018083116104c857829003601f168201915b5050505050905090565b5f5f6104f9610932565b9050610506818585610939565b600191505092915050565b6009602052805f5260405f205f915054906101000a900460ff1681565b5f600254905090565b61053f61094b565b8060095f8473ffffffffffffffffffffffffffffffffffffffff1673ffffffffffffffffffffffffffffffffffffffff1681526020019081526020015f205f6101000a81548160ff0219169083151502179055505050565b5f5f6105a1610932565b90506105ae8582856109d2565b6105b9858585610a65565b60019150509392505050565b6105cd61094b565b80600a5f8473ffffffffffffffffffffffffffffffffffffffff1673ffffffffffffffffffffffffffffffffffffffff1681526020019081526020015f205f6101000a81548160ff0219169083151502179055505050565b5f6012905090565b6b033b2e3c9fd0803ce800000081565b60065481565b60085f9054906101000a900473ffffffffffffffffffffffffffffffffffffffff1681565b5f5f5f8373ffffffffffffffffffffffffffffffffffffffff1673ffffffffffffffffffffffffffffffffffffffff1681526020019081526020015f20549050919050565b6106b561094b565b6106be5f610ca2565b565b6106c861094b565b8060078190555050565b5f60055f9054906101000a900473ffffffffffffffffffffffffffffffffffffffff16905090565b606060048054610709906115cc565b80601f0160208091040260200160405190810160405280929190818152602001828054610735906115cc565b80156107805780601f1061075757610100808354040283529160200191610780565b820191905f5260205f20905b81548152906001019060200180831161076357829003601f168201915b5050505050905090565b5f5f610794610932565b90506107a1818585610a65565b600191505092915050565b600a602052805f5260405f205f915054906101000a900460ff1681565b60075481565b6107d761094b565b8060068190555050565b5f60015f8473ffffffffffffffffffffffffffffffffffffffff1673ffffffffffffffffffffffffffffffffffffffff1681526020019081526020015f205f8373ffffffffffffffffffffffffffffffffffffffff1673ffffffffffffffffffffffffffffffffffffffff1681526020019081526020015f2054905092915050565b61086b61094b565b8060085f6101000a81548173ffffffffffffffffffffffffffffffffffffffff021916908373ffffffffffffffffffffffffffffffffffffffff16021790555050565b6108b661094b565b5f73ffffffffffffffffffffffffffffffffffffffff168173ffffffffffffffffffffffffffffffffffffffff1603610926575f6040517f1e4fbdf700000000000000000000000000000000000000000000000000000000815260040161091d919061151d565b60405180910390fd5b61092f81610ca2565b50565b5f33905090565b6109468383836001610d65565b505050565b610953610932565b73ffffffffffffffffffffffffffffffffffffffff166109716106d2565b73ffffffffffffffffffffffffffffffffffffffff16146109d057610994610932565b6040517f118cdaa70000000000000000000000000000000000000000000000000000000081526004016109c7919061151d565b60405180910390fd5b565b5f6109dd84846107e1565b90507fffffffffffffffffffffffffffffffffffffffffffffffffffffffffffffffff811015610a5f5781811015610a50578281836040517ffb8f41b2000000000000000000000000000000000000000000000000000000008152600401610a47939291906115fc565b60405180910390fd5b610a5e84848484035f610d65565b5b50505050565b60095f8473ffffffffffffffffffffffffffffffffffffffff1673ffffffffffffffffffffffffffffffffffffffff1681526020019081526020015f205f9054906101000a900460ff1680610b00575060095f8373ffffffffffffffffffffffffffffffffffffffff1673ffffffffffffffffffffffffffffffffffffffff1681526020019081526020015f205f9054906101000a900460ff165b80610b5757505f73ffffffffffffffffffffffffffffffffffffffff1660085f9054906101000a900473ffffffffffffffffffffffffffffffffffffffff1673ffffffffffffffffffffffffffffffffffffffff16145b15610b6c57610b67838383610f34565b610c9d565b5f5f9050600a5f8573ffffffffffffffffffffffffffffffffffffffff1673ffffffffffffffffffffffffffffffffffffffff1681526020019081526020015f205f9054906101000a900460ff1615610be057606460065483610bcf919061165e565b610bd991906116cc565b9050610c4d565b600a5f8473ffffffffffffffffffffffffffffffffffffffff1673ffffffffffffffffffffffffffffffffffffffff1681526020019081526020015f205f9054906101000a900460ff1615610c4c57606460075483610c3f919061165e565b610c4991906116cc565b90505b5b5f811115610c9057610c818460085f9054906101000a900473ffffffffffffffffffffffffffffffffffffffff1683610f34565b8082610c8d91906116fc565b91505b610c9b848484610f34565b505b505050565b5f60055f9054906101000a900473ffffffffffffffffffffffffffffffffffffffff1690508160055f6101000a81548173ffffffffffffffffffffffffffffffffffffffff021916908373ffffffffffffffffffffffffffffffffffffffff1602179055508173ffffffffffffffffffffffffffffffffffffffff168173ffffffffffffffffffffffffffffffffffffffff167f8be0079c531659141344cd1fd0a4f28419497f9722a3daafe3b4186f6b6457e060405160405180910390a35050565b5f73ffffffffffffffffffffffffffffffffffffffff168473ffffffffffffffffffffffffffffffffffffffff1603610dd5575f6040517fe602df05000000000000000000000000000000000000000000000000000000008152600401610dcc919061151d565b60405180910390fd5b5f73ffffffffffffffffffffffffffffffffffffffff168373ffffffffffffffffffffffffffffffffffffffff1603610e45575f6040517f94280d62000000000000000000000000000000000000000000000000000000008152600401610e3c919061151d565b60405180910390fd5b8160015f8673ffffffffffffffffffffffffffffffffffffffff1673ffffffffffffffffffffffffffffffffffffffff1681526020019081526020015f205f8573ffffffffffffffffffffffffffffffffffffffff1673ffffffffffffffffffffffffffffffffffffffff1681526020019081526020015f20819055508015610f2e578273ffffffffffffffffffffffffffffffffffffffff168473ffffffffffffffffffffffffffffffffffffffff167f8c5be1e5ebec7d5bd14f71427d1e84f3dd0314c0f7b2291e5b200ac8c7c3b92584604051610f259190611409565b60405180910390a35b50505050565b5f73ffffffffffffffffffffffffffffffffffffffff168373ffffffffffffffffffffffffffffffffffffffff1603610fa4575f6040517f96c6fd1e000000000000000000000000000000000000000000000000000000008152600401610f9b919061151d565b60405180910390fd5b5f73ffffffffffffffffffffffffffffffffffffffff168273ffffffffffffffffffffffffffffffffffffffff1603611014575f6040517fec442f0500000000000000000000000000000000000000000000000000000000815260040161100b919061151d565b60405180910390fd5b61101f838383611024565b505050565b5f73ffffffffffffffffffffffffffffffffffffffff168373ffffffffffffffffffffffffffffffffffffffff1603611074578060025f828254611068919061172f565b92505081905550611142565b5f5f5f8573ffffffffffffffffffffffffffffffffffffffff1673ffffffffffffffffffffffffffffffffffffffff1681526020019081526020015f20549050818110156110fd578381836040517fe450d38c0000000000000000000000000000000000000000000000000000000081526004016110f4939291906115fc565b60405180910390fd5b8181035f5f8673ffffffffffffffffffffffffffffffffffffffff1673ffffffffffffffffffffffffffffffffffffffff1681526020019081526020015f2081905550505b5f73ffffffffffffffffffffffffffffffffffffffff168273ffffffffffffffffffffffffffffffffffffffff1603611189578060025f82825403925050819055506111d3565b805f5f8473ffffffffffffffffffffffffffffffffffffffff1673ffffffffffffffffffffffffffffffffffffffff1681526020019081526020015f205f82825401925050819055505b8173ffffffffffffffffffffffffffffffffffffffff168373ffffffffffffffffffffffffffffffffffffffff167fddf252ad1be2c89b69c2b068fc378daa952ba7f163c4a11628f55a4df523b3ef836040516112309190611409565b60405180910390a3505050565b5f81519050919050565b5f82825260208201905092915050565b8281835e5f83830152505050565b5f601f19601f8301169050919050565b5f61127f8261123d565b6112898185611247565b9350611299818560208601611257565b6112a281611265565b840191505092915050565b5f6020820190508181035f8301526112c58184611275565b905092915050565b5f5ffd5b5f73ffffffffffffffffffffffffffffffffffffffff82169050919050565b5f6112fa826112d1565b9050919050565b61130a816112f0565b8114611314575f5ffd5b50565b5f8135905061132581611301565b92915050565b5f819050919050565b61133d8161132b565b8114611347575f5ffd5b50565b5f8135905061135881611334565b92915050565b5f5f60408385031215611374576113736112cd565b5b5f61138185828601611317565b92505060206113928582860161134a565b9150509250929050565b5f8115159050919050565b6113b08161139c565b82525050565b5f6020820190506113c95f8301846113a7565b92915050565b5f602082840312156113e4576113e36112cd565b5b5f6113f184828501611317565b91505092915050565b6114038161132b565b82525050565b5f60208201905061141c5f8301846113fa565b92915050565b61142b8161139c565b8114611435575f5ffd5b50565b5f8135905061144681611422565b92915050565b5f5f60408385031215611462576114616112cd565b5b5f61146f85828601611317565b925050602061148085828601611438565b9150509250929050565b5f5f5f606084860312156114a1576114a06112cd565b5b5f6114ae86828701611317565b93505060206114bf86828701611317565b92505060406114d08682870161134a565b9150509250925092565b5f60ff82169050919050565b6114ef816114da565b82525050565b5f6020820190506115085f8301846114e6565b92915050565b611517816112f0565b82525050565b5f6020820190506115305f83018461150e565b92915050565b5f6020828403121561154b5761154a6112cd565b5b5f6115588482850161134a565b91505092915050565b5f5f60408385031215611577576115766112cd565b5b5f61158485828601611317565b925050602061159585828601611317565b9150509250929050565b7f4e487b71000000000000000000000000000000000000000000000000000000005f52602260045260245ffd5b5f60028204905060018216806115e357607f821691505b6020821081036115f6576115f561159f565b5b50919050565b5f60608201905061160f5f83018661150e565b61161c60208301856113fa565b61162960408301846113fa565b949350505050565b7f4e487b71000000000000000000000000000000000000000000000000000000005f52601160045260245ffd5b5f6116688261132b565b91506116738361132b565b92508282026116818161132b565b9150828204841483151761169857611697611631565b5b5092915050565b7f4e487b71000000000000000000000000000000000000000000000000000000005f52601260045260245ffd5b5f6116d68261132b565b91506116e18361132b565b9250826116f1576116f061169f565b5b828204905092915050565b5f6117068261132b565b91506117118361132b565b925082820390508181111561172957611728611631565b5b92915050565b5f6117398261132b565b91506117448361132b565b925082820190508082111561175c5761175b611631565b5b9291505056fea2646970667358221220955cba5ad0eb801bb3064116df6bd58f7ff601813c2eef86befc3a3352a52f3b64736f6c634300081d0033","linkReferences":{}},"methodIdentifiers":{"MAX_SUPPLY()":"32cb6b0c","allowance(address,address)":"dd62ed3e","approve(address,uint256)":"095ea7b3","automatedMarketMakerPairs(address)":"b62496f5","balanceOf(address)":"70a08231","buyTax()":"4f7041a5","decimals()":"313ce567","isTaxExempt(address)":"16c2be6b","name()":"06fdde03","owner()":"8da5cb5b","renounceOwnership()":"715018a6","sellTax()":"cc1776d3","setAMMPair(address,bool)":"2d99d32e","setBuyTax(uint256)":"dc1052e2","setSellTax(uint256)":"8cd09d50","setTaxExempt(address,bool)":"1dc61040","setTreasury(address)":"f0f44260","symbol()":"95d89b41","totalSupply()":"18160ddd","transfer(address,uint256)":"a9059cbb","transferFrom(address,address,uint256)":"23b872dd","transferOwnership(address)":"f2fde38b","treasury()":"61d027b3"},"id":1}