{"abi":[{"type":"constructor","inputs":[],"stateMutability":"nonpayable"},{"type":"function","name":"MAX_SUPPLY","inputs":[],"outputs":[{"name":"","type":"uint256","internalType":"uint256"}],"stateMutability":"view"},{"type":"function","name":"allowance","inputs":[{"name":"owner","type":"address","internalType":"address"},{"name":"spender","type":"address","internalType":"address"}],"outputs":[{"name":"","type":"uint256","internalType":"uint256"}],"stateMutability":"view"},{"type":"function","name":"approve","inputs":[{"name":"spender","type":"address","internalType":"address"},{"name":"value","type":"uint256","internalType":"uint256"}],"outputs":[{"name":"","type":"bool","internalType":"bool"}],"stateMutability":"nonpayable"},{"type":"function","name":"balanceOf","inputs":[{"name":"account","type":"address","internalType":"address"}],"outputs":[{"name":"","type":"uint256","internalType":"uint256"}],"stateMutability":"view"},{"type":"function","name":"decimals","inputs":[],"outputs":[{"name":"","type":"uint8","internalType":"uint8"}],"stateMutability":"view"},{"type":"function","name":"mint","inputs":[{"name":"to","type":"address","internalType":"address"},{"name":"amount","type":"uint256","internalType":"uint256"}],"outputs":[],"stateMutability":"nonpayable"},{"type":"function","name":"name","inputs":[],"outputs":[{"name":"","type":"string","internalType":"string"}],"stateMutability":"view"},{"type":"function","name":"owner","inputs":[],"outputs":[{"name":"","type":"address","internalType":"address"}],"stateMutability":"view"},{"type":"function","name":"renounceOwnership","inputs":[],"outputs":[],"stateMutability":"nonpayable"},{"type":"function","name":"symbol","inputs":[],"outputs":[{"name":"","type":"string","internalType":"string"}],"stateMutability":"view"},{"type":"function","name":"totalSupply","inputs":[],"outputs":[{"name":"","type":"uint256","internalType":"uint256"}],"stateMutability":"view"},{"type":"function","name":"transfer","inputs":[{"name":"to","type":"address","internalType":"address"},{"name":"value","type":"uint256","internalType":"uint256"}],"outputs":[{"name":"","type":"bool","internalType":"bool"}],"stateMutability":"nonpayable"},{"type":"function","name":"transferFrom","inputs":[{"name":"from","type":"address","internalType":"address"},{"name":"to","type":"address","internalType":"address"},{"name":"value","type":"uint256","internalType":"uint256"}],"outputs":[{"name":"","type":"bool","internalType":"bool"}],"stateMutability":"nonpayable"},{"type":"function","name":"transferOwnership","inputs":[{"name":"newOwner","type":"address","internalType":"address"}],"outputs":[],"stateMutability":"nonpayable"},{"type":"event","name":"Approval","inputs":[{"name":"owner","type":"address","indexed":true,"internalType":"address"},{"name":"spender","type":"address","indexed":true,"internalType":"address"},{"name":"value","type":"uint256","indexed":false,"internalType":"uint256"}],"anonymous":false},{"type":"event","name":"OwnershipTransferred","inputs":[{"name":"previousOwner","type":"address","indexed":true,"internalType":"address"},{"name":"newOwner","type":"address","indexed":true,"internalType":"address"}],"anonymous":false},{"type":"event","name":"Transfer","inputs":[{"name":"from","type":"address","indexed":true,"internalType":"address"},{"name":"to","type":"address","indexed":true,"internalType":"address"},{"name":"value","type":"uint256","indexed":false,"internalType":"uint256"}],"anonymous":false},{"type":"error","name":"ERC20InsufficientAllowance","inputs":[{"name":"spender","type":"address","internalType":"address"},{"name":"allowance","type":"uint256","internalType":"uint256"},{"name":"needed","type":"uint256","internalType":"uint256"}]},{"type":"error","name":"ERC20InsufficientBalance","inputs":[{"name":"sender","type":"address","internalType":"address"},{"name":"balance","type":"uint256","internalType":"uint256"},{"name":"needed","type":"uint256","internalType":"uint256"}]},{"type":"error","name":"ERC20InvalidApprover","inputs":[{"name":"approver","type":"address","internalType":"address"}]},{"type":"error","name":"ERC20InvalidReceiver","inputs":[{"name":"receiver","type":"address","internalType":"address"}]},{"type":"error","name":"ERC20InvalidSender","inputs":[{"name":"sender","type":"address","internalType":"address"}]},{"type":"error","name":"ERC20InvalidSpender","inputs":[{"name":"spender","type":"address","internalType":"address"}]},{"type":"error","name":"OwnableInvalidOwner","inputs":[{"name":"owner","type":"address","internalType":"address"}]},{"type":"error","name":"OwnableUnauthorizedAccount","inputs":[{"name":"account","type":"address","internalType":"address"}]}],"bytecode":{"object":"0x608060405234801561000f575f5ffd5b50336040518060400160405280601981526020017f42696720566973696f6e20506963747572657320546f6b656e000000000000008152506040518060400160405280600381526020017f4256500000000000000000000000000000000000000000000000000000000000815250816003908161008c91906106de565b50806004908161009c91906106de565b5050505f73ffffffffffffffffffffffffffffffffffffffff168173ffffffffffffffffffffffffffffffffffffffff160361010f575f6040517f1e4fbdf700000000000000000000000000000000000000000000000000000000815260040161010691906107ec565b60405180910390fd5b61011e8161014060201b60201c565b5061013b336b033b2e3c9fd0803ce800000061020360201b60201c565b6108c2565b5f60055f9054906101000a900473ffffffffffffffffffffffffffffffffffffffff1690508160055f6101000a81548173ffffffffffffffffffffffffffffffffffffffff021916908373ffffffffffffffffffffffffffffffffffffffff1602179055508173ffffffffffffffffffffffffffffffffffffffff168173ffffffffffffffffffffffffffffffffffffffff167f8be0079c531659141344cd1fd0a4f28419497f9722a3daafe3b4186f6b6457e060405160405180910390a35050565b5f73ffffffffffffffffffffffffffffffffffffffff168273ffffffffffffffffffffffffffffffffffffffff1603610273575f6040517fec442f0500000000000000000000000000000000000000000000000000000000815260040161026a91906107ec565b60405180910390fd5b6102845f838361028860201b60201c565b5050565b5f73ffffffffffffffffffffffffffffffffffffffff168373ffffffffffffffffffffffffffffffffffffffff16036102d8578060025f8282546102cc9190610832565b925050819055506103a6565b5f5f5f8573ffffffffffffffffffffffffffffffffffffffff1673ffffffffffffffffffffffffffffffffffffffff1681526020019081526020015f2054905081811015610361578381836040517fe450d38c00000000000000000000000000000000000000000000000000000000815260040161035893929190610874565b60405180910390fd5b8181035f5f8673ffffffffffffffffffffffffffffffffffffffff1673ffffffffffffffffffffffffffffffffffffffff1681526020019081526020015f2081905550505b5f73ffffffffffffffffffffffffffffffffffffffff168273ffffffffffffffffffffffffffffffffffffffff16036103ed578060025f8282540392505081905550610437565b805f5f8473ffffffffffffffffffffffffffffffffffffffff1673ffffffffffffffffffffffffffffffffffffffff1681526020019081526020015f205f82825401925050819055505b8173ffffffffffffffffffffffffffffffffffffffff168373ffffffffffffffffffffffffffffffffffffffff167fddf252ad1be2c89b69c2b068fc378daa952ba7f163c4a11628f55a4df523b3ef8360405161049491906108a9565b60405180910390a3505050565b5f81519050919050565b7f4e487b71000000000000000000000000000000000000000000000000000000005f52604160045260245ffd5b7f4e487b71000000000000000000000000000000000000000000000000000000005f52602260045260245ffd5b5f600282049050600182168061051c57607f821691505b60208210810361052f5761052e6104d8565b5b50919050565b5f819050815f5260205f209050919050565b5f6020601f8301049050919050565b5f82821b905092915050565b5f600883026105917fffffffffffffffffffffffffffffffffffffffffffffffffffffffffffffffff82610556565b61059b8683610556565b95508019841693508086168417925050509392505050565b5f819050919050565b5f819050919050565b5f6105df6105da6105d5846105b3565b6105bc565b6105b3565b9050919050565b5f819050919050565b6105f8836105c5565b61060c610604826105e6565b848454610562565b825550505050565b5f5f905090565b610623610614565b61062e8184846105ef565b505050565b5b81811015610651576106465f8261061b565b600181019050610634565b5050565b601f8211156106965761066781610535565b61067084610547565b8101602085101561067f578190505b61069361068b85610547565b830182610633565b50505b505050565b5f82821c905092915050565b5f6106b65f198460080261069b565b1980831691505092915050565b5f6106ce83836106a7565b9150826002028217905092915050565b6106e7826104a1565b67ffffffffffffffff811115610700576106ff6104ab565b5b61070a8254610505565b610715828285610655565b5f60209050601f831160018114610746575f8415610734578287015190505b61073e85826106c3565b8655506107a5565b601f19841661075486610535565b5f5b8281101561077b57848901518255600182019150602085019450602081019050610756565b868310156107985784890151610794601f8916826106a7565b8355505b6001600288020188555050505b505050505050565b5f73ffffffffffffffffffffffffffffffffffffffff82169050919050565b5f6107d6826107ad565b9050919050565b6107e6816107cc565b82525050565b5f6020820190506107ff5f8301846107dd565b92915050565b7f4e487b71000000000000000000000000000000000000000000000000000000005f52601160045260245ffd5b5f61083c826105b3565b9150610847836105b3565b925082820190508082111561085f5761085e610805565b5b92915050565b61086e816105b3565b82525050565b5f6060820190506108875f8301866107dd565b6108946020830185610865565b6108a16040830184610865565b949350505050565b5f6020820190506108bc5f830184610865565b92915050565b61122e806108cf5f395ff3fe608060405234801561000f575f5ffd5b50600436106100e8575f3560e01c806370a082311161008a57806395d89b411161006457806395d89b4114610238578063a9059cbb14610256578063dd62ed3e14610286578063f2fde38b146102b6576100e8565b806370a08231146101e0578063715018a6146102105780638da5cb5b1461021a576100e8565b806323b872dd116100c657806323b872dd14610158578063313ce5671461018857806332cb6b0c146101a657806340c10f19146101c4576100e8565b806306fdde03146100ec578063095ea7b31461010a57806318160ddd1461013a575b5f5ffd5b6100f46102d2565b6040516101019190610e3f565b60405180910390f35b610124600480360381019061011f9190610ef0565b610362565b6040516101319190610f48565b60405180910390f35b610142610384565b60405161014f9190610f70565b60405180910390f35b610172600480360381019061016d9190610f89565b61038d565b60405161017f9190610f48565b60405180910390f35b6101906103bb565b60405161019d9190610ff4565b60405180910390f35b6101ae6103c3565b6040516101bb9190610f70565b60405180910390f35b6101de60048036038101906101d99190610ef0565b6103d3565b005b6101fa60048036038101906101f5919061100d565b61044a565b6040516102079190610f70565b60405180910390f35b61021861048f565b005b6102226104a2565b60405161022f9190611047565b60405180910390f35b6102406104ca565b60405161024d9190610e3f565b60405180910390f35b610270600480360381019061026b9190610ef0565b61055a565b60405161027d9190610f48565b60405180910390f35b6102a0600480360381019061029b9190611060565b61057c565b6040516102ad9190610f70565b60405180910390f35b6102d060048036038101906102cb919061100d565b6105fe565b005b6060600380546102e1906110cb565b80601f016020809104026020016040519081016040528092919081815260200182805461030d906110cb565b80156103585780601f1061032f57610100808354040283529160200191610358565b820191905f5260205f20905b81548152906001019060200180831161033b57829003601f168201915b5050505050905090565b5f5f61036c610682565b9050610379818585610689565b600191505092915050565b5f600254905090565b5f5f610397610682565b90506103a485828561069b565b6103af85858561072e565b60019150509392505050565b5f6012905090565b6b033b2e3c9fd0803ce800000081565b6103db61081e565b6b033b2e3c9fd0803ce8000000816103f1610384565b6103fb9190611128565b111561043c576040517f08c379a0000000000000000000000000000000000000000000000000000000008152600401610433906111a5565b60405180910390fd5b61044682826108a5565b5050565b5f5f5f8373ffffffffffffffffffffffffffffffffffffffff1673ffffffffffffffffffffffffffffffffffffffff1681526020019081526020015f20549050919050565b61049761081e565b6104a05f610924565b565b5f60055f9054906101000a900473ffffffffffffffffffffffffffffffffffffffff16905090565b6060600480546104d9906110cb565b80601f0160208091040260200160405190810160405280929190818152602001828054610505906110cb565b80156105505780601f1061052757610100808354040283529160200191610550565b820191905f5260205f20905b81548152906001019060200180831161053357829003601f168201915b5050505050905090565b5f5f610564610682565b905061057181858561072e565b600191505092915050565b5f60015f8473ffffffffffffffffffffffffffffffffffffffff1673ffffffffffffffffffffffffffffffffffffffff1681526020019081526020015f205f8373ffffffffffffffffffffffffffffffffffffffff1673ffffffffffffffffffffffffffffffffffffffff1681526020019081526020015f2054905092915050565b61060661081e565b5f73ffffffffffffffffffffffffffffffffffffffff168173ffffffffffffffffffffffffffffffffffffffff1603610676575f6040517f1e4fbdf700000000000000000000000000000000000000000000000000000000815260040161066d9190611047565b60405180910390fd5b61067f81610924565b50565b5f33905090565b61069683838360016109e7565b505050565b5f6106a6848461057c565b90507fffffffffffffffffffffffffffffffffffffffffffffffffffffffffffffffff8110156107285781811015610719578281836040517ffb8f41b2000000000000000000000000000000000000000000000000000000008152600401610710939291906111c3565b60405180910390fd5b61072784848484035f6109e7565b5b50505050565b5f73ffffffffffffffffffffffffffffffffffffffff168373ffffffffffffffffffffffffffffffffffffffff160361079e575f6040517f96c6fd1e0000000000000000000000000000000000000000000000000000000081526004016107959190611047565b60405180910390fd5b5f73ffffffffffffffffffffffffffffffffffffffff168273ffffffffffffffffffffffffffffffffffffffff160361080e575f6040517fec442f050000000000000000000000000000000000000000000000000000000081526004016108059190611047565b60405180910390fd5b610819838383610bb6565b505050565b610826610682565b73ffffffffffffffffffffffffffffffffffffffff166108446104a2565b73ffffffffffffffffffffffffffffffffffffffff16146108a357610867610682565b6040517f118cdaa700000000000000000000000000000000000000000000000000000000815260040161089a9190611047565b60405180910390fd5b565b5f73ffffffffffffffffffffffffffffffffffffffff168273ffffffffffffffffffffffffffffffffffffffff1603610915575f6040517fec442f0500000000000000000000000000000000000000000000000000000000815260040161090c9190611047565b60405180910390fd5b6109205f8383610bb6565b5050565b5f60055f9054906101000a900473ffffffffffffffffffffffffffffffffffffffff1690508160055f6101000a81548173ffffffffffffffffffffffffffffffffffffffff021916908373ffffffffffffffffffffffffffffffffffffffff1602179055508173ffffffffffffffffffffffffffffffffffffffff168173ffffffffffffffffffffffffffffffffffffffff167f8be0079c531659141344cd1fd0a4f28419497f9722a3daafe3b4186f6b6457e060405160405180910390a35050565b5f73ffffffffffffffffffffffffffffffffffffffff168473ffffffffffffffffffffffffffffffffffffffff1603610a57575f6040517fe602df05000000000000000000000000000000000000000000000000000000008152600401610a4e9190611047565b60405180910390fd5b5f73ffffffffffffffffffffffffffffffffffffffff168373ffffffffffffffffffffffffffffffffffffffff1603610ac7575f6040517f94280d62000000000000000000000000000000000000000000000000000000008152600401610abe9190611047565b60405180910390fd5b8160015f8673ffffffffffffffffffffffffffffffffffffffff1673ffffffffffffffffffffffffffffffffffffffff1681526020019081526020015f205f8573ffffffffffffffffffffffffffffffffffffffff1673ffffffffffffffffffffffffffffffffffffffff1681526020019081526020015f20819055508015610bb0578273ffffffffffffffffffffffffffffffffffffffff168473ffffffffffffffffffffffffffffffffffffffff167f8c5be1e5ebec7d5bd14f71427d1e84f3dd0314c0f7b2291e5b200ac8c7c3b92584604051610ba79190610f70565b60405180910390a35b50505050565b5f73ffffffffffffffffffffffffffffffffffffffff168373ffffffffffffffffffffffffffffffffffffffff1603610c06578060025f828254610bfa9190611128565b92505081905550610cd4565b5f5f5f8573ffffffffffffffffffffffffffffffffffffffff1673ffffffffffffffffffffffffffffffffffffffff1681526020019081526020015f2054905081811015610c8f578381836040517fe450d38c000000000000000000000000000000000000000000000000000000008152600401610c86939291906111c3565b60405180910390fd5b8181035f5f8673ffffffffffffffffffffffffffffffffffffffff1673ffffffffffffffffffffffffffffffffffffffff1681526020019081526020015f2081905550505b5f73ffffffffffffffffffffffffffffffffffffffff168273ffffffffffffffffffffffffffffffffffffffff1603610d1b578060025f8282540392505081905550610d65565b805f5f8473ffffffffffffffffffffffffffffffffffffffff1673ffffffffffffffffffffffffffffffffffffffff1681526020019081526020015f205f82825401925050819055505b8173ffffffffffffffffffffffffffffffffffffffff168373ffffffffffffffffffffffffffffffffffffffff167fddf252ad1be2c89b69c2b068fc378daa952ba7f163c4a11628f55a4df523b3ef83604051610dc29190610f70565b60405180910390a3505050565b5f81519050919050565b5f82825260208201905092915050565b8281835e5f83830152505050565b5f601f19601f8301169050919050565b5f610e1182610dcf565b610e1b8185610dd9565b9350610e2b818560208601610de9565b610e3481610df7565b840191505092915050565b5f6020820190508181035f830152610e578184610e07565b905092915050565b5f5ffd5b5f73ffffffffffffffffffffffffffffffffffffffff82169050919050565b5f610e8c82610e63565b9050919050565b610e9c81610e82565b8114610ea6575f5ffd5b50565b5f81359050610eb781610e93565b92915050565b5f819050919050565b610ecf81610ebd565b8114610ed9575f5ffd5b50565b5f81359050610eea81610ec6565b92915050565b5f5f60408385031215610f0657610f05610e5f565b5b5f610f1385828601610ea9565b9250506020610f2485828601610edc565b9150509250929050565b5f8115159050919050565b610f4281610f2e565b82525050565b5f602082019050610f5b5f830184610f39565b92915050565b610f6a81610ebd565b82525050565b5f602082019050610f835f830184610f61565b92915050565b5f5f5f60608486031215610fa057610f9f610e5f565b5b5f610fad86828701610ea9565b9350506020610fbe86828701610ea9565b9250506040610fcf86828701610edc565b9150509250925092565b5f60ff82169050919050565b610fee81610fd9565b82525050565b5f6020820190506110075f830184610fe5565b92915050565b5f6020828403121561102257611021610e5f565b5b5f61102f84828501610ea9565b91505092915050565b61104181610e82565b82525050565b5f60208201905061105a5f830184611038565b92915050565b5f5f6040838503121561107657611075610e5f565b5b5f61108385828601610ea9565b925050602061109485828601610ea9565b9150509250929050565b7f4e487b71000000000000000000000000000000000000000000000000000000005f52602260045260245ffd5b5f60028204905060018216806110e257607f821691505b6020821081036110f5576110f461109e565b5b50919050565b7f4e487b71000000000000000000000000000000000000000000000000000000005f52601160045260245ffd5b5f61113282610ebd565b915061113d83610ebd565b9250828201905080821115611155576111546110fb565b5b92915050565b7f45786365656473206d617820737570706c7900000000000000000000000000005f82015250565b5f61118f601283610dd9565b915061119a8261115b565b602082019050919050565b5f6020820190508181035f8301526111bc81611183565b9050919050565b5f6060820190506111d65f830186611038565b6111e36020830185610f61565b6111f06040830184610f61565b94935050505056fea2646970667358221220aa0cb418e753a587501506dda1bdf06e4fcf53e3759e0a2d0e213521b4ff9bae64736f6c634300081d0033","linkReferences":{}},"methodIdentifiers":{"MAX_SUPPLY()":"32cb6b0c","allowance(address,address)":"dd62ed3e","approve(address,uint256)":"095ea7b3","balanceOf(address)":"70a08231","decimals()":"313ce567","mint(address,uint256)":"40c10f19","name()":"06fdde03","owner()":"8da5cb5b","renounceOwnership()":"715018a6","symbol()":"95d89b41","totalSupply()":"18160ddd","transfer(address,uint256)":"a9059cbb","transferFrom(address,address,uint256)":"23b872dd","transferOwnership(address)":"f2fde38b"},"id":1}