{"abi":[{"type":"constructor","inputs":[{"name":"publicSale_","type":"address","internalType":"address"},{"name":"operations_","type":"address","internalType":"address"},{"name":"presale_","type":"address","internalType":"address"},{"name":"foundersAndTeam_","type":"address","internalType":"address"},{"name":"marketing_","type":"address","internalType":"address"},{"name":"advisors_","type":"address","internalType":"address"},{"name":"treasury_","type":"address","internalType":"address"},{"name":"liquidity_","type":"address","internalType":"address"}],"stateMutability":"nonpayable"},{"type":"function","name":"DOMAIN_SEPARATOR","inputs":[],"outputs":[{"name":"","type":"bytes32","internalType":"bytes32"}],"stateMutability":"view"},{"type":"function","name":"acceptOwnership","inputs":[],"outputs":[],"stateMutability":"nonpayable"},{"type":"function","name":"allowance","inputs":[{"name":"owner","type":"address","internalType":"address"},{"name":"spender","type":"address","internalType":"address"}],"outputs":[{"name":"","type":"uint256","internalType":"uint256"}],"stateMutability":"view"},{"type":"function","name":"approve","inputs":[{"name":"spender","type":"address","internalType":"address"},{"name":"amount","type":"uint256","internalType":"uint256"}],"outputs":[{"name":"","type":"bool","internalType":"bool"}],"stateMutability":"nonpayable"},{"type":"function","name":"balanceOf","inputs":[{"name":"account","type":"address","internalType":"address"}],"outputs":[{"name":"","type":"uint256","internalType":"uint256"}],"stateMutability":"view"},{"type":"function","name":"cap","inputs":[],"outputs":[{"name":"","type":"uint256","internalType":"uint256"}],"stateMutability":"view"},{"type":"function","name":"decimals","inputs":[],"outputs":[{"name":"","type":"uint8","internalType":"uint8"}],"stateMutability":"view"},{"type":"function","name":"decreaseAllowance","inputs":[{"name":"spender","type":"address","internalType":"address"},{"name":"subtractedValue","type":"uint256","internalType":"uint256"}],"outputs":[{"name":"","type":"bool","internalType":"bool"}],"stateMutability":"nonpayable"},{"type":"function","name":"eip712Domain","inputs":[],"outputs":[{"name":"fields","type":"bytes1","internalType":"bytes1"},{"name":"name","type":"string","internalType":"string"},{"name":"version","type":"string","internalType":"string"},{"name":"chainId","type":"uint256","internalType":"uint256"},{"name":"verifyingContract","type":"address","internalType":"address"},{"name":"salt","type":"bytes32","internalType":"bytes32"},{"name":"extensions","type":"uint256[]","internalType":"uint256[]"}],"stateMutability":"view"},{"type":"function","name":"getTxLimitExcluded","inputs":[],"outputs":[{"name":"live","type":"address[]","internalType":"address[]"}],"stateMutability":"view"},{"type":"function","name":"getWalletLimitExcluded","inputs":[],"outputs":[{"name":"live","type":"address[]","internalType":"address[]"}],"stateMutability":"view"},{"type":"function","name":"increaseAllowance","inputs":[{"name":"spender","type":"address","internalType":"address"},{"name":"addedValue","type":"uint256","internalType":"uint256"}],"outputs":[{"name":"","type":"bool","internalType":"bool"}],"stateMutability":"nonpayable"},{"type":"function","name":"isTxLimitExcluded","inputs":[{"name":"","type":"address","internalType":"address"}],"outputs":[{"name":"","type":"bool","internalType":"bool"}],"stateMutability":"view"},{"type":"function","name":"isWalletLimitExcluded","inputs":[{"name":"","type":"address","internalType":"address"}],"outputs":[{"name":"","type":"bool","internalType":"bool"}],"stateMutability":"view"},{"type":"function","name":"maxTx","inputs":[],"outputs":[{"name":"","type":"uint256","internalType":"uint256"}],"stateMutability":"view"},{"type":"function","name":"maxWallet","inputs":[],"outputs":[{"name":"","type":"uint256","internalType":"uint256"}],"stateMutability":"view"},{"type":"function","name":"name","inputs":[],"outputs":[{"name":"","type":"string","internalType":"string"}],"stateMutability":"view"},{"type":"function","name":"nonces","inputs":[{"name":"owner","type":"address","internalType":"address"}],"outputs":[{"name":"","type":"uint256","internalType":"uint256"}],"stateMutability":"view"},{"type":"function","name":"owner","inputs":[],"outputs":[{"name":"","type":"address","internalType":"address"}],"stateMutability":"view"},{"type":"function","name":"pendingOwner","inputs":[],"outputs":[{"name":"","type":"address","internalType":"address"}],"stateMutability":"view"},{"type":"function","name":"permit","inputs":[{"name":"owner","type":"address","internalType":"address"},{"name":"spender","type":"address","internalType":"address"},{"name":"value","type":"uint256","internalType":"uint256"},{"name":"deadline","type":"uint256","internalType":"uint256"},{"name":"v","type":"uint8","internalType":"uint8"},{"name":"r","type":"bytes32","internalType":"bytes32"},{"name":"s","type":"bytes32","internalType":"bytes32"}],"outputs":[],"stateMutability":"nonpayable"},{"type":"function","name":"renounceOwnership","inputs":[],"outputs":[],"stateMutability":"nonpayable"},{"type":"function","name":"setTxLimitExcluded","inputs":[{"name":"account","type":"address","internalType":"address"},{"name":"excluded","type":"bool","internalType":"bool"}],"outputs":[],"stateMutability":"nonpayable"},{"type":"function","name":"setWalletLimitExcluded","inputs":[{"name":"account","type":"address","internalType":"address"},{"name":"excluded","type":"bool","internalType":"bool"}],"outputs":[],"stateMutability":"nonpayable"},{"type":"function","name":"symbol","inputs":[],"outputs":[{"name":"","type":"string","internalType":"string"}],"stateMutability":"view"},{"type":"function","name":"totalSupply","inputs":[],"outputs":[{"name":"","type":"uint256","internalType":"uint256"}],"stateMutability":"view"},{"type":"function","name":"transfer","inputs":[{"name":"to","type":"address","internalType":"address"},{"name":"amount","type":"uint256","internalType":"uint256"}],"outputs":[{"name":"","type":"bool","internalType":"bool"}],"stateMutability":"nonpayable"},{"type":"function","name":"transferFrom","inputs":[{"name":"from","type":"address","internalType":"address"},{"name":"to","type":"address","internalType":"address"},{"name":"amount","type":"uint256","internalType":"uint256"}],"outputs":[{"name":"","type":"bool","internalType":"bool"}],"stateMutability":"nonpayable"},{"type":"function","name":"transferOwnership","inputs":[{"name":"newOwner","type":"address","internalType":"address"}],"outputs":[],"stateMutability":"nonpayable"},{"type":"event","name":"Approval","inputs":[{"name":"owner","type":"address","indexed":true,"internalType":"address"},{"name":"spender","type":"address","indexed":true,"internalType":"address"},{"name":"value","type":"uint256","indexed":false,"internalType":"uint256"}],"anonymous":false},{"type":"event","name":"EIP712DomainChanged","inputs":[],"anonymous":false},{"type":"event","name":"OwnershipTransferStarted","inputs":[{"name":"previousOwner","type":"address","indexed":true,"internalType":"address"},{"name":"newOwner","type":"address","indexed":true,"internalType":"address"}],"anonymous":false},{"type":"event","name":"OwnershipTransferred","inputs":[{"name":"previousOwner","type":"address","indexed":true,"internalType":"address"},{"name":"newOwner","type":"address","indexed":true,"internalType":"address"}],"anonymous":false},{"type":"event","name":"Transfer","inputs":[{"name":"from","type":"address","indexed":true,"internalType":"address"},{"name":"to","type":"address","indexed":true,"internalType":"address"},{"name":"value","type":"uint256","indexed":false,"internalType":"uint256"}],"anonymous":false},{"type":"event","name":"TxLimitExclusionUpdated","inputs":[{"name":"account","type":"address","indexed":true,"internalType":"address"},{"name":"isExcluded","type":"bool","indexed":false,"internalType":"bool"}],"anonymous":false},{"type":"event","name":"WalletLimitExclusionUpdated","inputs":[{"name":"account","type":"address","indexed":true,"internalType":"address"},{"name":"isExcluded","type":"bool","indexed":false,"internalType":"bool"}],"anonymous":false},{"type":"error","name":"InvalidShortString","inputs":[]},{"type":"error","name":"StringTooLong","inputs":[{"name":"str","type":"string","internalType":"string"}]},{"type":"error","name":"ZeroAddress","inputs":[]}],"bytecode":{"object":"0x6101c06040523480156200001257600080fd5b5060405162002b2638038062002b26833981016040819052620000359162000a63565b6040518060400160405280601981526020017f42696720566973696f6e20506963747572657320546f6b656e0000000000000081525080604051806040016040528060018152602001603160f81b8152506b033b2e3c9fd0803ce80000006040518060400160405280601981526020017f42696720566973696f6e20506963747572657320546f6b656e000000000000008152506040518060400160405280600381526020016204256560ec1b8152508160039081620000f6919062000baf565b50600462000105828262000baf565b505050600081116200015e5760405162461bcd60e51b815260206004820152601560248201527f45524332304361707065643a206361702069732030000000000000000000000060448201526064015b60405180910390fd5b6080526200016e8260056200044f565b610140526200017f8160066200044f565b61016052815160208084019190912061010052815190820120610120524660c0526200020f6101005161012051604080517f8b73c3c69bb8fe3d512ecc4cf759cc79239f7b179b0ffacaa9a75d522b39400f60208201529081019290925260608201524660808201523060a082015260009060c00160405160208183030381529060405280519060200120905090565b60a05250503060e05250620002243362000488565b6001600160a01b03881615806200024257506001600160a01b038716155b806200025557506001600160a01b038616155b806200026857506001600160a01b038516155b806200027b57506001600160a01b038416155b806200028e57506001600160a01b038316155b80620002a157506001600160a01b038216155b80620002b457506001600160a01b038116155b15620002d35760405163d92e233d60e01b815260040160405180910390fd5b6a084595161401484a000000610180526a108b2a2c280290940000006101a052620003238860646200030460805190565b6200031190601e62000c91565b6200031d919062000cab565b620004a6565b620003418760646200033460805190565b6200031190601462000c91565b6200035f8660646200035260805190565b6200031190600a62000c91565b620003708560646200035260805190565b6200038e8460646200038160805190565b6200031190600f62000c91565b620003ac8360646200039f60805190565b6200031190600562000c91565b620003bd8260646200039f60805190565b620003ce8160646200039f60805190565b620003db886001620004b6565b620003e8876001620004b6565b620003f5826001620004b6565b62000402816001620004b6565b6200040f886001620005c7565b6200041c876001620005c7565b62000429826001620005c7565b62000436816001620005c7565b620004413362000488565b505050505050505062000d8b565b60006020835110156200046f576200046783620006d8565b905062000482565b816200047c848262000baf565b5060ff90505b92915050565b600a80546001600160a01b0319169055620004a3816200071b565b50565b620004b282826200076d565b5050565b6001600160a01b0382166000908152600b602052604090205460ff161515811515146200052d576001600160a01b0382166000818152600b6020908152604091829020805460ff1916851515908117909155915191825260008051602062002ae6833981519152910160405180910390a262000563565b816001600160a01b031660008051602062002ae6833981519152826040516200055a911515815260200190565b60405180910390a25b62000570600d83620007e3565b15620004b257600d80546001810182556000919091527fd7b6990105719101dabeb77144f2a3385c8033acd3af97e9423a695e81ad1eb50180546001600160a01b0384166001600160a01b03199091161790555050565b6001600160a01b0382166000908152600c602052604090205460ff161515811515146200063e576001600160a01b0382166000818152600c6020908152604091829020805460ff1916851515908117909155915191825260008051602062002b06833981519152910160405180910390a262000674565b816001600160a01b031660008051602062002b06833981519152826040516200066b911515815260200190565b60405180910390a25b62000681600e83620007e3565b15620004b257600e80546001810182556000919091527fbb7b4a454dc3493923482f07822329ed19e8244eff582cc204f8554c3620c3fd0180546001600160a01b0384166001600160a01b03199091161790555050565b600080829050601f8151111562000706578260405163305a27a960e01b815260040162000155919062000cce565b8051620007138262000d1e565b179392505050565b600980546001600160a01b038381166001600160a01b0319831681179093556040519116919082907f8be0079c531659141344cd1fd0a4f28419497f9722a3daafe3b4186f6b6457e090600090a35050565b608051816200077b60025490565b62000787919062000d43565b1115620007d75760405162461bcd60e51b815260206004820152601960248201527f45524332304361707065643a2063617020657863656564656400000000000000604482015260640162000155565b620004b2828262000855565b6000805b83548110156200084b57826001600160a01b031684828154811062000810576200081062000d59565b6000918252602090912001546001600160a01b0316036200083657600091505062000482565b80620008428162000d6f565b915050620007e7565b5060019392505050565b6001600160a01b038216620008ad5760405162461bcd60e51b815260206004820152601f60248201527f45524332303a206d696e7420746f20746865207a65726f206164647265737300604482015260640162000155565b620008bb6000838362000926565b8060026000828254620008cf919062000d43565b90915550506001600160a01b038216600081815260208181526040808320805486019055518481527fddf252ad1be2c89b69c2b068fc378daa952ba7f163c4a11628f55a4df523b3ef910160405180910390a35050565b6001600160a01b03831615806200094457506001600160a01b038216155b156200094f57505050565b6001600160a01b0383166000908152600b602052604090205460ff16620009b05761018051811115620009b05760405162461bcd60e51b8152602060048201526008602482015267151617d31253525560c21b604482015260640162000155565b6001600160a01b0382166000908152600c602052604090205460ff1662000a41576101a05181620009f6846001600160a01b031660009081526020819052604090205490565b62000a02919062000d43565b111562000a415760405162461bcd60e51b815260206004820152600c60248201526b15d05313115517d31253525560a21b604482015260640162000155565b505050565b80516001600160a01b038116811462000a5e57600080fd5b919050565b600080600080600080600080610100898b03121562000a8157600080fd5b62000a8c8962000a46565b975062000a9c60208a0162000a46565b965062000aac60408a0162000a46565b955062000abc60608a0162000a46565b945062000acc60808a0162000a46565b935062000adc60a08a0162000a46565b925062000aec60c08a0162000a46565b915062000afc60e08a0162000a46565b90509295985092959890939650565b634e487b7160e01b600052604160045260246000fd5b600181811c9082168062000b3657607f821691505b60208210810362000b5757634e487b7160e01b600052602260045260246000fd5b50919050565b601f82111562000a4157600081815260208120601f850160051c8101602086101562000b865750805b601f850160051c820191505b8181101562000ba75782815560010162000b92565b505050505050565b81516001600160401b0381111562000bcb5762000bcb62000b0b565b62000be38162000bdc845462000b21565b8462000b5d565b602080601f83116001811462000c1b576000841562000c025750858301515b600019600386901b1c1916600185901b17855562000ba7565b600085815260208120601f198616915b8281101562000c4c5788860151825594840194600190910190840162000c2b565b508582101562000c6b5787850151600019600388901b60f8161c191681555b5050505050600190811b01905550565b634e487b7160e01b600052601160045260246000fd5b808202811582820484141762000482576200048262000c7b565b60008262000cc957634e487b7160e01b600052601260045260246000fd5b500490565b600060208083528351808285015260005b8181101562000cfd5785810183015185820160400152820162000cdf565b506000604082860101526040601f19601f8301168501019250505092915050565b8051602080830151919081101562000b575760001960209190910360031b1b16919050565b8082018082111562000482576200048262000c7b565b634e487b7160e01b600052603260045260246000fd5b60006001820162000d845762000d8462000c7b565b5060010190565b60805160a05160c05160e05161010051610120516101405161016051610180516101a051611cd162000e1560003960008181610445015261158f0152600081816102d50152611514015260006106680152600061063d0152600061101401526000610fec01526000610f4701526000610f7101526000610f9b0152600061024b0152611cd16000f3fe608060405234801561001057600080fd5b50600436106101cf5760003560e01c80637f523f7911610104578063b7470a2f116100a2578063e30c397811610071578063e30c397814610414578063eef855d314610425578063f2fde38b1461042d578063f8b45b051461044057600080fd5b8063b7470a2f146103b8578063d505accf146103db578063d8227254146103ee578063dd62ed3e1461040157600080fd5b806395d89b41116100de57806395d89b4114610375578063a457c2d71461037d578063a9059cbb14610390578063a973d8be146103a357600080fd5b80637f523f791461031257806384b0196e146103355780638da5cb5b1461035057600080fd5b8063380082f211610171578063715018a61161014b578063715018a6146102c85780637437681e146102d057806379ba5097146102f75780637ecebe00146102ff57600080fd5b8063380082f214610277578063395093511461028c57806370a082311461029f57600080fd5b806323b872dd116101ad57806323b872dd14610227578063313ce5671461023a578063355274ea146102495780633644e5151461026f57600080fd5b806306fdde03146101d4578063095ea7b3146101f257806318160ddd14610215575b600080fd5b6101dc610467565b6040516101e99190611990565b60405180910390f35b6102056102003660046119c6565b6104f9565b60405190151581526020016101e9565b6002545b6040519081526020016101e9565b6102056102353660046119f0565b610513565b604051601281526020016101e9565b7f0000000000000000000000000000000000000000000000000000000000000000610219565b610219610537565b61028a610285366004611a2c565b610546565b005b61020561029a3660046119c6565b61055c565b6102196102ad366004611a68565b6001600160a01b031660009081526020819052604090205490565b61028a61057e565b6102197f000000000000000000000000000000000000000000000000000000000000000081565b61028a610592565b61021961030d366004611a68565b610611565b610205610320366004611a68565b600b6020526000908152604090205460ff1681565b61033d61062f565b6040516101e99796959493929190611a83565b6009546001600160a01b03165b6040516001600160a01b0390911681526020016101e9565b6101dc6106b8565b61020561038b3660046119c6565b6106c7565b61020561039e3660046119c6565b610742565b6103ab610750565b6040516101e99190611b19565b6102056103c6366004611a68565b600c6020526000908152604090205460ff1681565b61028a6103e9366004611b66565b6108b5565b61028a6103fc366004611a2c565b610a19565b61021961040f366004611bd9565b610a2b565b600a546001600160a01b031661035d565b6103ab610a56565b61028a61043b366004611a68565b610bb5565b6102197f000000000000000000000000000000000000000000000000000000000000000081565b60606003805461047690611c0c565b80601f01602080910402602001604051908101604052809291908181526020018280546104a290611c0c565b80156104ef5780601f106104c4576101008083540402835291602001916104ef565b820191906000526020600020905b8154815290600101906020018083116104d257829003601f168201915b5050505050905090565b600033610507818585610bed565b60019150505b92915050565b600033610521858285610d11565b61052c858585610d8b565b506001949350505050565b6000610541610f3a565b905090565b61054e611065565b61055882826110bf565b5050565b60003361050781858561056f8383610a2b565b6105799190611c56565b610bed565b610586611065565b61059060006111ec565b565b600a5433906001600160a01b031681146106055760405162461bcd60e51b815260206004820152602960248201527f4f776e61626c6532537465703a2063616c6c6572206973206e6f7420746865206044820152683732bb9037bbb732b960b91b60648201526084015b60405180910390fd5b61060e816111ec565b50565b6001600160a01b03811660009081526007602052604081205461050d565b6000606080828080836106637f00000000000000000000000000000000000000000000000000000000000000006005611205565b61068e7f00000000000000000000000000000000000000000000000000000000000000006006611205565b60408051600080825260208201909252600f60f81b9b939a50919850469750309650945092509050565b60606004805461047690611c0c565b600033816106d58286610a2b565b9050838110156107355760405162461bcd60e51b815260206004820152602560248201527f45524332303a2064656372656173656420616c6c6f77616e63652062656c6f77604482015264207a65726f60d81b60648201526084016105fc565b61052c8286868403610bed565b600033610507818585610d8b565b60606000805b600d548110156107c457600b6000600d838154811061077757610777611c7f565b60009182526020808320909101546001600160a01b0316835282019290925260400190205460ff16156107b257816107ae81611c95565b9250505b806107bc81611c95565b915050610756565b508067ffffffffffffffff8111156107de576107de611c69565b604051908082528060200260200182016040528015610807578160200160208202803683370190505b5091506000805b600d548110156108af576000600d828154811061082d5761082d611c7f565b60009182526020808320909101546001600160a01b0316808352600b90915260409091205490915060ff161561089c5780858461086981611c95565b95508151811061087b5761087b611c7f565b60200260200101906001600160a01b031690816001600160a01b0316815250505b50806108a781611c95565b91505061080e565b50505090565b834211156109055760405162461bcd60e51b815260206004820152601d60248201527f45524332305065726d69743a206578706972656420646561646c696e6500000060448201526064016105fc565b60007f6e71edae12b1b97f4d1f60370fef10105fa2faae0126114a169c64845d6126c98888886109348c6112b0565b6040805160208101969096526001600160a01b0394851690860152929091166060840152608083015260a082015260c0810186905260e001604051602081830303815290604052805190602001209050600061098f826112d8565b9050600061099f82878787611305565b9050896001600160a01b0316816001600160a01b031614610a025760405162461bcd60e51b815260206004820152601e60248201527f45524332305065726d69743a20696e76616c6964207369676e6174757265000060448201526064016105fc565b610a0d8a8a8a610bed565b50505050505050505050565b610a21611065565b610558828261132d565b6001600160a01b03918216600090815260016020908152604080832093909416825291909152205490565b60606000805b600e54811015610aca57600c6000600e8381548110610a7d57610a7d611c7f565b60009182526020808320909101546001600160a01b0316835282019290925260400190205460ff1615610ab85781610ab481611c95565b9250505b80610ac281611c95565b915050610a5c565b508067ffffffffffffffff811115610ae457610ae4611c69565b604051908082528060200260200182016040528015610b0d578160200160208202803683370190505b5091506000805b600e548110156108af576000600e8281548110610b3357610b33611c7f565b60009182526020808320909101546001600160a01b0316808352600c90915260409091205490915060ff1615610ba257808584610b6f81611c95565b955081518110610b8157610b81611c7f565b60200260200101906001600160a01b031690816001600160a01b0316815250505b5080610bad81611c95565b915050610b14565b610bbd611065565b6001600160a01b038116610be45760405163d92e233d60e01b815260040160405180910390fd5b61060e8161145a565b6001600160a01b038316610c4f5760405162461bcd60e51b8152602060048201526024808201527f45524332303a20617070726f76652066726f6d20746865207a65726f206164646044820152637265737360e01b60648201526084016105fc565b6001600160a01b038216610cb05760405162461bcd60e51b815260206004820152602260248201527f45524332303a20617070726f766520746f20746865207a65726f206164647265604482015261737360f01b60648201526084016105fc565b6001600160a01b0383811660008181526001602090815260408083209487168084529482529182902085905590518481527f8c5be1e5ebec7d5bd14f71427d1e84f3dd0314c0f7b2291e5b200ac8c7c3b925910160405180910390a3505050565b6000610d1d8484610a2b565b90506000198114610d855781811015610d785760405162461bcd60e51b815260206004820152601d60248201527f45524332303a20696e73756666696369656e7420616c6c6f77616e636500000060448201526064016105fc565b610d858484848403610bed565b50505050565b6001600160a01b038316610def5760405162461bcd60e51b815260206004820152602560248201527f45524332303a207472616e736665722066726f6d20746865207a65726f206164604482015264647265737360d81b60648201526084016105fc565b6001600160a01b038216610e515760405162461bcd60e51b815260206004820152602360248201527f45524332303a207472616e7366657220746f20746865207a65726f206164647260448201526265737360e81b60648201526084016105fc565b610e5c8383836114cb565b6001600160a01b03831660009081526020819052604090205481811015610ed45760405162461bcd60e51b815260206004820152602660248201527f45524332303a207472616e7366657220616d6f756e7420657863656564732062604482015265616c616e636560d01b60648201526084016105fc565b6001600160a01b03848116600081815260208181526040808320878703905593871680835291849020805487019055925185815290927fddf252ad1be2c89b69c2b068fc378daa952ba7f163c4a11628f55a4df523b3ef910160405180910390a3610d85565b6000306001600160a01b037f000000000000000000000000000000000000000000000000000000000000000016148015610f9357507f000000000000000000000000000000000000000000000000000000000000000046145b15610fbd57507f000000000000000000000000000000000000000000000000000000000000000090565b610541604080517f8b73c3c69bb8fe3d512ecc4cf759cc79239f7b179b0ffacaa9a75d522b39400f60208201527f0000000000000000000000000000000000000000000000000000000000000000918101919091527f000000000000000000000000000000000000000000000000000000000000000060608201524660808201523060a082015260009060c00160405160208183030381529060405280519060200120905090565b6009546001600160a01b031633146105905760405162461bcd60e51b815260206004820181905260248201527f4f776e61626c653a2063616c6c6572206973206e6f7420746865206f776e657260448201526064016105fc565b6001600160a01b0382166000908152600b602052604090205460ff16151581151514611145576001600160a01b0382166000818152600b6020908152604091829020805460ff191685151590811790915591519182527fa7be5cee4dc2a04822faa6ecdaa3c2de9784c1d0d11a560503407129b04136bf910160405180910390a261118b565b816001600160a01b03167fa7be5cee4dc2a04822faa6ecdaa3c2de9784c1d0d11a560503407129b04136bf82604051611182911515815260200190565b60405180910390a25b611196600d8361161a565b1561055857600d80546001810182556000919091527fd7b6990105719101dabeb77144f2a3385c8033acd3af97e9423a695e81ad1eb50180546001600160a01b0384166001600160a01b03199091161790555050565b600a80546001600160a01b031916905561060e81611683565b606060ff831461121f57611218836116d5565b905061050d565b81805461122b90611c0c565b80601f016020809104026020016040519081016040528092919081815260200182805461125790611c0c565b80156112a45780601f10611279576101008083540402835291602001916112a4565b820191906000526020600020905b81548152906001019060200180831161128757829003601f168201915b5050505050905061050d565b6001600160a01b03811660009081526007602052604090208054600181018255905b50919050565b600061050d6112e5610f3a565b8360405161190160f01b8152600281019290925260228201526042902090565b600080600061131687878787611714565b91509150611323816117d8565b5095945050505050565b6001600160a01b0382166000908152600c602052604090205460ff161515811515146113b3576001600160a01b0382166000818152600c6020908152604091829020805460ff191685151590811790915591519182527f7d8705491af7a7520ec2fc4e511f7d92a07cf91cf521a6524ba96994dd57bd3e910160405180910390a26113f9565b816001600160a01b03167f7d8705491af7a7520ec2fc4e511f7d92a07cf91cf521a6524ba96994dd57bd3e826040516113f0911515815260200190565b60405180910390a25b611404600e8361161a565b1561055857600e80546001810182556000919091527fbb7b4a454dc3493923482f07822329ed19e8244eff582cc204f8554c3620c3fd0180546001600160a01b0384166001600160a01b03199091161790555050565b611462611065565b600a80546001600160a01b0383166001600160a01b031990911681179091556114936009546001600160a01b031690565b6001600160a01b03167f38d16b8cac22d99fc7c124b9cd0de2d3fa1faef420bfe791d8c362d765e2270060405160405180910390a350565b6001600160a01b03831615806114e857506001600160a01b038216155b156114f257505050565b6001600160a01b0383166000908152600b602052604090205460ff1661156d577f000000000000000000000000000000000000000000000000000000000000000081111561156d5760405162461bcd60e51b8152602060048201526008602482015267151617d31253525560c21b60448201526064016105fc565b6001600160a01b0382166000908152600c602052604090205460ff16611615577f0000000000000000000000000000000000000000000000000000000000000000816115ce846001600160a01b031660009081526020819052604090205490565b6115d89190611c56565b11156116155760405162461bcd60e51b815260206004820152600c60248201526b15d05313115517d31253525560a21b60448201526064016105fc565b505050565b6000805b835481101561167957826001600160a01b031684828154811061164357611643611c7f565b6000918252602090912001546001600160a01b03160361166757600091505061050d565b8061167181611c95565b91505061161e565b5060019392505050565b600980546001600160a01b038381166001600160a01b0319831681179093556040519116919082907f8be0079c531659141344cd1fd0a4f28419497f9722a3daafe3b4186f6b6457e090600090a35050565b606060006116e283611922565b604080516020808252818301909252919250600091906020820181803683375050509182525060208101929092525090565b6000807f7fffffffffffffffffffffffffffffff5d576e7357a4501ddfe92f46681b20a083111561174b57506000905060036117cf565b6040805160008082526020820180845289905260ff881692820192909252606081018690526080810185905260019060a0016020604051602081039080840390855afa15801561179f573d6000803e3d6000fd5b5050604051601f1901519150506001600160a01b0381166117c8576000600192509250506117cf565b9150600090505b94509492505050565b60008160048111156117ec576117ec611cae565b036117f45750565b600181600481111561180857611808611cae565b036118555760405162461bcd60e51b815260206004820152601860248201527f45434453413a20696e76616c6964207369676e6174757265000000000000000060448201526064016105fc565b600281600481111561186957611869611cae565b036118b65760405162461bcd60e51b815260206004820152601f60248201527f45434453413a20696e76616c6964207369676e6174757265206c656e6774680060448201526064016105fc565b60038160048111156118ca576118ca611cae565b0361060e5760405162461bcd60e51b815260206004820152602260248201527f45434453413a20696e76616c6964207369676e6174757265202773272076616c604482015261756560f01b60648201526084016105fc565b600060ff8216601f81111561050d57604051632cd44ac360e21b815260040160405180910390fd5b6000815180845260005b8181101561197057602081850181015186830182015201611954565b506000602082860101526020601f19601f83011685010191505092915050565b6020815260006119a3602083018461194a565b9392505050565b80356001600160a01b03811681146119c157600080fd5b919050565b600080604083850312156119d957600080fd5b6119e2836119aa565b946020939093013593505050565b600080600060608486031215611a0557600080fd5b611a0e846119aa565b9250611a1c602085016119aa565b9150604084013590509250925092565b60008060408385031215611a3f57600080fd5b611a48836119aa565b915060208301358015158114611a5d57600080fd5b809150509250929050565b600060208284031215611a7a57600080fd5b6119a3826119aa565b60ff60f81b881681526000602060e081840152611aa360e084018a61194a565b8381036040850152611ab5818a61194a565b606085018990526001600160a01b038816608086015260a0850187905284810360c0860152855180825283870192509083019060005b81811015611b0757835183529284019291840191600101611aeb565b50909c9b505050505050505050505050565b6020808252825182820181905260009190848201906040850190845b81811015611b5a5783516001600160a01b031683529284019291840191600101611b35565b50909695505050505050565b600080600080600080600060e0888a031215611b8157600080fd5b611b8a886119aa565b9650611b98602089016119aa565b95506040880135945060608801359350608088013560ff81168114611bbc57600080fd5b9699959850939692959460a0840135945060c09093013592915050565b60008060408385031215611bec57600080fd5b611bf5836119aa565b9150611c03602084016119aa565b90509250929050565b600181811c90821680611c2057607f821691505b6020821081036112d257634e487b7160e01b600052602260045260246000fd5b634e487b7160e01b600052601160045260246000fd5b8082018082111561050d5761050d611c40565b634e487b7160e01b600052604160045260246000fd5b634e487b7160e01b600052603260045260246000fd5b600060018201611ca757611ca7611c40565b5060010190565b634e487b7160e01b600052602160045260246000fdfea164736f6c6343000813000aa7be5cee4dc2a04822faa6ecdaa3c2de9784c1d0d11a560503407129b04136bf7d8705491af7a7520ec2fc4e511f7d92a07cf91cf521a6524ba96994dd57bd3e","linkReferences":{}},"methodIdentifiers":{"DOMAIN_SEPARATOR()":"3644e515","acceptOwnership()":"79ba5097","allowance(address,address)":"dd62ed3e","approve(address,uint256)":"095ea7b3","balanceOf(address)":"70a08231","cap()":"355274ea","decimals()":"313ce567","decreaseAllowance(address,uint256)":"a457c2d7","eip712Domain()":"84b0196e","getTxLimitExcluded()":"a973d8be","getWalletLimitExcluded()":"eef855d3","increaseAllowance(address,uint256)":"39509351","isTxLimitExcluded(address)":"7f523f79","isWalletLimitExcluded(address)":"b7470a2f","maxTx()":"7437681e","maxWallet()":"f8b45b05","name()":"06fdde03","nonces(address)":"7ecebe00","owner()":"8da5cb5b","pendingOwner()":"e30c3978","permit(address,address,uint256,uint256,uint8,bytes32,bytes32)":"d505accf","renounceOwnership()":"715018a6","setTxLimitExcluded(address,bool)":"380082f2","setWalletLimitExcluded(address,bool)":"d8227254","symbol()":"95d89b41","totalSupply()":"18160ddd","transfer(address,uint256)":"a9059cbb","transferFrom(address,address,uint256)":"23b872dd","transferOwnership(address)":"f2fde38b"},"id":1}