{"abi":[{"type":"constructor","inputs":[{"name":"treasury","type":"address","internalType":"address"}],"stateMutability":"nonpayable"},{"type":"function","name":"MAX_SUPPLY","inputs":[],"outputs":[{"name":"","type":"uint256","internalType":"uint256"}],"stateMutability":"view"},{"type":"function","name":"allowance","inputs":[{"name":"owner","type":"address","internalType":"address"},{"name":"spender","type":"address","internalType":"address"}],"outputs":[{"name":"","type":"uint256","internalType":"uint256"}],"stateMutability":"view"},{"type":"function","name":"approve","inputs":[{"name":"spender","type":"address","internalType":"address"},{"name":"value","type":"uint256","internalType":"uint256"}],"outputs":[{"name":"","type":"bool","internalType":"bool"}],"stateMutability":"nonpayable"},{"type":"function","name":"balanceOf","inputs":[{"name":"account","type":"address","internalType":"address"}],"outputs":[{"name":"","type":"uint256","internalType":"uint256"}],"stateMutability":"view"},{"type":"function","name":"decimals","inputs":[],"outputs":[{"name":"","type":"uint8","internalType":"uint8"}],"stateMutability":"view"},{"type":"function","name":"name","inputs":[],"outputs":[{"name":"","type":"string","internalType":"string"}],"stateMutability":"view"},{"type":"function","name":"owner","inputs":[],"outputs":[{"name":"","type":"address","internalType":"address"}],"stateMutability":"view"},{"type":"function","name":"renounceOwnership","inputs":[],"outputs":[],"stateMutability":"nonpayable"},{"type":"function","name":"symbol","inputs":[],"outputs":[{"name":"","type":"string","internalType":"string"}],"stateMutability":"view"},{"type":"function","name":"totalSupply","inputs":[],"outputs":[{"name":"","type":"uint256","internalType":"uint256"}],"stateMutability":"view"},{"type":"function","name":"transfer","inputs":[{"name":"to","type":"address","internalType":"address"},{"name":"value","type":"uint256","internalType":"uint256"}],"outputs":[{"name":"","type":"bool","internalType":"bool"}],"stateMutability":"nonpayable"},{"type":"function","name":"transferFrom","inputs":[{"name":"from","type":"address","internalType":"address"},{"name":"to","type":"address","internalType":"address"},{"name":"value","type":"uint256","internalType":"uint256"}],"outputs":[{"name":"","type":"bool","internalType":"bool"}],"stateMutability":"nonpayable"},{"type":"function","name":"transferOwnership","inputs":[{"name":"newOwner","type":"address","internalType":"address"}],"outputs":[],"stateMutability":"nonpayable"},{"type":"event","name":"Approval","inputs":[{"name":"owner","type":"address","indexed":true,"internalType":"address"},{"name":"spender","type":"address","indexed":true,"internalType":"address"},{"name":"value","type":"uint256","indexed":false,"internalType":"uint256"}],"anonymous":false},{"type":"event","name":"OwnershipTransferred","inputs":[{"name":"previousOwner","type":"address","indexed":true,"internalType":"address"},{"name":"newOwner","type":"address","indexed":true,"internalType":"address"}],"anonymous":false},{"type":"event","name":"Transfer","inputs":[{"name":"from","type":"address","indexed":true,"internalType":"address"},{"name":"to","type":"address","indexed":true,"internalType":"address"},{"name":"value","type":"uint256","indexed":false,"internalType":"uint256"}],"anonymous":false},{"type":"error","name":"ERC20InsufficientAllowance","inputs":[{"name":"spender","type":"address","internalType":"address"},{"name":"allowance","type":"uint256","internalType":"uint256"},{"name":"needed","type":"uint256","internalType":"uint256"}]},{"type":"error","name":"ERC20InsufficientBalance","inputs":[{"name":"sender","type":"address","internalType":"address"},{"name":"balance","type":"uint256","internalType":"uint256"},{"name":"needed","type":"uint256","internalType":"uint256"}]},{"type":"error","name":"ERC20InvalidApprover","inputs":[{"name":"approver","type":"address","internalType":"address"}]},{"type":"error","name":"ERC20InvalidReceiver","inputs":[{"name":"receiver","type":"address","internalType":"address"}]},{"type":"error","name":"ERC20InvalidSender","inputs":[{"name":"sender","type":"address","internalType":"address"}]},{"type":"error","name":"ERC20InvalidSpender","inputs":[{"name":"spender","type":"address","internalType":"address"}]},{"type":"error","name":"OwnableInvalidOwner","inputs":[{"name":"owner","type":"address","internalType":"address"}]},{"type":"error","name":"OwnableUnauthorizedAccount","inputs":[{"name":"account","type":"address","internalType":"address"}]}],"bytecode":{"object":"0x608060405234801561000f575f5ffd5b506040516119e33803806119e383398181016040528101906100319190610521565b336040518060400160405280601981526020017f42696720566973696f6e20506963747572657320546f6b656e000000000000008152506040518060400160405280600381526020017f425650000000000000000000000000000000000000000000000000000000000081525081600390816100ad9190610789565b5080600490816100bd9190610789565b5050505f73ffffffffffffffffffffffffffffffffffffffff168173ffffffffffffffffffffffffffffffffffffffff1603610130575f6040517f1e4fbdf70000000000000000000000000000000000000000000000000000000081526004016101279190610867565b60405180910390fd5b61013f8161016260201b60201c565b5061015c336b033b2e3c9fd0803ce800000061022560201b60201c565b5061093d565b5f60055f9054906101000a900473ffffffffffffffffffffffffffffffffffffffff1690508160055f6101000a81548173ffffffffffffffffffffffffffffffffffffffff021916908373ffffffffffffffffffffffffffffffffffffffff1602179055508173ffffffffffffffffffffffffffffffffffffffff168173ffffffffffffffffffffffffffffffffffffffff167f8be0079c531659141344cd1fd0a4f28419497f9722a3daafe3b4186f6b6457e060405160405180910390a35050565b5f73ffffffffffffffffffffffffffffffffffffffff168273ffffffffffffffffffffffffffffffffffffffff1603610295575f6040517fec442f0500000000000000000000000000000000000000000000000000000000815260040161028c9190610867565b60405180910390fd5b6102a65f83836102aa60201b60201c565b5050565b5f73ffffffffffffffffffffffffffffffffffffffff168373ffffffffffffffffffffffffffffffffffffffff16036102fa578060025f8282546102ee91906108ad565b925050819055506103c8565b5f5f5f8573ffffffffffffffffffffffffffffffffffffffff1673ffffffffffffffffffffffffffffffffffffffff1681526020019081526020015f2054905081811015610383578381836040517fe450d38c00000000000000000000000000000000000000000000000000000000815260040161037a939291906108ef565b60405180910390fd5b8181035f5f8673ffffffffffffffffffffffffffffffffffffffff1673ffffffffffffffffffffffffffffffffffffffff1681526020019081526020015f2081905550505b5f73ffffffffffffffffffffffffffffffffffffffff168273ffffffffffffffffffffffffffffffffffffffff160361040f578060025f8282540392505081905550610459565b805f5f8473ffffffffffffffffffffffffffffffffffffffff1673ffffffffffffffffffffffffffffffffffffffff1681526020019081526020015f205f82825401925050819055505b8173ffffffffffffffffffffffffffffffffffffffff168373ffffffffffffffffffffffffffffffffffffffff167fddf252ad1be2c89b69c2b068fc378daa952ba7f163c4a11628f55a4df523b3ef836040516104b69190610924565b60405180910390a3505050565b5f5ffd5b5f73ffffffffffffffffffffffffffffffffffffffff82169050919050565b5f6104f0826104c7565b9050919050565b610500816104e6565b811461050a575f5ffd5b50565b5f8151905061051b816104f7565b92915050565b5f60208284031215610536576105356104c3565b5b5f6105438482850161050d565b91505092915050565b5f81519050919050565b7f4e487b71000000000000000000000000000000000000000000000000000000005f52604160045260245ffd5b7f4e487b71000000000000000000000000000000000000000000000000000000005f52602260045260245ffd5b5f60028204905060018216806105c757607f821691505b6020821081036105da576105d9610583565b5b50919050565b5f819050815f5260205f209050919050565b5f6020601f8301049050919050565b5f82821b905092915050565b5f6008830261063c7fffffffffffffffffffffffffffffffffffffffffffffffffffffffffffffffff82610601565b6106468683610601565b95508019841693508086168417925050509392505050565b5f819050919050565b5f819050919050565b5f61068a6106856106808461065e565b610667565b61065e565b9050919050565b5f819050919050565b6106a383610670565b6106b76106af82610691565b84845461060d565b825550505050565b5f5f905090565b6106ce6106bf565b6106d981848461069a565b505050565b5b818110156106fc576106f15f826106c6565b6001810190506106df565b5050565b601f82111561074157610712816105e0565b61071b846105f2565b8101602085101561072a578190505b61073e610736856105f2565b8301826106de565b50505b505050565b5f82821c905092915050565b5f6107615f1984600802610746565b1980831691505092915050565b5f6107798383610752565b9150826002028217905092915050565b6107928261054c565b67ffffffffffffffff8111156107ab576107aa610556565b5b6107b582546105b0565b6107c0828285610700565b5f60209050601f8311600181146107f1575f84156107df578287015190505b6107e9858261076e565b865550610850565b601f1984166107ff866105e0565b5f5b8281101561082657848901518255600182019150602085019450602081019050610801565b86831015610843578489015161083f601f891682610752565b8355505b6001600288020188555050505b505050505050565b610861816104e6565b82525050565b5f60208201905061087a5f830184610858565b92915050565b7f4e487b71000000000000000000000000000000000000000000000000000000005f52601160045260245ffd5b5f6108b78261065e565b91506108c28361065e565b92508282019050808211156108da576108d9610880565b5b92915050565b6108e98161065e565b82525050565b5f6060820190506109025f830186610858565b61090f60208301856108e0565b61091c60408301846108e0565b949350505050565b5f6020820190506109375f8301846108e0565b92915050565b6110998061094a5f395ff3fe608060405234801561000f575f5ffd5b50600436106100cd575f3560e01c806370a082311161008a57806395d89b411161006457806395d89b4114610201578063a9059cbb1461021f578063dd62ed3e1461024f578063f2fde38b1461027f576100cd565b806370a08231146101a9578063715018a6146101d95780638da5cb5b146101e3576100cd565b806306fdde03146100d1578063095ea7b3146100ef57806318160ddd1461011f57806323b872dd1461013d578063313ce5671461016d57806332cb6b0c1461018b575b5f5ffd5b6100d961029b565b6040516100e69190610d12565b60405180910390f35b61010960048036038101906101049190610dc3565b61032b565b6040516101169190610e1b565b60405180910390f35b61012761034d565b6040516101349190610e43565b60405180910390f35b61015760048036038101906101529190610e5c565b610356565b6040516101649190610e1b565b60405180910390f35b610175610384565b6040516101829190610ec7565b60405180910390f35b61019361038c565b6040516101a09190610e43565b60405180910390f35b6101c360048036038101906101be9190610ee0565b61039c565b6040516101d09190610e43565b60405180910390f35b6101e16103e1565b005b6101eb6103f4565b6040516101f89190610f1a565b60405180910390f35b61020961041c565b6040516102169190610d12565b60405180910390f35b61023960048036038101906102349190610dc3565b6104ac565b6040516102469190610e1b565b60405180910390f35b61026960048036038101906102649190610f33565b6104ce565b6040516102769190610e43565b60405180910390f35b61029960048036038101906102949190610ee0565b610550565b005b6060600380546102aa90610f9e565b80601f01602080910402602001604051908101604052809291908181526020018280546102d690610f9e565b80156103215780601f106102f857610100808354040283529160200191610321565b820191905f5260205f20905b81548152906001019060200180831161030457829003601f168201915b5050505050905090565b5f5f6103356105d4565b90506103428185856105db565b600191505092915050565b5f600254905090565b5f5f6103606105d4565b905061036d8582856105ed565b610378858585610680565b60019150509392505050565b5f6012905090565b6b033b2e3c9fd0803ce800000081565b5f5f5f8373ffffffffffffffffffffffffffffffffffffffff1673ffffffffffffffffffffffffffffffffffffffff1681526020019081526020015f20549050919050565b6103e9610770565b6103f25f6107f7565b565b5f60055f9054906101000a900473ffffffffffffffffffffffffffffffffffffffff16905090565b60606004805461042b90610f9e565b80601f016020809104026020016040519081016040528092919081815260200182805461045790610f9e565b80156104a25780601f10610479576101008083540402835291602001916104a2565b820191905f5260205f20905b81548152906001019060200180831161048557829003601f168201915b5050505050905090565b5f5f6104b66105d4565b90506104c3818585610680565b600191505092915050565b5f60015f8473ffffffffffffffffffffffffffffffffffffffff1673ffffffffffffffffffffffffffffffffffffffff1681526020019081526020015f205f8373ffffffffffffffffffffffffffffffffffffffff1673ffffffffffffffffffffffffffffffffffffffff1681526020019081526020015f2054905092915050565b610558610770565b5f73ffffffffffffffffffffffffffffffffffffffff168173ffffffffffffffffffffffffffffffffffffffff16036105c8575f6040517f1e4fbdf70000000000000000000000000000000000000000000000000000000081526004016105bf9190610f1a565b60405180910390fd5b6105d1816107f7565b50565b5f33905090565b6105e883838360016108ba565b505050565b5f6105f884846104ce565b90507fffffffffffffffffffffffffffffffffffffffffffffffffffffffffffffffff81101561067a578181101561066b578281836040517ffb8f41b200000000000000000000000000000000000000000000000000000000815260040161066293929190610fce565b60405180910390fd5b61067984848484035f6108ba565b5b50505050565b5f73ffffffffffffffffffffffffffffffffffffffff168373ffffffffffffffffffffffffffffffffffffffff16036106f0575f6040517f96c6fd1e0000000000000000000000000000000000000000000000000000000081526004016106e79190610f1a565b60405180910390fd5b5f73ffffffffffffffffffffffffffffffffffffffff168273ffffffffffffffffffffffffffffffffffffffff1603610760575f6040517fec442f050000000000000000000000000000000000000000000000000000000081526004016107579190610f1a565b60405180910390fd5b61076b838383610a89565b505050565b6107786105d4565b73ffffffffffffffffffffffffffffffffffffffff166107966103f4565b73ffffffffffffffffffffffffffffffffffffffff16146107f5576107b96105d4565b6040517f118cdaa70000000000000000000000000000000000000000000000000000000081526004016107ec9190610f1a565b60405180910390fd5b565b5f60055f9054906101000a900473ffffffffffffffffffffffffffffffffffffffff1690508160055f6101000a81548173ffffffffffffffffffffffffffffffffffffffff021916908373ffffffffffffffffffffffffffffffffffffffff1602179055508173ffffffffffffffffffffffffffffffffffffffff168173ffffffffffffffffffffffffffffffffffffffff167f8be0079c531659141344cd1fd0a4f28419497f9722a3daafe3b4186f6b6457e060405160405180910390a35050565b5f73ffffffffffffffffffffffffffffffffffffffff168473ffffffffffffffffffffffffffffffffffffffff160361092a575f6040517fe602df050000000000000000000000000000000000000000000000000000000081526004016109219190610f1a565b60405180910390fd5b5f73ffffffffffffffffffffffffffffffffffffffff168373ffffffffffffffffffffffffffffffffffffffff160361099a575f6040517f94280d620000000000000000000000000000000000000000000000000000000081526004016109919190610f1a565b60405180910390fd5b8160015f8673ffffffffffffffffffffffffffffffffffffffff1673ffffffffffffffffffffffffffffffffffffffff1681526020019081526020015f205f8573ffffffffffffffffffffffffffffffffffffffff1673ffffffffffffffffffffffffffffffffffffffff1681526020019081526020015f20819055508015610a83578273ffffffffffffffffffffffffffffffffffffffff168473ffffffffffffffffffffffffffffffffffffffff167f8c5be1e5ebec7d5bd14f71427d1e84f3dd0314c0f7b2291e5b200ac8c7c3b92584604051610a7a9190610e43565b60405180910390a35b50505050565b5f73ffffffffffffffffffffffffffffffffffffffff168373ffffffffffffffffffffffffffffffffffffffff1603610ad9578060025f828254610acd9190611030565b92505081905550610ba7565b5f5f5f8573ffffffffffffffffffffffffffffffffffffffff1673ffffffffffffffffffffffffffffffffffffffff1681526020019081526020015f2054905081811015610b62578381836040517fe450d38c000000000000000000000000000000000000000000000000000000008152600401610b5993929190610fce565b60405180910390fd5b8181035f5f8673ffffffffffffffffffffffffffffffffffffffff1673ffffffffffffffffffffffffffffffffffffffff1681526020019081526020015f2081905550505b5f73ffffffffffffffffffffffffffffffffffffffff168273ffffffffffffffffffffffffffffffffffffffff1603610bee578060025f8282540392505081905550610c38565b805f5f8473ffffffffffffffffffffffffffffffffffffffff1673ffffffffffffffffffffffffffffffffffffffff1681526020019081526020015f205f82825401925050819055505b8173ffffffffffffffffffffffffffffffffffffffff168373ffffffffffffffffffffffffffffffffffffffff167fddf252ad1be2c89b69c2b068fc378daa952ba7f163c4a11628f55a4df523b3ef83604051610c959190610e43565b60405180910390a3505050565b5f81519050919050565b5f82825260208201905092915050565b8281835e5f83830152505050565b5f601f19601f8301169050919050565b5f610ce482610ca2565b610cee8185610cac565b9350610cfe818560208601610cbc565b610d0781610cca565b840191505092915050565b5f6020820190508181035f830152610d2a8184610cda565b905092915050565b5f5ffd5b5f73ffffffffffffffffffffffffffffffffffffffff82169050919050565b5f610d5f82610d36565b9050919050565b610d6f81610d55565b8114610d79575f5ffd5b50565b5f81359050610d8a81610d66565b92915050565b5f819050919050565b610da281610d90565b8114610dac575f5ffd5b50565b5f81359050610dbd81610d99565b92915050565b5f5f60408385031215610dd957610dd8610d32565b5b5f610de685828601610d7c565b9250506020610df785828601610daf565b9150509250929050565b5f8115159050919050565b610e1581610e01565b82525050565b5f602082019050610e2e5f830184610e0c565b92915050565b610e3d81610d90565b82525050565b5f602082019050610e565f830184610e34565b92915050565b5f5f5f60608486031215610e7357610e72610d32565b5b5f610e8086828701610d7c565b9350506020610e9186828701610d7c565b9250506040610ea286828701610daf565b9150509250925092565b5f60ff82169050919050565b610ec181610eac565b82525050565b5f602082019050610eda5f830184610eb8565b92915050565b5f60208284031215610ef557610ef4610d32565b5b5f610f0284828501610d7c565b91505092915050565b610f1481610d55565b82525050565b5f602082019050610f2d5f830184610f0b565b92915050565b5f5f60408385031215610f4957610f48610d32565b5b5f610f5685828601610d7c565b9250506020610f6785828601610d7c565b9150509250929050565b7f4e487b71000000000000000000000000000000000000000000000000000000005f52602260045260245ffd5b5f6002820490506001821680610fb557607f821691505b602082108103610fc857610fc7610f71565b5b50919050565b5f606082019050610fe15f830186610f0b565b610fee6020830185610e34565b610ffb6040830184610e34565b949350505050565b7f4e487b71000000000000000000000000000000000000000000000000000000005f52601160045260245ffd5b5f61103a82610d90565b915061104583610d90565b925082820190508082111561105d5761105c611003565b5b9291505056fea2646970667358221220ecd676bc45951d15271e80b1708275d0baa8b427da76426a07d77211372a8d6464736f6c634300081d0033","linkReferences":{}},"methodIdentifiers":{"MAX_SUPPLY()":"32cb6b0c","allowance(address,address)":"dd62ed3e","approve(address,uint256)":"095ea7b3","balanceOf(address)":"70a08231","decimals()":"313ce567","name()":"06fdde03","owner()":"8da5cb5b","renounceOwnership()":"715018a6","symbol()":"95d89b41","totalSupply()":"18160ddd","transfer(address,uint256)":"a9059cbb","transferFrom(address,address,uint256)":"23b872dd","transferOwnership(address)":"f2fde38b"},"id":1}