{"abi":[{"type":"constructor","inputs":[{"name":"_token","type":"address","internalType":"contract IERC20"}],"stateMutability":"nonpayable"},{"type":"function","name":"LOCK_TIME","inputs":[],"outputs":[{"name":"","type":"uint256","internalType":"uint256"}],"stateMutability":"view"},{"type":"function","name":"bvpToken","inputs":[],"outputs":[{"name":"","type":"address","internalType":"contract IERC20"}],"stateMutability":"view"},{"type":"function","name":"emergencyWithdraw","inputs":[{"name":"user","type":"address","internalType":"address"}],"outputs":[],"stateMutability":"nonpayable"},{"type":"function","name":"getTier","inputs":[{"name":"user","type":"address","internalType":"address"}],"outputs":[{"name":"","type":"string","internalType":"string"}],"stateMutability":"view"},{"type":"function","name":"owner","inputs":[],"outputs":[{"name":"","type":"address","internalType":"address"}],"stateMutability":"view"},{"type":"function","name":"renounceOwnership","inputs":[],"outputs":[],"stateMutability":"nonpayable"},{"type":"function","name":"stake","inputs":[{"name":"amount","type":"uint256","internalType":"uint256"}],"outputs":[],"stateMutability":"nonpayable"},{"type":"function","name":"stakes","inputs":[{"name":"","type":"address","internalType":"address"}],"outputs":[{"name":"amount","type":"uint256","internalType":"uint256"},{"name":"timestamp","type":"uint256","internalType":"uint256"},{"name":"unlocked","type":"bool","internalType":"bool"}],"stateMutability":"view"},{"type":"function","name":"transferOwnership","inputs":[{"name":"newOwner","type":"address","internalType":"address"}],"outputs":[],"stateMutability":"nonpayable"},{"type":"function","name":"unlock","inputs":[],"outputs":[],"stateMutability":"nonpayable"},{"type":"function","name":"unstake","inputs":[],"outputs":[],"stateMutability":"nonpayable"},{"type":"event","name":"OwnershipTransferred","inputs":[{"name":"previousOwner","type":"address","indexed":true,"internalType":"address"},{"name":"newOwner","type":"address","indexed":true,"internalType":"address"}],"anonymous":false},{"type":"error","name":"OwnableInvalidOwner","inputs":[{"name":"owner","type":"address","internalType":"address"}]},{"type":"error","name":"OwnableUnauthorizedAccount","inputs":[{"name":"account","type":"address","internalType":"address"}]}],"bytecode":{"object":"0x60a060405234801561000f575f5ffd5b506040516116013803806116018339818101604052810190610031919061021c565b335f73ffffffffffffffffffffffffffffffffffffffff168173ffffffffffffffffffffffffffffffffffffffff16036100a2575f6040517f1e4fbdf70000000000000000000000000000000000000000000000000000000081526004016100999190610256565b60405180910390fd5b6100b1816100ec60201b60201c565b508073ffffffffffffffffffffffffffffffffffffffff1660808173ffffffffffffffffffffffffffffffffffffffff16815250505061026f565b5f5f5f9054906101000a900473ffffffffffffffffffffffffffffffffffffffff169050815f5f6101000a81548173ffffffffffffffffffffffffffffffffffffffff021916908373ffffffffffffffffffffffffffffffffffffffff1602179055508173ffffffffffffffffffffffffffffffffffffffff168173ffffffffffffffffffffffffffffffffffffffff167f8be0079c531659141344cd1fd0a4f28419497f9722a3daafe3b4186f6b6457e060405160405180910390a35050565b5f5ffd5b5f73ffffffffffffffffffffffffffffffffffffffff82169050919050565b5f6101da826101b1565b9050919050565b5f6101eb826101d0565b9050919050565b6101fb816101e1565b8114610205575f5ffd5b50565b5f81519050610216816101f2565b92915050565b5f60208284031215610231576102306101ad565b5b5f61023e84828501610208565b91505092915050565b610250816101d0565b82525050565b5f6020820190506102695f830184610247565b92915050565b60805161136561029c5f395f81816102ee01528181610431015281816105d60152610ae301526113655ff3fe608060405234801561000f575f5ffd5b50600436106100a7575f3560e01c80638da5cb5b1161006f5780638da5cb5b1461012b578063a694fc3a14610149578063a69df4b514610165578063b45aae521461016f578063f2fde38b1461019f578063fd2ef43b146101bb576100a7565b806316934fc4146100ab5780632def6620146100dd578063413d9c3a146100e75780636ff1c9bc14610105578063715018a614610121575b5f5ffd5b6100c560048036038101906100c09190610cb2565b6101d9565b6040516100d493929190610d0f565b60405180910390f35b6100e561020b565b005b6100ef61038c565b6040516100fc9190610d44565b60405180910390f35b61011f600480360381019061011a9190610cb2565b610393565b005b6101296104d7565b005b6101336104ea565b6040516101409190610d6c565b60405180910390f35b610163600480360381019061015e9190610daf565b610511565b005b61016d610703565b005b61018960048036038101906101849190610cb2565b61084d565b6040516101969190610e4a565b60405180910390f35b6101b960048036038101906101b49190610cb2565b610a5d565b005b6101c3610ae1565b6040516101d09190610ec5565b60405180910390f35b6001602052805f5260405f205f91509050805f015490806001015490806002015f9054906101000a900460ff16905083565b5f60015f3373ffffffffffffffffffffffffffffffffffffffff1673ffffffffffffffffffffffffffffffffffffffff1681526020019081526020015f209050806002015f9054906101000a900460ff1661029b576040517f08c379a000000000000000000000000000000000000000000000000000000000815260040161029290610f28565b60405180910390fd5b5f815f015490505f81116102e4576040517f08c379a00000000000000000000000000000000000000000000000000000000081526004016102db90610f90565b60405180910390fd5b5f825f01819055507f000000000000000000000000000000000000000000000000000000000000000073ffffffffffffffffffffffffffffffffffffffff1663a9059cbb33836040518363ffffffff1660e01b8152600401610347929190610fae565b6020604051808303815f875af1158015610363573d5f5f3e3d5ffd5b505050506040513d601f19601f820116820180604052508101906103879190610fff565b505050565b6276a70081565b61039b610b05565b5f60015f8373ffffffffffffffffffffffffffffffffffffffff1673ffffffffffffffffffffffffffffffffffffffff1681526020019081526020015f2090505f815f015411610420576040517f08c379a000000000000000000000000000000000000000000000000000000000815260040161041790611074565b60405180910390fd5b5f815f015490505f825f01819055507f000000000000000000000000000000000000000000000000000000000000000073ffffffffffffffffffffffffffffffffffffffff1663a9059cbb6104736104ea565b836040518363ffffffff1660e01b8152600401610491929190610fae565b6020604051808303815f875af11580156104ad573d5f5f3e3d5ffd5b505050506040513d601f19601f820116820180604052508101906104d19190610fff565b50505050565b6104df610b05565b6104e85f610b8c565b565b5f5f5f9054906101000a900473ffffffffffffffffffffffffffffffffffffffff16905090565b5f8111610553576040517f08c379a000000000000000000000000000000000000000000000000000000000815260040161054a906110dc565b60405180910390fd5b5f60015f3373ffffffffffffffffffffffffffffffffffffffff1673ffffffffffffffffffffffffffffffffffffffff1681526020019081526020015f205f0154146105d4576040517f08c379a00000000000000000000000000000000000000000000000000000000081526004016105cb90611144565b60405180910390fd5b7f000000000000000000000000000000000000000000000000000000000000000073ffffffffffffffffffffffffffffffffffffffff166323b872dd3330846040518463ffffffff1660e01b815260040161063193929190611162565b6020604051808303815f875af115801561064d573d5f5f3e3d5ffd5b505050506040513d601f19601f820116820180604052508101906106719190610fff565b5060405180606001604052808281526020014281526020015f151581525060015f3373ffffffffffffffffffffffffffffffffffffffff1673ffffffffffffffffffffffffffffffffffffffff1681526020019081526020015f205f820151815f0155602082015181600101556040820151816002015f6101000a81548160ff02191690831515021790555090505050565b5f60015f3373ffffffffffffffffffffffffffffffffffffffff1673ffffffffffffffffffffffffffffffffffffffff1681526020019081526020015f2090505f815f015411610788576040517f08c379a000000000000000000000000000000000000000000000000000000000815260040161077f906111e1565b60405180910390fd5b806002015f9054906101000a900460ff16156107d9576040517f08c379a00000000000000000000000000000000000000000000000000000000081526004016107d090611249565b60405180910390fd5b6276a70081600101546107ec9190611294565b42101561082e576040517f08c379a000000000000000000000000000000000000000000000000000000000815260040161082590611311565b60405180910390fd5b6001816002015f6101000a81548160ff02191690831515021790555050565b60605f60015f8473ffffffffffffffffffffffffffffffffffffffff1673ffffffffffffffffffffffffffffffffffffffff1681526020019081526020015f205f015490506a01a784379d99db4200000081106108e2576040518060400160405280600781526020017f4469616d6f6e6400000000000000000000000000000000000000000000000000815250915050610a58565b69d3c21bcecceda10000008110610931576040518060400160405280600881526020017f506c6174696e756d000000000000000000000000000000000000000000000000815250915050610a58565b6969e10de76676d08000008110610980576040518060400160405280600481526020017f476f6c6400000000000000000000000000000000000000000000000000000000815250915050610a58565b69152d02c7e14af680000081106109cf576040518060400160405280600681526020017f53696c7665720000000000000000000000000000000000000000000000000000815250915050610a58565b69043c33c19375648000008110610a1e576040518060400160405280600681526020017f42726f6e7a650000000000000000000000000000000000000000000000000000815250915050610a58565b6040518060400160405280600481526020017f4e6f6e65000000000000000000000000000000000000000000000000000000008152509150505b919050565b610a65610b05565b5f73ffffffffffffffffffffffffffffffffffffffff168173ffffffffffffffffffffffffffffffffffffffff1603610ad5575f6040517f1e4fbdf7000000000000000000000000000000000000000000000000000000008152600401610acc9190610d6c565b60405180910390fd5b610ade81610b8c565b50565b7f000000000000000000000000000000000000000000000000000000000000000081565b610b0d610c4d565b73ffffffffffffffffffffffffffffffffffffffff16610b2b6104ea565b73ffffffffffffffffffffffffffffffffffffffff1614610b8a57610b4e610c4d565b6040517f118cdaa7000000000000000000000000000000000000000000000000000000008152600401610b819190610d6c565b60405180910390fd5b565b5f5f5f9054906101000a900473ffffffffffffffffffffffffffffffffffffffff169050815f5f6101000a81548173ffffffffffffffffffffffffffffffffffffffff021916908373ffffffffffffffffffffffffffffffffffffffff1602179055508173ffffffffffffffffffffffffffffffffffffffff168173ffffffffffffffffffffffffffffffffffffffff167f8be0079c531659141344cd1fd0a4f28419497f9722a3daafe3b4186f6b6457e060405160405180910390a35050565b5f33905090565b5f5ffd5b5f73ffffffffffffffffffffffffffffffffffffffff82169050919050565b5f610c8182610c58565b9050919050565b610c9181610c77565b8114610c9b575f5ffd5b50565b5f81359050610cac81610c88565b92915050565b5f60208284031215610cc757610cc6610c54565b5b5f610cd484828501610c9e565b91505092915050565b5f819050919050565b610cef81610cdd565b82525050565b5f8115159050919050565b610d0981610cf5565b82525050565b5f606082019050610d225f830186610ce6565b610d2f6020830185610ce6565b610d3c6040830184610d00565b949350505050565b5f602082019050610d575f830184610ce6565b92915050565b610d6681610c77565b82525050565b5f602082019050610d7f5f830184610d5d565b92915050565b610d8e81610cdd565b8114610d98575f5ffd5b50565b5f81359050610da981610d85565b92915050565b5f60208284031215610dc457610dc3610c54565b5b5f610dd184828501610d9b565b91505092915050565b5f81519050919050565b5f82825260208201905092915050565b8281835e5f83830152505050565b5f601f19601f8301169050919050565b5f610e1c82610dda565b610e268185610de4565b9350610e36818560208601610df4565b610e3f81610e02565b840191505092915050565b5f6020820190508181035f830152610e628184610e12565b905092915050565b5f819050919050565b5f610e8d610e88610e8384610c58565b610e6a565b610c58565b9050919050565b5f610e9e82610e73565b9050919050565b5f610eaf82610e94565b9050919050565b610ebf81610ea5565b82525050565b5f602082019050610ed85f830184610eb6565b92915050565b7f4e6f7420756e6c6f636b656400000000000000000000000000000000000000005f82015250565b5f610f12600c83610de4565b9150610f1d82610ede565b602082019050919050565b5f6020820190508181035f830152610f3f81610f06565b9050919050565b7f4e6f207374616b65642062616c616e63650000000000000000000000000000005f82015250565b5f610f7a601183610de4565b9150610f8582610f46565b602082019050919050565b5f6020820190508181035f830152610fa781610f6e565b9050919050565b5f604082019050610fc15f830185610d5d565b610fce6020830184610ce6565b9392505050565b610fde81610cf5565b8114610fe8575f5ffd5b50565b5f81519050610ff981610fd5565b92915050565b5f6020828403121561101457611013610c54565b5b5f61102184828501610feb565b91505092915050565b7f4e6f7468696e6720746f207769746864726177000000000000000000000000005f82015250565b5f61105e601383610de4565b91506110698261102a565b602082019050919050565b5f6020820190508181035f83015261108b81611052565b9050919050565b7f496e76616c696420616d6f756e740000000000000000000000000000000000005f82015250565b5f6110c6600e83610de4565b91506110d182611092565b602082019050919050565b5f6020820190508181035f8301526110f3816110ba565b9050919050565b7f416c7265616479207374616b65640000000000000000000000000000000000005f82015250565b5f61112e600e83610de4565b9150611139826110fa565b602082019050919050565b5f6020820190508181035f83015261115b81611122565b9050919050565b5f6060820190506111755f830186610d5d565b6111826020830185610d5d565b61118f6040830184610ce6565b949350505050565b7f4e6f207374616b650000000000000000000000000000000000000000000000005f82015250565b5f6111cb600883610de4565b91506111d682611197565b602082019050919050565b5f6020820190508181035f8301526111f8816111bf565b9050919050565b7f416c726561647920756e6c6f636b6564000000000000000000000000000000005f82015250565b5f611233601083610de4565b915061123e826111ff565b602082019050919050565b5f6020820190508181035f83015261126081611227565b9050919050565b7f4e487b71000000000000000000000000000000000000000000000000000000005f52601160045260245ffd5b5f61129e82610cdd565b91506112a983610cdd565b92508282019050808211156112c1576112c0611267565b5b92915050565b7f5374616b65206973207374696c6c206c6f636b656400000000000000000000005f82015250565b5f6112fb601583610de4565b9150611306826112c7565b602082019050919050565b5f6020820190508181035f830152611328816112ef565b905091905056fea26469706673582212207d4d1ad34c4b8b0b4dea5dd7c79ee6b65fd413895347c7b95d1098e412d97aca64736f6c634300081d0033","linkReferences":{}},"methodIdentifiers":{"LOCK_TIME()":"413d9c3a","bvpToken()":"fd2ef43b","emergencyWithdraw(address)":"6ff1c9bc","getTier(address)":"b45aae52","owner()":"8da5cb5b","renounceOwnership()":"715018a6","stake(uint256)":"a694fc3a","stakes(address)":"16934fc4","transferOwnership(address)":"f2fde38b","unlock()":"a69df4b5","unstake()":"2def6620"},"id":0}