{"abi":[{"type":"constructor","inputs":[{"name":"_bvp","type":"address","internalType":"address"}],"stateMutability":"nonpayable"},{"type":"function","name":"LOCK_TIME","inputs":[],"outputs":[{"name":"","type":"uint256","internalType":"uint256"}],"stateMutability":"view"},{"type":"function","name":"bvpToken","inputs":[],"outputs":[{"name":"","type":"address","internalType":"contract IERC20"}],"stateMutability":"view"},{"type":"function","name":"emergencyWithdraw","inputs":[{"name":"staker","type":"address","internalType":"address"}],"outputs":[],"stateMutability":"nonpayable"},{"type":"function","name":"getTier","inputs":[{"name":"user","type":"address","internalType":"address"}],"outputs":[{"name":"","type":"string","internalType":"string"}],"stateMutability":"view"},{"type":"function","name":"owner","inputs":[],"outputs":[{"name":"","type":"address","internalType":"address"}],"stateMutability":"view"},{"type":"function","name":"renounceOwnership","inputs":[],"outputs":[],"stateMutability":"nonpayable"},{"type":"function","name":"stake","inputs":[{"name":"amount","type":"uint256","internalType":"uint256"}],"outputs":[],"stateMutability":"nonpayable"},{"type":"function","name":"stakes","inputs":[{"name":"","type":"address","internalType":"address"}],"outputs":[{"name":"amount","type":"uint256","internalType":"uint256"},{"name":"timestamp","type":"uint256","internalType":"uint256"},{"name":"unlocked","type":"bool","internalType":"bool"}],"stateMutability":"view"},{"type":"function","name":"transferOwnership","inputs":[{"name":"newOwner","type":"address","internalType":"address"}],"outputs":[],"stateMutability":"nonpayable"},{"type":"function","name":"unlock","inputs":[],"outputs":[],"stateMutability":"nonpayable"},{"type":"function","name":"unstake","inputs":[],"outputs":[],"stateMutability":"nonpayable"},{"type":"event","name":"OwnershipTransferred","inputs":[{"name":"previousOwner","type":"address","indexed":true,"internalType":"address"},{"name":"newOwner","type":"address","indexed":true,"internalType":"address"}],"anonymous":false},{"type":"error","name":"OwnableInvalidOwner","inputs":[{"name":"owner","type":"address","internalType":"address"}]},{"type":"error","name":"OwnableUnauthorizedAccount","inputs":[{"name":"account","type":"address","internalType":"address"}]},{"type":"error","name":"ReentrancyGuardReentrantCall","inputs":[]}],"bytecode":{"object":"0x608060405234801561000f575f5ffd5b5060405161179d38038061179d8339818101604052810190610031919061021e565b335f73ffffffffffffffffffffffffffffffffffffffff168173ffffffffffffffffffffffffffffffffffffffff16036100a2575f6040517f1e4fbdf70000000000000000000000000000000000000000000000000000000081526004016100999190610258565b60405180910390fd5b6100b1816100ff60201b60201c565b50600180819055508060025f6101000a81548173ffffffffffffffffffffffffffffffffffffffff021916908373ffffffffffffffffffffffffffffffffffffffff16021790555050610271565b5f5f5f9054906101000a900473ffffffffffffffffffffffffffffffffffffffff169050815f5f6101000a81548173ffffffffffffffffffffffffffffffffffffffff021916908373ffffffffffffffffffffffffffffffffffffffff1602179055508173ffffffffffffffffffffffffffffffffffffffff168173ffffffffffffffffffffffffffffffffffffffff167f8be0079c531659141344cd1fd0a4f28419497f9722a3daafe3b4186f6b6457e060405160405180910390a35050565b5f5ffd5b5f73ffffffffffffffffffffffffffffffffffffffff82169050919050565b5f6101ed826101c4565b9050919050565b6101fd816101e3565b8114610207575f5ffd5b50565b5f81519050610218816101f4565b92915050565b5f60208284031215610233576102326101c0565b5b5f6102408482850161020a565b91505092915050565b610252816101e3565b82525050565b5f60208201905061026b5f830184610249565b92915050565b61151f8061027e5f395ff3fe608060405234801561000f575f5ffd5b50600436106100a7575f3560e01c80638da5cb5b1161006f5780638da5cb5b1461012b578063a694fc3a14610149578063a69df4b514610165578063b45aae521461016f578063f2fde38b1461019f578063fd2ef43b146101bb576100a7565b806316934fc4146100ab5780632def6620146100dd578063413d9c3a146100e75780636ff1c9bc14610105578063715018a614610121575b5f5ffd5b6100c560048036038101906100c09190610e6c565b6101d9565b6040516100d493929190610ec9565b60405180910390f35b6100e561020b565b005b6100ef6103f6565b6040516100fc9190610efe565b60405180910390f35b61011f600480360381019061011a9190610e6c565b6103fd565b005b6101296105ed565b005b610133610600565b6040516101409190610f26565b60405180910390f35b610163600480360381019061015e9190610f69565b610627565b005b61016d61086d565b005b61018960048036038101906101849190610e6c565b6109b7565b6040516101969190611004565b60405180910390f35b6101b960048036038101906101b49190610e6c565b610bc7565b005b6101c3610c4b565b6040516101d0919061107f565b60405180910390f35b6003602052805f5260405f205f91509050805f015490806001015490806002015f9054906101000a900460ff16905083565b610213610c70565b5f60035f3373ffffffffffffffffffffffffffffffffffffffff1673ffffffffffffffffffffffffffffffffffffffff1681526020019081526020015f209050806002015f9054906101000a900460ff166102a3576040517f08c379a000000000000000000000000000000000000000000000000000000000815260040161029a906110e2565b60405180910390fd5b5f815f0154905060035f3373ffffffffffffffffffffffffffffffffffffffff1673ffffffffffffffffffffffffffffffffffffffff1681526020019081526020015f205f5f82015f9055600182015f9055600282015f6101000a81549060ff021916905550505f60025f9054906101000a900473ffffffffffffffffffffffffffffffffffffffff1673ffffffffffffffffffffffffffffffffffffffff1663a9059cbb33846040518363ffffffff1660e01b8152600401610367929190611100565b6020604051808303815f875af1158015610383573d5f5f3e3d5ffd5b505050506040513d601f19601f820116820180604052508101906103a79190611151565b9050806103e9576040517f08c379a00000000000000000000000000000000000000000000000000000000081526004016103e0906111c6565b60405180910390fd5b5050506103f4610cb6565b565b6276a70081565b610405610cbf565b61040d610c70565b5f60035f8373ffffffffffffffffffffffffffffffffffffffff1673ffffffffffffffffffffffffffffffffffffffff1681526020019081526020015f2090505f815f015411610492576040517f08c379a00000000000000000000000000000000000000000000000000000000081526004016104899061122e565b60405180910390fd5b5f815f0154905060035f8473ffffffffffffffffffffffffffffffffffffffff1673ffffffffffffffffffffffffffffffffffffffff1681526020019081526020015f205f5f82015f9055600182015f9055600282015f6101000a81549060ff021916905550505f60025f9054906101000a900473ffffffffffffffffffffffffffffffffffffffff1673ffffffffffffffffffffffffffffffffffffffff1663a9059cbb61053f610600565b846040518363ffffffff1660e01b815260040161055d929190611100565b6020604051808303815f875af1158015610579573d5f5f3e3d5ffd5b505050506040513d601f19601f8201168201806040525081019061059d9190611151565b9050806105df576040517f08c379a00000000000000000000000000000000000000000000000000000000081526004016105d6906111c6565b60405180910390fd5b5050506105ea610cb6565b50565b6105f5610cbf565b6105fe5f610d46565b565b5f5f5f9054906101000a900473ffffffffffffffffffffffffffffffffffffffff16905090565b61062f610c70565b5f8111610671576040517f08c379a000000000000000000000000000000000000000000000000000000000815260040161066890611296565b60405180910390fd5b5f60035f3373ffffffffffffffffffffffffffffffffffffffff1673ffffffffffffffffffffffffffffffffffffffff1681526020019081526020015f205f0154146106f2576040517f08c379a00000000000000000000000000000000000000000000000000000000081526004016106e9906112fe565b60405180910390fd5b5f60025f9054906101000a900473ffffffffffffffffffffffffffffffffffffffff1673ffffffffffffffffffffffffffffffffffffffff166323b872dd3330856040518463ffffffff1660e01b81526004016107519392919061131c565b6020604051808303815f875af115801561076d573d5f5f3e3d5ffd5b505050506040513d601f19601f820116820180604052508101906107919190611151565b9050806107d3576040517f08c379a00000000000000000000000000000000000000000000000000000000081526004016107ca906111c6565b60405180910390fd5b60405180606001604052808381526020014281526020015f151581525060035f3373ffffffffffffffffffffffffffffffffffffffff1673ffffffffffffffffffffffffffffffffffffffff1681526020019081526020015f205f820151815f0155602082015181600101556040820151816002015f6101000a81548160ff0219169083151502179055509050505061086a610cb6565b50565b5f60035f3373ffffffffffffffffffffffffffffffffffffffff1673ffffffffffffffffffffffffffffffffffffffff1681526020019081526020015f2090505f815f0154116108f2576040517f08c379a00000000000000000000000000000000000000000000000000000000081526004016108e99061139b565b60405180910390fd5b806002015f9054906101000a900460ff1615610943576040517f08c379a000000000000000000000000000000000000000000000000000000000815260040161093a90611403565b60405180910390fd5b6276a7008160010154610956919061144e565b421015610998576040517f08c379a000000000000000000000000000000000000000000000000000000000815260040161098f906114cb565b60405180910390fd5b6001816002015f6101000a81548160ff02191690831515021790555050565b60605f60035f8473ffffffffffffffffffffffffffffffffffffffff1673ffffffffffffffffffffffffffffffffffffffff1681526020019081526020015f205f015490506a01a784379d99db420000008110610a4c576040518060400160405280600781526020017f4469616d6f6e6400000000000000000000000000000000000000000000000000815250915050610bc2565b69d3c21bcecceda10000008110610a9b576040518060400160405280600881526020017f506c6174696e756d000000000000000000000000000000000000000000000000815250915050610bc2565b6969e10de76676d08000008110610aea576040518060400160405280600481526020017f476f6c6400000000000000000000000000000000000000000000000000000000815250915050610bc2565b69152d02c7e14af68000008110610b39576040518060400160405280600681526020017f53696c7665720000000000000000000000000000000000000000000000000000815250915050610bc2565b69043c33c19375648000008110610b88576040518060400160405280600681526020017f42726f6e7a650000000000000000000000000000000000000000000000000000815250915050610bc2565b6040518060400160405280600481526020017f4e6f6e65000000000000000000000000000000000000000000000000000000008152509150505b919050565b610bcf610cbf565b5f73ffffffffffffffffffffffffffffffffffffffff168173ffffffffffffffffffffffffffffffffffffffff1603610c3f575f6040517f1e4fbdf7000000000000000000000000000000000000000000000000000000008152600401610c369190610f26565b60405180910390fd5b610c4881610d46565b50565b60025f9054906101000a900473ffffffffffffffffffffffffffffffffffffffff1681565b600260015403610cac576040517f3ee5aeb500000000000000000000000000000000000000000000000000000000815260040160405180910390fd5b6002600181905550565b60018081905550565b610cc7610e07565b73ffffffffffffffffffffffffffffffffffffffff16610ce5610600565b73ffffffffffffffffffffffffffffffffffffffff1614610d4457610d08610e07565b6040517f118cdaa7000000000000000000000000000000000000000000000000000000008152600401610d3b9190610f26565b60405180910390fd5b565b5f5f5f9054906101000a900473ffffffffffffffffffffffffffffffffffffffff169050815f5f6101000a81548173ffffffffffffffffffffffffffffffffffffffff021916908373ffffffffffffffffffffffffffffffffffffffff1602179055508173ffffffffffffffffffffffffffffffffffffffff168173ffffffffffffffffffffffffffffffffffffffff167f8be0079c531659141344cd1fd0a4f28419497f9722a3daafe3b4186f6b6457e060405160405180910390a35050565b5f33905090565b5f5ffd5b5f73ffffffffffffffffffffffffffffffffffffffff82169050919050565b5f610e3b82610e12565b9050919050565b610e4b81610e31565b8114610e55575f5ffd5b50565b5f81359050610e6681610e42565b92915050565b5f60208284031215610e8157610e80610e0e565b5b5f610e8e84828501610e58565b91505092915050565b5f819050919050565b610ea981610e97565b82525050565b5f8115159050919050565b610ec381610eaf565b82525050565b5f606082019050610edc5f830186610ea0565b610ee96020830185610ea0565b610ef66040830184610eba565b949350505050565b5f602082019050610f115f830184610ea0565b92915050565b610f2081610e31565b82525050565b5f602082019050610f395f830184610f17565b92915050565b610f4881610e97565b8114610f52575f5ffd5b50565b5f81359050610f6381610f3f565b92915050565b5f60208284031215610f7e57610f7d610e0e565b5b5f610f8b84828501610f55565b91505092915050565b5f81519050919050565b5f82825260208201905092915050565b8281835e5f83830152505050565b5f601f19601f8301169050919050565b5f610fd682610f94565b610fe08185610f9e565b9350610ff0818560208601610fae565b610ff981610fbc565b840191505092915050565b5f6020820190508181035f83015261101c8184610fcc565b905092915050565b5f819050919050565b5f61104761104261103d84610e12565b611024565b610e12565b9050919050565b5f6110588261102d565b9050919050565b5f6110698261104e565b9050919050565b6110798161105f565b82525050565b5f6020820190506110925f830184611070565b92915050565b7f4e6f7420756e6c6f636b656400000000000000000000000000000000000000005f82015250565b5f6110cc600c83610f9e565b91506110d782611098565b602082019050919050565b5f6020820190508181035f8301526110f9816110c0565b9050919050565b5f6040820190506111135f830185610f17565b6111206020830184610ea0565b9392505050565b61113081610eaf565b811461113a575f5ffd5b50565b5f8151905061114b81611127565b92915050565b5f6020828403121561116657611165610e0e565b5b5f6111738482850161113d565b91505092915050565b7f5472616e73666572206661696c656400000000000000000000000000000000005f82015250565b5f6111b0600f83610f9e565b91506111bb8261117c565b602082019050919050565b5f6020820190508181035f8301526111dd816111a4565b9050919050565b7f4e6f7468696e67207374616b65640000000000000000000000000000000000005f82015250565b5f611218600e83610f9e565b9150611223826111e4565b602082019050919050565b5f6020820190508181035f8301526112458161120c565b9050919050565b7f496e76616c696420616d6f756e740000000000000000000000000000000000005f82015250565b5f611280600e83610f9e565b915061128b8261124c565b602082019050919050565b5f6020820190508181035f8301526112ad81611274565b9050919050565b7f416c7265616479207374616b65640000000000000000000000000000000000005f82015250565b5f6112e8600e83610f9e565b91506112f3826112b4565b602082019050919050565b5f6020820190508181035f830152611315816112dc565b9050919050565b5f60608201905061132f5f830186610f17565b61133c6020830185610f17565b6113496040830184610ea0565b949350505050565b7f4e6f207374616b650000000000000000000000000000000000000000000000005f82015250565b5f611385600883610f9e565b915061139082611351565b602082019050919050565b5f6020820190508181035f8301526113b281611379565b9050919050565b7f416c726561647920756e6c6f636b6564000000000000000000000000000000005f82015250565b5f6113ed601083610f9e565b91506113f8826113b9565b602082019050919050565b5f6020820190508181035f83015261141a816113e1565b9050919050565b7f4e487b71000000000000000000000000000000000000000000000000000000005f52601160045260245ffd5b5f61145882610e97565b915061146383610e97565b925082820190508082111561147b5761147a611421565b5b92915050565b7f5374616b65207374696c6c206c6f636b656400000000000000000000000000005f82015250565b5f6114b5601283610f9e565b91506114c082611481565b602082019050919050565b5f6020820190508181035f8301526114e2816114a9565b905091905056fea2646970667358221220fbfddc8b8afebbb5a2d64648bc7aaaaf97c99724e850abcee5bfac898184c6e764736f6c634300081d0033","linkReferences":{}},"methodIdentifiers":{"LOCK_TIME()":"413d9c3a","bvpToken()":"fd2ef43b","emergencyWithdraw(address)":"6ff1c9bc","getTier(address)":"b45aae52","owner()":"8da5cb5b","renounceOwnership()":"715018a6","stake(uint256)":"a694fc3a","stakes(address)":"16934fc4","transferOwnership(address)":"f2fde38b","unlock()":"a69df4b5","unstake()":"2def6620"},"id":0}