{"abi":[{"type":"constructor","inputs":[{"name":"_bvpToken","type":"address","internalType":"address"},{"name":"_treasury","type":"address","internalType":"address"}],"stateMutability":"nonpayable"},{"type":"function","name":"bvpToken","inputs":[],"outputs":[{"name":"","type":"address","internalType":"contract IERC20"}],"stateMutability":"view"},{"type":"function","name":"handleGas","inputs":[{"name":"amount","type":"uint256","internalType":"uint256"}],"outputs":[],"stateMutability":"nonpayable"},{"type":"function","name":"owner","inputs":[],"outputs":[{"name":"","type":"address","internalType":"address"}],"stateMutability":"view"},{"type":"function","name":"renounceOwnership","inputs":[],"outputs":[],"stateMutability":"nonpayable"},{"type":"function","name":"setTreasury","inputs":[{"name":"newTreasury","type":"address","internalType":"address"}],"outputs":[],"stateMutability":"nonpayable"},{"type":"function","name":"transferOwnership","inputs":[{"name":"newOwner","type":"address","internalType":"address"}],"outputs":[],"stateMutability":"nonpayable"},{"type":"function","name":"treasury","inputs":[],"outputs":[{"name":"","type":"address","internalType":"address"}],"stateMutability":"view"},{"type":"event","name":"GasHandled","inputs":[{"name":"user","type":"address","indexed":true,"internalType":"address"},{"name":"amount","type":"uint256","indexed":false,"internalType":"uint256"},{"name":"toTreasury","type":"uint256","indexed":false,"internalType":"uint256"},{"name":"rebate","type":"uint256","indexed":false,"internalType":"uint256"}],"anonymous":false},{"type":"event","name":"OwnershipTransferred","inputs":[{"name":"previousOwner","type":"address","indexed":true,"internalType":"address"},{"name":"newOwner","type":"address","indexed":true,"internalType":"address"}],"anonymous":false},{"type":"error","name":"OwnableInvalidOwner","inputs":[{"name":"owner","type":"address","internalType":"address"}]},{"type":"error","name":"OwnableUnauthorizedAccount","inputs":[{"name":"account","type":"address","internalType":"address"}]},{"type":"error","name":"ReentrancyGuardReentrantCall","inputs":[]}],"bytecode":{"object":"0x608060405234801561000f575f5ffd5b506040516111b43803806111b4833981810160405281019061003191906102cd565b335f73ffffffffffffffffffffffffffffffffffffffff168173ffffffffffffffffffffffffffffffffffffffff16036100a2575f6040517f1e4fbdf7000000000000000000000000000000000000000000000000000000008152600401610099919061031a565b60405180910390fd5b6100b1816101ae60201b60201c565b50600180819055505f73ffffffffffffffffffffffffffffffffffffffff168173ffffffffffffffffffffffffffffffffffffffff1603610127576040517f08c379a000000000000000000000000000000000000000000000000000000000815260040161011e9061038d565b60405180910390fd5b8160025f6101000a81548173ffffffffffffffffffffffffffffffffffffffff021916908373ffffffffffffffffffffffffffffffffffffffff1602179055508060035f6101000a81548173ffffffffffffffffffffffffffffffffffffffff021916908373ffffffffffffffffffffffffffffffffffffffff16021790555050506103ab565b5f5f5f9054906101000a900473ffffffffffffffffffffffffffffffffffffffff169050815f5f6101000a81548173ffffffffffffffffffffffffffffffffffffffff021916908373ffffffffffffffffffffffffffffffffffffffff1602179055508173ffffffffffffffffffffffffffffffffffffffff168173ffffffffffffffffffffffffffffffffffffffff167f8be0079c531659141344cd1fd0a4f28419497f9722a3daafe3b4186f6b6457e060405160405180910390a35050565b5f5ffd5b5f73ffffffffffffffffffffffffffffffffffffffff82169050919050565b5f61029c82610273565b9050919050565b6102ac81610292565b81146102b6575f5ffd5b50565b5f815190506102c7816102a3565b92915050565b5f5f604083850312156102e3576102e261026f565b5b5f6102f0858286016102b9565b9250506020610301858286016102b9565b9150509250929050565b61031481610292565b82525050565b5f60208201905061032d5f83018461030b565b92915050565b5f82825260208201905092915050565b7f496e76616c6964207472656173757279000000000000000000000000000000005f82015250565b5f610377601083610333565b915061038282610343565b602082019050919050565b5f6020820190508181035f8301526103a48161036b565b9050919050565b610dfc806103b85f395ff3fe608060405234801561000f575f5ffd5b506004361061007b575f3560e01c806399228a271161005957806399228a27146100c5578063f0f44260146100e1578063f2fde38b146100fd578063fd2ef43b146101195761007b565b806361d027b31461007f578063715018a61461009d5780638da5cb5b146100a7575b5f5ffd5b610087610137565b604051610094919061086c565b60405180910390f35b6100a561015c565b005b6100af61016f565b6040516100bc919061086c565b60405180910390f35b6100df60048036038101906100da91906108bc565b610196565b005b6100fb60048036038101906100f69190610911565b61052d565b005b61011760048036038101906101129190610911565b6105e6565b005b61012161066a565b60405161012e9190610997565b60405180910390f35b60035f9054906101000a900473ffffffffffffffffffffffffffffffffffffffff1681565b61016461068f565b61016d5f610716565b565b5f5f5f9054906101000a900473ffffffffffffffffffffffffffffffffffffffff16905090565b61019e6107d7565b5f81116101e0576040517f08c379a00000000000000000000000000000000000000000000000000000000081526004016101d790610a0a565b60405180910390fd5b5f60646050836101f09190610a55565b6101fa9190610ac3565b90505f81836102099190610af3565b90505f60025f9054906101000a900473ffffffffffffffffffffffffffffffffffffffff1673ffffffffffffffffffffffffffffffffffffffff166323b872dd3330876040518463ffffffff1660e01b815260040161026a93929190610b35565b6020604051808303815f875af1158015610286573d5f5f3e3d5ffd5b505050506040513d601f19601f820116820180604052508101906102aa9190610b9f565b9050806102ec576040517f08c379a00000000000000000000000000000000000000000000000000000000081526004016102e390610c14565b60405180910390fd5b5f60025f9054906101000a900473ffffffffffffffffffffffffffffffffffffffff1673ffffffffffffffffffffffffffffffffffffffff1663a9059cbb60035f9054906101000a900473ffffffffffffffffffffffffffffffffffffffff16866040518363ffffffff1660e01b815260040161036a929190610c32565b6020604051808303815f875af1158015610386573d5f5f3e3d5ffd5b505050506040513d601f19601f820116820180604052508101906103aa9190610b9f565b9050806103ec576040517f08c379a00000000000000000000000000000000000000000000000000000000081526004016103e390610ca3565b60405180910390fd5b5f60025f9054906101000a900473ffffffffffffffffffffffffffffffffffffffff1673ffffffffffffffffffffffffffffffffffffffff1663a9059cbb33866040518363ffffffff1660e01b8152600401610449929190610c32565b6020604051808303815f875af1158015610465573d5f5f3e3d5ffd5b505050506040513d601f19601f820116820180604052508101906104899190610b9f565b9050806104cb576040517f08c379a00000000000000000000000000000000000000000000000000000000081526004016104c290610d0b565b60405180910390fd5b3373ffffffffffffffffffffffffffffffffffffffff167f0772b208954d2699ea1e980ad399796fe174a4bb8746205f9013a82e1eb8e62887878760405161051593929190610d29565b60405180910390a2505050505061052a61081d565b50565b61053561068f565b5f73ffffffffffffffffffffffffffffffffffffffff168173ffffffffffffffffffffffffffffffffffffffff16036105a3576040517f08c379a000000000000000000000000000000000000000000000000000000000815260040161059a90610da8565b60405180910390fd5b8060035f6101000a81548173ffffffffffffffffffffffffffffffffffffffff021916908373ffffffffffffffffffffffffffffffffffffffff16021790555050565b6105ee61068f565b5f73ffffffffffffffffffffffffffffffffffffffff168173ffffffffffffffffffffffffffffffffffffffff160361065e575f6040517f1e4fbdf7000000000000000000000000000000000000000000000000000000008152600401610655919061086c565b60405180910390fd5b61066781610716565b50565b60025f9054906101000a900473ffffffffffffffffffffffffffffffffffffffff1681565b610697610826565b73ffffffffffffffffffffffffffffffffffffffff166106b561016f565b73ffffffffffffffffffffffffffffffffffffffff1614610714576106d8610826565b6040517f118cdaa700000000000000000000000000000000000000000000000000000000815260040161070b919061086c565b60405180910390fd5b565b5f5f5f9054906101000a900473ffffffffffffffffffffffffffffffffffffffff169050815f5f6101000a81548173ffffffffffffffffffffffffffffffffffffffff021916908373ffffffffffffffffffffffffffffffffffffffff1602179055508173ffffffffffffffffffffffffffffffffffffffff168173ffffffffffffffffffffffffffffffffffffffff167f8be0079c531659141344cd1fd0a4f28419497f9722a3daafe3b4186f6b6457e060405160405180910390a35050565b600260015403610813576040517f3ee5aeb500000000000000000000000000000000000000000000000000000000815260040160405180910390fd5b6002600181905550565b60018081905550565b5f33905090565b5f73ffffffffffffffffffffffffffffffffffffffff82169050919050565b5f6108568261082d565b9050919050565b6108668161084c565b82525050565b5f60208201905061087f5f83018461085d565b92915050565b5f5ffd5b5f819050919050565b61089b81610889565b81146108a5575f5ffd5b50565b5f813590506108b681610892565b92915050565b5f602082840312156108d1576108d0610885565b5b5f6108de848285016108a8565b91505092915050565b6108f08161084c565b81146108fa575f5ffd5b50565b5f8135905061090b816108e7565b92915050565b5f6020828403121561092657610925610885565b5b5f610933848285016108fd565b91505092915050565b5f819050919050565b5f61095f61095a6109558461082d565b61093c565b61082d565b9050919050565b5f61097082610945565b9050919050565b5f61098182610966565b9050919050565b61099181610977565b82525050565b5f6020820190506109aa5f830184610988565b92915050565b5f82825260208201905092915050565b7f496e76616c6964000000000000000000000000000000000000000000000000005f82015250565b5f6109f46007836109b0565b91506109ff826109c0565b602082019050919050565b5f6020820190508181035f830152610a21816109e8565b9050919050565b7f4e487b71000000000000000000000000000000000000000000000000000000005f52601160045260245ffd5b5f610a5f82610889565b9150610a6a83610889565b9250828202610a7881610889565b91508282048414831517610a8f57610a8e610a28565b5b5092915050565b7f4e487b71000000000000000000000000000000000000000000000000000000005f52601260045260245ffd5b5f610acd82610889565b9150610ad883610889565b925082610ae857610ae7610a96565b5b828204905092915050565b5f610afd82610889565b9150610b0883610889565b9250828203905081811115610b2057610b1f610a28565b5b92915050565b610b2f81610889565b82525050565b5f606082019050610b485f83018661085d565b610b55602083018561085d565b610b626040830184610b26565b949350505050565b5f8115159050919050565b610b7e81610b6a565b8114610b88575f5ffd5b50565b5f81519050610b9981610b75565b92915050565b5f60208284031215610bb457610bb3610885565b5b5f610bc184828501610b8b565b91505092915050565b7f50756c6c206661696c65640000000000000000000000000000000000000000005f82015250565b5f610bfe600b836109b0565b9150610c0982610bca565b602082019050919050565b5f6020820190508181035f830152610c2b81610bf2565b9050919050565b5f604082019050610c455f83018561085d565b610c526020830184610b26565b9392505050565b7f5472656173757279206661696c000000000000000000000000000000000000005f82015250565b5f610c8d600d836109b0565b9150610c9882610c59565b602082019050919050565b5f6020820190508181035f830152610cba81610c81565b9050919050565b7f526562617465206661696c0000000000000000000000000000000000000000005f82015250565b5f610cf5600b836109b0565b9150610d0082610cc1565b602082019050919050565b5f6020820190508181035f830152610d2281610ce9565b9050919050565b5f606082019050610d3c5f830186610b26565b610d496020830185610b26565b610d566040830184610b26565b949350505050565b7f496e76616c6964207472656173757279000000000000000000000000000000005f82015250565b5f610d926010836109b0565b9150610d9d82610d5e565b602082019050919050565b5f6020820190508181035f830152610dbf81610d86565b905091905056fea2646970667358221220c1a54749ca771dee19a83947202c26fd634e48567ed09bc27d80d866f9c02dc364736f6c634300081d0033","linkReferences":{}},"methodIdentifiers":{"bvpToken()":"fd2ef43b","handleGas(uint256)":"99228a27","owner()":"8da5cb5b","renounceOwnership()":"715018a6","setTreasury(address)":"f0f44260","transferOwnership(address)":"f2fde38b","treasury()":"61d027b3"},"id":2}