{"abi":[{"type":"constructor","inputs":[{"name":"_bvpToken","type":"address","internalType":"address"},{"name":"_treasury","type":"address","internalType":"address"}],"stateMutability":"nonpayable"},{"type":"function","name":"bvpToken","inputs":[],"outputs":[{"name":"","type":"address","internalType":"contract IERC20"}],"stateMutability":"view"},{"type":"function","name":"handleGas","inputs":[{"name":"amount","type":"uint256","internalType":"uint256"}],"outputs":[],"stateMutability":"nonpayable"},{"type":"function","name":"owner","inputs":[],"outputs":[{"name":"","type":"address","internalType":"address"}],"stateMutability":"view"},{"type":"function","name":"renounceOwnership","inputs":[],"outputs":[],"stateMutability":"nonpayable"},{"type":"function","name":"setTreasury","inputs":[{"name":"newTreasury","type":"address","internalType":"address"}],"outputs":[],"stateMutability":"nonpayable"},{"type":"function","name":"transferOwnership","inputs":[{"name":"newOwner","type":"address","internalType":"address"}],"outputs":[],"stateMutability":"nonpayable"},{"type":"function","name":"treasury","inputs":[],"outputs":[{"name":"","type":"address","internalType":"address"}],"stateMutability":"view"},{"type":"event","name":"GasHandled","inputs":[{"name":"user","type":"address","indexed":true,"internalType":"address"},{"name":"amount","type":"uint256","indexed":false,"internalType":"uint256"},{"name":"toTreasury","type":"uint256","indexed":false,"internalType":"uint256"},{"name":"refunded","type":"uint256","indexed":false,"internalType":"uint256"}],"anonymous":false},{"type":"event","name":"OwnershipTransferred","inputs":[{"name":"previousOwner","type":"address","indexed":true,"internalType":"address"},{"name":"newOwner","type":"address","indexed":true,"internalType":"address"}],"anonymous":false},{"type":"error","name":"OwnableInvalidOwner","inputs":[{"name":"owner","type":"address","internalType":"address"}]},{"type":"error","name":"OwnableUnauthorizedAccount","inputs":[{"name":"account","type":"address","internalType":"address"}]}],"bytecode":{"object":"0x60a060405234801561000f575f5ffd5b5060405161123538038061123583398181016040528101906100319190610396565b335f73ffffffffffffffffffffffffffffffffffffffff168173ffffffffffffffffffffffffffffffffffffffff16036100a2575f6040517f1e4fbdf700000000000000000000000000000000000000000000000000000000815260040161009991906103e3565b60405180910390fd5b6100b18161017660201b60201c565b508173ffffffffffffffffffffffffffffffffffffffff1660808173ffffffffffffffffffffffffffffffffffffffff16815250508060015f6101000a81548173ffffffffffffffffffffffffffffffffffffffff021916908373ffffffffffffffffffffffffffffffffffffffff16021790555061016f60405180606001604052806028815260200161120d6028913960015f9054906101000a900473ffffffffffffffffffffffffffffffffffffffff1661023760201b60201c565b50506104c7565b5f5f5f9054906101000a900473ffffffffffffffffffffffffffffffffffffffff169050815f5f6101000a81548173ffffffffffffffffffffffffffffffffffffffff021916908373ffffffffffffffffffffffffffffffffffffffff1602179055508173ffffffffffffffffffffffffffffffffffffffff168173ffffffffffffffffffffffffffffffffffffffff167f8be0079c531659141344cd1fd0a4f28419497f9722a3daafe3b4186f6b6457e060405160405180910390a35050565b6102d5828260405160240161024d92919061046c565b6040516020818303038152906040527f319af333000000000000000000000000000000000000000000000000000000007bffffffffffffffffffffffffffffffffffffffffffffffffffffffff19166020820180517bffffffffffffffffffffffffffffffffffffffffffffffffffffffff83818316178352505050506102d960201b60201c565b5050565b6102fa816102f56102fd60201b61060d1761031c60201b60201c565b60201c565b50565b5f6a636f6e736f6c652e6c6f6790505f5f835160208501845afa505050565b61032e60201b61077b17819050919050565b61033661049a565b565b5f5ffd5b5f73ffffffffffffffffffffffffffffffffffffffff82169050919050565b5f6103658261033c565b9050919050565b6103758161035b565b811461037f575f5ffd5b50565b5f815190506103908161036c565b92915050565b5f5f604083850312156103ac576103ab610338565b5b5f6103b985828601610382565b92505060206103ca85828601610382565b9150509250929050565b6103dd8161035b565b82525050565b5f6020820190506103f65f8301846103d4565b92915050565b5f81519050919050565b5f82825260208201905092915050565b8281835e5f83830152505050565b5f601f19601f8301169050919050565b5f61043e826103fc565b6104488185610406565b9350610458818560208601610416565b61046181610424565b840191505092915050565b5f6040820190508181035f8301526104848185610434565b905061049360208301846103d4565b9392505050565b7f4e487b71000000000000000000000000000000000000000000000000000000005f52605160045260245ffd5b608051610d196104f45f395f81816101db015281816102e6015281816103e501526105eb0152610d195ff3fe608060405234801561000f575f5ffd5b506004361061007b575f3560e01c806399228a271161005957806399228a27146100c5578063f0f44260146100e1578063f2fde38b146100fd578063fd2ef43b146101195761007b565b806361d027b31461007f578063715018a61461009d5780638da5cb5b146100a7575b5f5ffd5b610087610137565b60405161009491906107c4565b60405180910390f35b6100a561015c565b005b6100af61016f565b6040516100bc91906107c4565b60405180910390f35b6100df60048036038101906100da9190610814565b610196565b005b6100fb60048036038101906100f69190610869565b61051a565b005b61011760048036038101906101129190610869565b610565565b005b6101216105e9565b60405161012e91906108ef565b60405180910390f35b60015f9054906101000a900473ffffffffffffffffffffffffffffffffffffffff1681565b61016461062c565b61016d5f6106b3565b565b5f5f5f9054906101000a900473ffffffffffffffffffffffffffffffffffffffff16905090565b5f81116101d8576040517f08c379a00000000000000000000000000000000000000000000000000000000081526004016101cf90610962565b60405180910390fd5b5f7f000000000000000000000000000000000000000000000000000000000000000073ffffffffffffffffffffffffffffffffffffffff166323b872dd3330856040518463ffffffff1660e01b81526004016102369392919061098f565b6020604051808303815f875af1158015610252573d5f5f3e3d5ffd5b505050506040513d601f19601f8201168201806040525081019061027691906109f9565b9050806102b8576040517f08c379a00000000000000000000000000000000000000000000000000000000081526004016102af90610a6e565b60405180910390fd5b5f60646014846102c89190610ab9565b6102d29190610b27565b90505f81846102e19190610b57565b90505f7f000000000000000000000000000000000000000000000000000000000000000073ffffffffffffffffffffffffffffffffffffffff1663a9059cbb60015f9054906101000a900473ffffffffffffffffffffffffffffffffffffffff16856040518363ffffffff1660e01b8152600401610360929190610b8a565b6020604051808303815f875af115801561037c573d5f5f3e3d5ffd5b505050506040513d601f19601f820116820180604052508101906103a091906109f9565b9050806103e2576040517f08c379a00000000000000000000000000000000000000000000000000000000081526004016103d990610bfb565b60405180910390fd5b5f7f000000000000000000000000000000000000000000000000000000000000000073ffffffffffffffffffffffffffffffffffffffff1663a9059cbb33856040518363ffffffff1660e01b815260040161043e929190610b8a565b6020604051808303815f875af115801561045a573d5f5f3e3d5ffd5b505050506040513d601f19601f8201168201806040525081019061047e91906109f9565b9050806104c0576040517f08c379a00000000000000000000000000000000000000000000000000000000081526004016104b790610c63565b60405180910390fd5b3373ffffffffffffffffffffffffffffffffffffffff167f0772b208954d2699ea1e980ad399796fe174a4bb8746205f9013a82e1eb8e62887868660405161050a93929190610c81565b60405180910390a2505050505050565b61052261062c565b8060015f6101000a81548173ffffffffffffffffffffffffffffffffffffffff021916908373ffffffffffffffffffffffffffffffffffffffff16021790555050565b61056d61062c565b5f73ffffffffffffffffffffffffffffffffffffffff168173ffffffffffffffffffffffffffffffffffffffff16036105dd575f6040517f1e4fbdf70000000000000000000000000000000000000000000000000000000081526004016105d491906107c4565b60405180910390fd5b6105e6816106b3565b50565b7f000000000000000000000000000000000000000000000000000000000000000081565b5f6a636f6e736f6c652e6c6f6790505f5f835160208501845afa505050565b610634610774565b73ffffffffffffffffffffffffffffffffffffffff1661065261016f565b73ffffffffffffffffffffffffffffffffffffffff16146106b157610675610774565b6040517f118cdaa70000000000000000000000000000000000000000000000000000000081526004016106a891906107c4565b60405180910390fd5b565b5f5f5f9054906101000a900473ffffffffffffffffffffffffffffffffffffffff169050815f5f6101000a81548173ffffffffffffffffffffffffffffffffffffffff021916908373ffffffffffffffffffffffffffffffffffffffff1602179055508173ffffffffffffffffffffffffffffffffffffffff168173ffffffffffffffffffffffffffffffffffffffff167f8be0079c531659141344cd1fd0a4f28419497f9722a3daafe3b4186f6b6457e060405160405180910390a35050565b5f33905090565b610783610cb6565b565b5f73ffffffffffffffffffffffffffffffffffffffff82169050919050565b5f6107ae82610785565b9050919050565b6107be816107a4565b82525050565b5f6020820190506107d75f8301846107b5565b92915050565b5f5ffd5b5f819050919050565b6107f3816107e1565b81146107fd575f5ffd5b50565b5f8135905061080e816107ea565b92915050565b5f60208284031215610829576108286107dd565b5b5f61083684828501610800565b91505092915050565b610848816107a4565b8114610852575f5ffd5b50565b5f813590506108638161083f565b92915050565b5f6020828403121561087e5761087d6107dd565b5b5f61088b84828501610855565b91505092915050565b5f819050919050565b5f6108b76108b26108ad84610785565b610894565b610785565b9050919050565b5f6108c88261089d565b9050919050565b5f6108d9826108be565b9050919050565b6108e9816108cf565b82525050565b5f6020820190506109025f8301846108e0565b92915050565b5f82825260208201905092915050565b7f5a65726f20616d6f756e740000000000000000000000000000000000000000005f82015250565b5f61094c600b83610908565b915061095782610918565b602082019050919050565b5f6020820190508181035f83015261097981610940565b9050919050565b610989816107e1565b82525050565b5f6060820190506109a25f8301866107b5565b6109af60208301856107b5565b6109bc6040830184610980565b949350505050565b5f8115159050919050565b6109d8816109c4565b81146109e2575f5ffd5b50565b5f815190506109f3816109cf565b92915050565b5f60208284031215610a0e57610a0d6107dd565b5b5f610a1b848285016109e5565b91505092915050565b7f5472616e7366657246726f6d206661696c6564000000000000000000000000005f82015250565b5f610a58601383610908565b9150610a6382610a24565b602082019050919050565b5f6020820190508181035f830152610a8581610a4c565b9050919050565b7f4e487b71000000000000000000000000000000000000000000000000000000005f52601160045260245ffd5b5f610ac3826107e1565b9150610ace836107e1565b9250828202610adc816107e1565b91508282048414831517610af357610af2610a8c565b5b5092915050565b7f4e487b71000000000000000000000000000000000000000000000000000000005f52601260045260245ffd5b5f610b31826107e1565b9150610b3c836107e1565b925082610b4c57610b4b610afa565b5b828204905092915050565b5f610b61826107e1565b9150610b6c836107e1565b9250828203905081811115610b8457610b83610a8c565b5b92915050565b5f604082019050610b9d5f8301856107b5565b610baa6020830184610980565b9392505050565b7f5472656173757279207472616e73666572206661696c656400000000000000005f82015250565b5f610be5601883610908565b9150610bf082610bb1565b602082019050919050565b5f6020820190508181035f830152610c1281610bd9565b9050919050565b7f526562617465207472616e73666572206661696c6564000000000000000000005f82015250565b5f610c4d601683610908565b9150610c5882610c19565b602082019050919050565b5f6020820190508181035f830152610c7a81610c41565b9050919050565b5f606082019050610c945f830186610980565b610ca16020830185610980565b610cae6040830184610980565b949350505050565b7f4e487b71000000000000000000000000000000000000000000000000000000005f52605160045260245ffdfea2646970667358221220e8ad11f064d1a71daed41d69d5cdfde1ccc5e2ddde0f295ecdcd169742fe1f1764736f6c634300081d0033476173526f75746572206465706c6f7965642e20547265617375727920616464726573732069733a","linkReferences":{}},"methodIdentifiers":{"bvpToken()":"fd2ef43b","handleGas(uint256)":"99228a27","owner()":"8da5cb5b","renounceOwnership()":"715018a6","setTreasury(address)":"f0f44260","transferOwnership(address)":"f2fde38b","treasury()":"61d027b3"},"id":2}