{"abi":[{"type":"constructor","inputs":[{"name":"_bvpToken","type":"address","internalType":"address"}],"stateMutability":"nonpayable"},{"type":"function","name":"LOCK_TIME_12M","inputs":[],"outputs":[{"name":"","type":"uint256","internalType":"uint256"}],"stateMutability":"view"},{"type":"function","name":"LOCK_TIME_3M","inputs":[],"outputs":[{"name":"","type":"uint256","internalType":"uint256"}],"stateMutability":"view"},{"type":"function","name":"LOCK_TIME_6M","inputs":[],"outputs":[{"name":"","type":"uint256","internalType":"uint256"}],"stateMutability":"view"},{"type":"function","name":"bvpToken","inputs":[],"outputs":[{"name":"","type":"address","internalType":"contract IERC20"}],"stateMutability":"view"},{"type":"function","name":"emergencyWithdraw","inputs":[{"name":"user","type":"address","internalType":"address"}],"outputs":[],"stateMutability":"nonpayable"},{"type":"function","name":"getStake","inputs":[{"name":"user","type":"address","internalType":"address"}],"outputs":[{"name":"amount","type":"uint256","internalType":"uint256"},{"name":"timestamp","type":"uint256","internalType":"uint256"},{"name":"lockTime","type":"uint256","internalType":"uint256"},{"name":"unlocked","type":"bool","internalType":"bool"},{"name":"unlockAt","type":"uint256","internalType":"uint256"}],"stateMutability":"view"},{"type":"function","name":"getTierCode","inputs":[{"name":"user","type":"address","internalType":"address"}],"outputs":[{"name":"","type":"uint8","internalType":"uint8"}],"stateMutability":"view"},{"type":"function","name":"getTierName","inputs":[{"name":"user","type":"address","internalType":"address"}],"outputs":[{"name":"","type":"string","internalType":"string"}],"stateMutability":"view"},{"type":"function","name":"owner","inputs":[],"outputs":[{"name":"","type":"address","internalType":"address"}],"stateMutability":"view"},{"type":"function","name":"renounceOwnership","inputs":[],"outputs":[],"stateMutability":"nonpayable"},{"type":"function","name":"stake12Months","inputs":[{"name":"amount","type":"uint256","internalType":"uint256"}],"outputs":[],"stateMutability":"nonpayable"},{"type":"function","name":"stake3Months","inputs":[{"name":"amount","type":"uint256","internalType":"uint256"}],"outputs":[],"stateMutability":"nonpayable"},{"type":"function","name":"stake6Months","inputs":[{"name":"amount","type":"uint256","internalType":"uint256"}],"outputs":[],"stateMutability":"nonpayable"},{"type":"function","name":"transferOwnership","inputs":[{"name":"newOwner","type":"address","internalType":"address"}],"outputs":[],"stateMutability":"nonpayable"},{"type":"function","name":"unlock","inputs":[],"outputs":[],"stateMutability":"nonpayable"},{"type":"function","name":"unstake","inputs":[],"outputs":[],"stateMutability":"nonpayable"},{"type":"event","name":"OwnershipTransferred","inputs":[{"name":"previousOwner","type":"address","indexed":true,"internalType":"address"},{"name":"newOwner","type":"address","indexed":true,"internalType":"address"}],"anonymous":false},{"type":"event","name":"Staked","inputs":[{"name":"user","type":"address","indexed":true,"internalType":"address"},{"name":"amount","type":"uint256","indexed":false,"internalType":"uint256"},{"name":"lockTime","type":"uint256","indexed":false,"internalType":"uint256"},{"name":"unlockAt","type":"uint256","indexed":false,"internalType":"uint256"}],"anonymous":false},{"type":"event","name":"Unlocked","inputs":[{"name":"user","type":"address","indexed":true,"internalType":"address"},{"name":"when","type":"uint256","indexed":false,"internalType":"uint256"}],"anonymous":false},{"type":"event","name":"Unstaked","inputs":[{"name":"user","type":"address","indexed":true,"internalType":"address"},{"name":"amount","type":"uint256","indexed":false,"internalType":"uint256"}],"anonymous":false},{"type":"error","name":"OwnableInvalidOwner","inputs":[{"name":"owner","type":"address","internalType":"address"}]},{"type":"error","name":"OwnableUnauthorizedAccount","inputs":[{"name":"account","type":"address","internalType":"address"}]},{"type":"error","name":"ReentrancyGuardReentrantCall","inputs":[]}],"bytecode":{"object":"0x60a060405234801561000f575f5ffd5b50604051610dec380380610dec83398101604081905261002e91610105565b338061005457604051631e4fbdf760e01b81525f60048201526024015b60405180910390fd5b61005d816100b6565b50600180556001600160a01b0381166100a55760405162461bcd60e51b815260206004820152600a6024820152692d32b937903a37b5b2b760b11b604482015260640161004b565b6001600160a01b0316608052610132565b5f80546001600160a01b038381166001600160a01b0319831681178455604051919092169283917f8be0079c531659141344cd1fd0a4f28419497f9722a3daafe3b4186f6b6457e09190a35050565b5f60208284031215610115575f5ffd5b81516001600160a01b038116811461012b575f5ffd5b9392505050565b608051610c8d61015f5f395f818161025501528181610356015281816105130152610a520152610c8d5ff3fe608060405234801561000f575f5ffd5b50600436106100fb575f3560e01c80638a03b5ac11610093578063a69df4b511610063578063a69df4b514610222578063ec7505f11461022a578063f2fde38b1461023d578063fd2ef43b14610250575f5ffd5b80638a03b5ac146101ca5780638da5cb5b146101d457806391d090b6146101f85780639ab1c8b914610202575f5ffd5b80636ff1c9bc116100ce5780636ff1c9bc1461014d578063715018a6146101605780637a76646014610168578063846366c3146101a5575f5ffd5b80632def6620146100ff578063306f08c3146101095780633a7c09951461011c57806355f0f0231461013a575b5f5ffd5b610107610277565b005b610107610117366004610b9a565b610405565b6101276301e1338081565b6040519081526020015b60405180910390f35b610107610148366004610b9a565b610415565b61010761015b366004610bb1565b610422565b6101076105ca565b61017b610176366004610bb1565b6105db565b6040805195865260208601949094529284019190915215156060830152608082015260a001610131565b6101b86101b3366004610bb1565b610624565b60405160ff9091168152602001610131565b6101276276a70081565b5f546001600160a01b03165b6040516001600160a01b039091168152602001610131565b61012762ed4e0081565b610215610210366004610bb1565b6106c7565b6040516101319190610bde565b6101076107e3565b610107610238366004610b9a565b61090f565b61010761024b366004610bb1565b61091d565b6101e07f000000000000000000000000000000000000000000000000000000000000000081565b61027f610957565b335f9081526002602081815260409283902083516080810185528154815260018201549281019290925291820154928101929092526003015460ff161515606082018190526103045760405162461bcd60e51b815260206004820152600c60248201526b139bdd081d5b9b1bd8dad95960a21b60448201526064015b60405180910390fd5b335f8181526002602081905260408083208381556001810184905591820192909255600301805460ff191690558251905163a9059cbb60e01b8152600481019290925260248201526001600160a01b037f0000000000000000000000000000000000000000000000000000000000000000169063a9059cbb906044016020604051808303815f875af115801561039c573d5f5f3e3d5ffd5b505050506040513d601f19601f820116820180604052508101906103c09190610c13565b50805160405190815233907f0f5bb82176feb1b5e747e28471aa92156a04d9f3ab9f45f28e2d704232b93f75906020015b60405180910390a25061040360018055565b565b6104128162ed4e00610981565b50565b610412816276a700610981565b61042a610b1f565b610432610957565b6001600160a01b0381165f9081526002602081815260409283902083516080810185528154808252600183015493820193909352928101549383019390935260039092015460ff1615156060820152906104bf5760405162461bcd60e51b815260206004820152600e60248201526d139bdd1a1a5b99c81cdd185ad95960921b60448201526064016102fb565b6001600160a01b038281165f8181526002602081905260408083208381556001810184905591820192909255600301805460ff191690558351905163a9059cbb60e01b8152600481019290925260248201527f00000000000000000000000000000000000000000000000000000000000000009091169063a9059cbb906044016020604051808303815f875af115801561055b573d5f5f3e3d5ffd5b505050506040513d601f19601f8201168201806040525081019061057f9190610c13565b5080516040519081526001600160a01b038316907f0f5bb82176feb1b5e747e28471aa92156a04d9f3ab9f45f28e2d704232b93f759060200160405180910390a25061041260018055565b6105d2610b1f565b6104035f610b4b565b6001600160a01b0381165f9081526002602081905260408220805460018201549282015460038301549194909260ff909216916106188486610c32565b91505091939590929450565b6001600160a01b0381165f908152600260205260408120546a01a784379d99db4200000081106106575750600592915050565b69d3c21bcecceda100000081106106715750600492915050565b6969e10de76676d0800000811061068b5750600392915050565b69152d02c7e14af680000081106106a55750600292915050565b69043c33c193756480000081106106bf5750600192915050565b505f92915050565b60605f6106d383610624565b90508060ff1660010361070457505060408051808201909152600681526542726f6e7a6560d01b6020820152919050565b8060ff1660020361073357505060408051808201909152600681526529b4b63b32b960d11b6020820152919050565b8060ff1660030361076057505060408051808201909152600481526311dbdb1960e21b6020820152919050565b8060ff16600403610791575050604080518082019091526008815267506c6174696e756d60c01b6020820152919050565b8060ff166005036107c1575050604080518082019091526007815266111a585b5bdb9960ca1b6020820152919050565b50506040805180820190915260048152634e6f6e6560e01b6020820152919050565b6107eb610957565b335f90815260026020526040902080546108325760405162461bcd60e51b81526020600482015260086024820152674e6f207374616b6560c01b60448201526064016102fb565b600381015460ff161561087a5760405162461bcd60e51b815260206004820152601060248201526f105b1c9958591e481d5b9b1bd8dad95960821b60448201526064016102fb565b8060020154816001015461088e9190610c32565b4210156108cc5760405162461bcd60e51b815260206004820152600c60248201526b14dd1a5b1b081b1bd8dad95960a21b60448201526064016102fb565b60038101805460ff1916600117905560405133907f0f0bc5b519ddefdd8e5f9e6423433aa2b869738de2ae34d58ebc796fc749fa0d906103f19042815260200190565b610412816301e13380610981565b610925610b1f565b6001600160a01b03811661094e57604051631e4fbdf760e01b81525f60048201526024016102fb565b61041281610b4b565b60026001540361097a57604051633ee5aeb560e01b815260040160405180910390fd5b6002600155565b610989610957565b5f82116109c65760405162461bcd60e51b815260206004820152600b60248201526a16995c9bc8185b5bdd5b9d60aa1b60448201526064016102fb565b335f908152600260205260409020805415610a145760405162461bcd60e51b815260206004820152600e60248201526d105b1c9958591e481cdd185ad95960921b60448201526064016102fb565b8281554260018201556002810182905560038101805460ff191690556040516323b872dd60e01b8152336004820152306024820152604481018490527f00000000000000000000000000000000000000000000000000000000000000006001600160a01b0316906323b872dd906064016020604051808303815f875af1158015610aa0573d5f5f3e3d5ffd5b505050506040513d601f19601f82011682018060405250810190610ac49190610c13565b50337fb4caaf29adda3eefee3ad552a8e85058589bf834c7466cae4ee58787f70589ed8484610af38142610c32565b6040805193845260208401929092529082015260600160405180910390a250610b1b60018055565b5050565b5f546001600160a01b031633146104035760405163118cdaa760e01b81523360048201526024016102fb565b5f80546001600160a01b038381166001600160a01b0319831681178455604051919092169283917f8be0079c531659141344cd1fd0a4f28419497f9722a3daafe3b4186f6b6457e09190a35050565b5f60208284031215610baa575f5ffd5b5035919050565b5f60208284031215610bc1575f5ffd5b81356001600160a01b0381168114610bd7575f5ffd5b9392505050565b602081525f82518060208401528060208501604085015e5f604082850101526040601f19601f83011684010191505092915050565b5f60208284031215610c23575f5ffd5b81518015158114610bd7575f5ffd5b80820180821115610c5157634e487b7160e01b5f52601160045260245ffd5b9291505056fea26469706673582212205d276a83d74b54ed7463058bc97f025d6cfad32c56900702edb906da278fbc8e64736f6c634300081d0033","linkReferences":{}},"methodIdentifiers":{"LOCK_TIME_12M()":"3a7c0995","LOCK_TIME_3M()":"8a03b5ac","LOCK_TIME_6M()":"91d090b6","bvpToken()":"fd2ef43b","emergencyWithdraw(address)":"6ff1c9bc","getStake(address)":"7a766460","getTierCode(address)":"846366c3","getTierName(address)":"9ab1c8b9","owner()":"8da5cb5b","renounceOwnership()":"715018a6","stake12Months(uint256)":"ec7505f1","stake3Months(uint256)":"55f0f023","stake6Months(uint256)":"306f08c3","transferOwnership(address)":"f2fde38b","unlock()":"a69df4b5","unstake()":"2def6620"},"id":33}