{
  "_format": "hh3-artifact-1",
  "contractName": "BVPStaking",
  "sourceName": "contracts/BVPStaking.sol",
  "abi": [
    {
      "inputs": [
        {
          "internalType": "address",
          "name": "_bvpToken",
          "type": "address"
        }
      ],
      "stateMutability": "nonpayable",
      "type": "constructor"
    },
    {
      "anonymous": false,
      "inputs": [
        {
          "indexed": true,
          "internalType": "address",
          "name": "user",
          "type": "address"
        },
        {
          "indexed": false,
          "internalType": "uint256",
          "name": "amount",
          "type": "uint256"
        },
        {
          "indexed": false,
          "internalType": "uint256",
          "name": "lockTime",
          "type": "uint256"
        },
        {
          "indexed": false,
          "internalType": "uint256",
          "name": "unlockAt",
          "type": "uint256"
        }
      ],
      "name": "Staked",
      "type": "event"
    },
    {
      "anonymous": false,
      "inputs": [
        {
          "indexed": true,
          "internalType": "address",
          "name": "user",
          "type": "address"
        },
        {
          "indexed": false,
          "internalType": "uint256",
          "name": "when",
          "type": "uint256"
        }
      ],
      "name": "Unlocked",
      "type": "event"
    },
    {
      "anonymous": false,
      "inputs": [
        {
          "indexed": true,
          "internalType": "address",
          "name": "user",
          "type": "address"
        },
        {
          "indexed": false,
          "internalType": "uint256",
          "name": "amount",
          "type": "uint256"
        }
      ],
      "name": "Unstaked",
      "type": "event"
    },
    {
      "inputs": [],
      "name": "LOCK_TIME_12M",
      "outputs": [
        {
          "internalType": "uint256",
          "name": "",
          "type": "uint256"
        }
      ],
      "stateMutability": "view",
      "type": "function"
    },
    {
      "inputs": [],
      "name": "LOCK_TIME_3M",
      "outputs": [
        {
          "internalType": "uint256",
          "name": "",
          "type": "uint256"
        }
      ],
      "stateMutability": "view",
      "type": "function"
    },
    {
      "inputs": [],
      "name": "LOCK_TIME_6M",
      "outputs": [
        {
          "internalType": "uint256",
          "name": "",
          "type": "uint256"
        }
      ],
      "stateMutability": "view",
      "type": "function"
    },
    {
      "inputs": [],
      "name": "bvpToken",
      "outputs": [
        {
          "internalType": "contract IERC20",
          "name": "",
          "type": "address"
        }
      ],
      "stateMutability": "view",
      "type": "function"
    },
    {
      "inputs": [
        {
          "internalType": "address",
          "name": "user",
          "type": "address"
        }
      ],
      "name": "getStake",
      "outputs": [
        {
          "internalType": "uint256",
          "name": "amount",
          "type": "uint256"
        },
        {
          "internalType": "uint256",
          "name": "timestamp",
          "type": "uint256"
        },
        {
          "internalType": "uint256",
          "name": "lockTime",
          "type": "uint256"
        },
        {
          "internalType": "bool",
          "name": "unlocked",
          "type": "bool"
        },
        {
          "internalType": "uint256",
          "name": "unlockAt",
          "type": "uint256"
        }
      ],
      "stateMutability": "view",
      "type": "function"
    },
    {
      "inputs": [
        {
          "internalType": "address",
          "name": "user",
          "type": "address"
        }
      ],
      "name": "getTierCode",
      "outputs": [
        {
          "internalType": "uint8",
          "name": "",
          "type": "uint8"
        }
      ],
      "stateMutability": "view",
      "type": "function"
    },
    {
      "inputs": [
        {
          "internalType": "address",
          "name": "user",
          "type": "address"
        }
      ],
      "name": "getTierName",
      "outputs": [
        {
          "internalType": "string",
          "name": "",
          "type": "string"
        }
      ],
      "stateMutability": "view",
      "type": "function"
    },
    {
      "inputs": [
        {
          "internalType": "uint256",
          "name": "amount",
          "type": "uint256"
        }
      ],
      "name": "stake12Months",
      "outputs": [],
      "stateMutability": "nonpayable",
      "type": "function"
    },
    {
      "inputs": [
        {
          "internalType": "uint256",
          "name": "amount",
          "type": "uint256"
        }
      ],
      "name": "stake3Months",
      "outputs": [],
      "stateMutability": "nonpayable",
      "type": "function"
    },
    {
      "inputs": [
        {
          "internalType": "uint256",
          "name": "amount",
          "type": "uint256"
        }
      ],
      "name": "stake6Months",
      "outputs": [],
      "stateMutability": "nonpayable",
      "type": "function"
    },
    {
      "inputs": [],
      "name": "unlock",
      "outputs": [],
      "stateMutability": "nonpayable",
      "type": "function"
    },
    {
      "inputs": [],
      "name": "unstake",
      "outputs": [],
      "stateMutability": "nonpayable",
      "type": "function"
    }
  ],
  "bytecode": "0x60a060405234801561000f575f5ffd5b506040516116543803806116548339818101604052810190610031919061013e565b60015f819055505f73ffffffffffffffffffffffffffffffffffffffff168173ffffffffffffffffffffffffffffffffffffffff16036100a6576040517f08c379a000000000000000000000000000000000000000000000000000000000815260040161009d906101c3565b60405180910390fd5b8073ffffffffffffffffffffffffffffffffffffffff1660808173ffffffffffffffffffffffffffffffffffffffff1681525050506101e1565b5f5ffd5b5f73ffffffffffffffffffffffffffffffffffffffff82169050919050565b5f61010d826100e4565b9050919050565b61011d81610103565b8114610127575f5ffd5b50565b5f8151905061013881610114565b92915050565b5f60208284031215610153576101526100e0565b5b5f6101608482850161012a565b91505092915050565b5f82825260208201905092915050565b7f5a65726f20746f6b656e000000000000000000000000000000000000000000005f82015250565b5f6101ad600a83610169565b91506101b882610179565b602082019050919050565b5f6020820190508181035f8301526101da816101a1565b9050919050565b60805161144d6102075f395f8181610361015281816109a60152610b24015261144d5ff3fe608060405234801561000f575f5ffd5b50600436106100b2575f3560e01c80638a03b5ac1161006f5780638a03b5ac1461017a57806391d090b6146101985780639ab1c8b9146101b6578063a69df4b5146101e6578063ec7505f1146101f0578063fd2ef43b1461020c576100b2565b80632def6620146100b6578063306f08c3146100c05780633a7c0995146100dc57806355f0f023146100fa5780637a76646014610116578063846366c31461014a575b5f5ffd5b6100be61022a565b005b6100da60048036038101906100d59190610c9f565b610498565b005b6100e46104a8565b6040516100f19190610cd9565b60405180910390f35b610114600480360381019061010f9190610c9f565b6104b0565b005b610130600480360381019061012b9190610d4c565b6104c0565b604051610141959493929190610d91565b60405180910390f35b610164600480360381019061015f9190610d4c565b61054c565b6040516101719190610dfd565b60405180910390f35b610182610622565b60405161018f9190610cd9565b60405180910390f35b6101a0610629565b6040516101ad9190610cd9565b60405180910390f35b6101d060048036038101906101cb9190610d4c565b610630565b6040516101dd9190610e86565b60405180910390f35b6101ee6107ea565b005b61020a60048036038101906102059190610c9f565b610993565b005b6102146109a4565b6040516102219190610f01565b60405180910390f35b6102326109c8565b5f60015f3373ffffffffffffffffffffffffffffffffffffffff1673ffffffffffffffffffffffffffffffffffffffff1681526020019081526020015f206040518060800160405290815f82015481526020016001820154815260200160028201548152602001600382015f9054906101000a900460ff161515151581525050905080606001516102f8576040517f08c379a00000000000000000000000000000000000000000000000000000000081526004016102ef90610f64565b60405180910390fd5b60015f3373ffffffffffffffffffffffffffffffffffffffff1673ffffffffffffffffffffffffffffffffffffffff1681526020019081526020015f205f5f82015f9055600182015f9055600282015f9055600382015f6101000a81549060ff021916905550507f000000000000000000000000000000000000000000000000000000000000000073ffffffffffffffffffffffffffffffffffffffff1663a9059cbb33835f01516040518363ffffffff1660e01b81526004016103bd929190610f91565b6020604051808303815f875af11580156103d9573d5f5f3e3d5ffd5b505050506040513d601f19601f820116820180604052508101906103fd9190610fe2565b61043c576040517f08c379a000000000000000000000000000000000000000000000000000000000815260040161043390611057565b60405180910390fd5b3373ffffffffffffffffffffffffffffffffffffffff167f0f5bb82176feb1b5e747e28471aa92156a04d9f3ab9f45f28e2d704232b93f75825f01516040516104859190610cd9565b60405180910390a250610496610a15565b565b6104a58162ed4e00610a1e565b50565b6301e1338081565b6104bd816276a700610a1e565b50565b5f5f5f5f5f5f60015f8873ffffffffffffffffffffffffffffffffffffffff1673ffffffffffffffffffffffffffffffffffffffff1681526020019081526020015f209050805f015495508060010154945080600201549350806003015f9054906101000a900460ff1692508060020154816001015461054091906110a2565b91505091939590929450565b5f5f60015f8473ffffffffffffffffffffffffffffffffffffffff1673ffffffffffffffffffffffffffffffffffffffff1681526020019081526020015f205f015490506a01a784379d99db4200000081106105ac57600591505061061d565b69d3c21bcecceda100000081106105c757600491505061061d565b6969e10de76676d080000081106105e257600391505061061d565b69152d02c7e14af680000081106105fd57600291505061061d565b69043c33c1937564800000811061061857600191505061061d565b5f9150505b919050565b6276a70081565b62ed4e0081565b60605f61063c8361054c565b905060018160ff1603610687576040518060400160405280600681526020017f42726f6e7a6500000000000000000000000000000000000000000000000000008152509150506107e5565b60028160ff16036106d0576040518060400160405280600681526020017f53696c76657200000000000000000000000000000000000000000000000000008152509150506107e5565b60038160ff1603610719576040518060400160405280600481526020017f476f6c64000000000000000000000000000000000000000000000000000000008152509150506107e5565b60048160ff1603610762576040518060400160405280600881526020017f506c6174696e756d0000000000000000000000000000000000000000000000008152509150506107e5565b60058160ff16036107ab576040518060400160405280600781526020017f4469616d6f6e64000000000000000000000000000000000000000000000000008152509150506107e5565b6040518060400160405280600481526020017f4e6f6e65000000000000000000000000000000000000000000000000000000008152509150505b919050565b6107f26109c8565b5f60015f3373ffffffffffffffffffffffffffffffffffffffff1673ffffffffffffffffffffffffffffffffffffffff1681526020019081526020015f2090505f815f015411610877576040517f08c379a000000000000000000000000000000000000000000000000000000000815260040161086e9061111f565b60405180910390fd5b806003015f9054906101000a900460ff16156108c8576040517f08c379a00000000000000000000000000000000000000000000000000000000081526004016108bf90611187565b60405180910390fd5b806002015481600101546108dc91906110a2565b42101561091e576040517f08c379a0000000000000000000000000000000000000000000000000000000008152600401610915906111ef565b60405180910390fd5b6001816003015f6101000a81548160ff0219169083151502179055503373ffffffffffffffffffffffffffffffffffffffff167f0f0bc5b519ddefdd8e5f9e6423433aa2b869738de2ae34d58ebc796fc749fa0d426040516109809190610cd9565b60405180910390a250610991610a15565b565b6109a1816301e13380610a1e565b50565b7f000000000000000000000000000000000000000000000000000000000000000081565b60025f5403610a0c576040517f08c379a0000000000000000000000000000000000000000000000000000000008152600401610a0390611257565b60405180910390fd5b60025f81905550565b60015f81905550565b610a266109c8565b5f8211610a68576040517f08c379a0000000000000000000000000000000000000000000000000000000008152600401610a5f906112bf565b60405180910390fd5b5f60015f3373ffffffffffffffffffffffffffffffffffffffff1673ffffffffffffffffffffffffffffffffffffffff1681526020019081526020015f2090505f815f015414610aed576040517f08c379a0000000000000000000000000000000000000000000000000000000008152600401610ae490611327565b60405180910390fd5b82815f01819055504281600101819055508181600201819055505f816003015f6101000a81548160ff0219169083151502179055507f000000000000000000000000000000000000000000000000000000000000000073ffffffffffffffffffffffffffffffffffffffff166323b872dd3330866040518463ffffffff1660e01b8152600401610b7f93929190611345565b6020604051808303815f875af1158015610b9b573d5f5f3e3d5ffd5b505050506040513d601f19601f82011682018060405250810190610bbf9190610fe2565b610bfe576040517f08c379a0000000000000000000000000000000000000000000000000000000008152600401610bf5906113c4565b60405180910390fd5b3373ffffffffffffffffffffffffffffffffffffffff167fb4caaf29adda3eefee3ad552a8e85058589bf834c7466cae4ee58787f70589ed84848542610c4491906110a2565b604051610c53939291906113e2565b60405180910390a250610c64610a15565b5050565b5f5ffd5b5f819050919050565b610c7e81610c6c565b8114610c88575f5ffd5b50565b5f81359050610c9981610c75565b92915050565b5f60208284031215610cb457610cb3610c68565b5b5f610cc184828501610c8b565b91505092915050565b610cd381610c6c565b82525050565b5f602082019050610cec5f830184610cca565b92915050565b5f73ffffffffffffffffffffffffffffffffffffffff82169050919050565b5f610d1b82610cf2565b9050919050565b610d2b81610d11565b8114610d35575f5ffd5b50565b5f81359050610d4681610d22565b92915050565b5f60208284031215610d6157610d60610c68565b5b5f610d6e84828501610d38565b91505092915050565b5f8115159050919050565b610d8b81610d77565b82525050565b5f60a082019050610da45f830188610cca565b610db16020830187610cca565b610dbe6040830186610cca565b610dcb6060830185610d82565b610dd86080830184610cca565b9695505050505050565b5f60ff82169050919050565b610df781610de2565b82525050565b5f602082019050610e105f830184610dee565b92915050565b5f81519050919050565b5f82825260208201905092915050565b8281835e5f83830152505050565b5f601f19601f8301169050919050565b5f610e5882610e16565b610e628185610e20565b9350610e72818560208601610e30565b610e7b81610e3e565b840191505092915050565b5f6020820190508181035f830152610e9e8184610e4e565b905092915050565b5f819050919050565b5f610ec9610ec4610ebf84610cf2565b610ea6565b610cf2565b9050919050565b5f610eda82610eaf565b9050919050565b5f610eeb82610ed0565b9050919050565b610efb81610ee1565b82525050565b5f602082019050610f145f830184610ef2565b92915050565b7f4e6f7420756e6c6f636b656400000000000000000000000000000000000000005f82015250565b5f610f4e600c83610e20565b9150610f5982610f1a565b602082019050919050565b5f6020820190508181035f830152610f7b81610f42565b9050919050565b610f8b81610d11565b82525050565b5f604082019050610fa45f830185610f82565b610fb16020830184610cca565b9392505050565b610fc181610d77565b8114610fcb575f5ffd5b50565b5f81519050610fdc81610fb8565b92915050565b5f60208284031215610ff757610ff6610c68565b5b5f61100484828501610fce565b91505092915050565b7f5452414e534645525f4641494c454400000000000000000000000000000000005f82015250565b5f611041600f83610e20565b915061104c8261100d565b602082019050919050565b5f6020820190508181035f83015261106e81611035565b9050919050565b7f4e487b71000000000000000000000000000000000000000000000000000000005f52601160045260245ffd5b5f6110ac82610c6c565b91506110b783610c6c565b92508282019050808211156110cf576110ce611075565b5b92915050565b7f4e6f207374616b650000000000000000000000000000000000000000000000005f82015250565b5f611109600883610e20565b9150611114826110d5565b602082019050919050565b5f6020820190508181035f830152611136816110fd565b9050919050565b7f416c726561647920756e6c6f636b6564000000000000000000000000000000005f82015250565b5f611171601083610e20565b915061117c8261113d565b602082019050919050565b5f6020820190508181035f83015261119e81611165565b9050919050565b7f5374696c6c206c6f636b656400000000000000000000000000000000000000005f82015250565b5f6111d9600c83610e20565b91506111e4826111a5565b602082019050919050565b5f6020820190508181035f830152611206816111cd565b9050919050565b7f5265656e7472616e637947756172643a207265656e7472616e742063616c6c005f82015250565b5f611241601f83610e20565b915061124c8261120d565b602082019050919050565b5f6020820190508181035f83015261126e81611235565b9050919050565b7f5a65726f20616d6f756e740000000000000000000000000000000000000000005f82015250565b5f6112a9600b83610e20565b91506112b482611275565b602082019050919050565b5f6020820190508181035f8301526112d68161129d565b9050919050565b7f416c7265616479207374616b65640000000000000000000000000000000000005f82015250565b5f611311600e83610e20565b915061131c826112dd565b602082019050919050565b5f6020820190508181035f83015261133e81611305565b9050919050565b5f6060820190506113585f830186610f82565b6113656020830185610f82565b6113726040830184610cca565b949350505050565b7f5452414e534645525f46524f4d5f4641494c45440000000000000000000000005f82015250565b5f6113ae601483610e20565b91506113b98261137a565b602082019050919050565b5f6020820190508181035f8301526113db816113a2565b9050919050565b5f6060820190506113f55f830186610cca565b6114026020830185610cca565b61140f6040830184610cca565b94935050505056fea264697066735822122025311172b29249b9d7d7adec31ead6feebba91b011630d13b61d96eafa46eed164736f6c634300081d0033",
  "linkReferences": {},
  "deployedLinkReferences": {},
  "immutableReferences": {
    "9": [
      {
        "length": 32,
        "start": 865
      },
      {
        "length": 32,
        "start": 2470
      },
      {
        "length": 32,
        "start": 2852
      }
    ]
  },
  "inputSourceName": "project/contracts/BVPStaking.sol",
  "buildInfoId": "solc-0_8_29-f97ac1e3360869e8dfd4864b54d6c0171592f9f2"
}